{
  "_format": "hh-sol-artifact-1",
  "contractName": "RWAFactory",
  "sourceName": "src/contracts/RWAFactory.sol",
  "abi": [
    {
      "inputs": [
        {
          "internalType": "uint256",
          "name": "_deploymentFee",
          "type": "uint256"
        }
      ],
      "stateMutability": "nonpayable",
      "type": "constructor"
    },
    {
      "inputs": [],
      "name": "FactoryPausedError",
      "type": "error"
    },
    {
      "inputs": [
        {
          "internalType": "uint256",
          "name": "provided",
          "type": "uint256"
        },
        {
          "internalType": "uint256",
          "name": "required",
          "type": "uint256"
        }
      ],
      "name": "InsufficientFee",
      "type": "error"
    },
    {
      "inputs": [],
      "name": "InvalidAddress",
      "type": "error"
    },
    {
      "inputs": [],
      "name": "InvalidFee",
      "type": "error"
    },
    {
      "inputs": [],
      "name": "InvalidFeeCollector",
      "type": "error"
    },
    {
      "inputs": [],
      "name": "InvalidInitialSupply",
      "type": "error"
    },
    {
      "inputs": [],
      "name": "InvalidTokenName",
      "type": "error"
    },
    {
      "inputs": [],
      "name": "InvalidTokenSymbol",
      "type": "error"
    },
    {
      "inputs": [],
      "name": "NotOwner",
      "type": "error"
    },
    {
      "inputs": [],
      "name": "TokenAlreadyVerified",
      "type": "error"
    },
    {
      "inputs": [],
      "name": "TokenNotFound",
      "type": "error"
    },
    {
      "anonymous": false,
      "inputs": [
        {
          "indexed": true,
          "internalType": "address",
          "name": "pauser",
          "type": "address"
        }
      ],
      "name": "FactoryPaused",
      "type": "event"
    },
    {
      "anonymous": false,
      "inputs": [
        {
          "indexed": true,
          "internalType": "address",
          "name": "unpauser",
          "type": "address"
        }
      ],
      "name": "FactoryUnpaused",
      "type": "event"
    },
    {
      "anonymous": false,
      "inputs": [
        {
          "indexed": true,
          "internalType": "address",
          "name": "oldCollector",
          "type": "address"
        },
        {
          "indexed": true,
          "internalType": "address",
          "name": "newCollector",
          "type": "address"
        }
      ],
      "name": "FeeCollectorUpdated",
      "type": "event"
    },
    {
      "anonymous": false,
      "inputs": [
        {
          "indexed": false,
          "internalType": "uint256",
          "name": "oldFee",
          "type": "uint256"
        },
        {
          "indexed": false,
          "internalType": "uint256",
          "name": "newFee",
          "type": "uint256"
        }
      ],
      "name": "FeeUpdated",
      "type": "event"
    },
    {
      "anonymous": false,
      "inputs": [
        {
          "indexed": true,
          "internalType": "address",
          "name": "previousOwner",
          "type": "address"
        },
        {
          "indexed": true,
          "internalType": "address",
          "name": "newOwner",
          "type": "address"
        }
      ],
      "name": "OwnershipTransferred",
      "type": "event"
    },
    {
      "anonymous": false,
      "inputs": [
        {
          "indexed": true,
          "internalType": "address",
          "name": "tokenAddress",
          "type": "address"
        },
        {
          "indexed": true,
          "internalType": "address",
          "name": "deployer",
          "type": "address"
        },
        {
          "indexed": false,
          "internalType": "string",
          "name": "name",
          "type": "string"
        },
        {
          "indexed": false,
          "internalType": "string",
          "name": "symbol",
          "type": "string"
        },
        {
          "indexed": false,
          "internalType": "string",
          "name": "category",
          "type": "string"
        },
        {
          "indexed": false,
          "internalType": "uint256",
          "name": "deploymentFee",
          "type": "uint256"
        }
      ],
      "name": "TokenDeployed",
      "type": "event"
    },
    {
      "anonymous": false,
      "inputs": [
        {
          "indexed": true,
          "internalType": "address",
          "name": "tokenAddress",
          "type": "address"
        },
        {
          "indexed": true,
          "internalType": "address",
          "name": "verifier",
          "type": "address"
        }
      ],
      "name": "TokenVerified",
      "type": "event"
    },
    {
      "inputs": [
        {
          "internalType": "string",
          "name": "",
          "type": "string"
        },
        {
          "internalType": "uint256",
          "name": "",
          "type": "uint256"
        }
      ],
      "name": "categoryTokens",
      "outputs": [
        {
          "internalType": "address",
          "name": "",
          "type": "address"
        }
      ],
      "stateMutability": "view",
      "type": "function"
    },
    {
      "inputs": [
        {
          "internalType": "string",
          "name": "_name",
          "type": "string"
        },
        {
          "internalType": "string",
          "name": "_symbol",
          "type": "string"
        },
        {
          "internalType": "uint8",
          "name": "_decimals",
          "type": "uint8"
        },
        {
          "internalType": "uint256",
          "name": "_initialSupply",
          "type": "uint256"
        },
        {
          "internalType": "string",
          "name": "_assetType",
          "type": "string"
        },
        {
          "internalType": "string",
          "name": "_assetLocation",
          "type": "string"
        },
        {
          "internalType": "uint256",
          "name": "_assetValue",
          "type": "uint256"
        },
        {
          "internalType": "string",
          "name": "_category",
          "type": "string"
        }
      ],
      "name": "deployRWAToken",
      "outputs": [
        {
          "internalType": "address",
          "name": "",
          "type": "address"
        }
      ],
      "stateMutability": "payable",
      "type": "function"
    },
    {
      "inputs": [
        {
          "internalType": "uint256",
          "name": "",
          "type": "uint256"
        }
      ],
      "name": "deployedTokens",
      "outputs": [
        {
          "internalType": "address",
          "name": "",
          "type": "address"
        }
      ],
      "stateMutability": "view",
      "type": "function"
    },
    {
      "inputs": [
        {
          "internalType": "address",
          "name": "",
          "type": "address"
        },
        {
          "internalType": "uint256",
          "name": "",
          "type": "uint256"
        }
      ],
      "name": "deployerTokens",
      "outputs": [
        {
          "internalType": "address",
          "name": "",
          "type": "address"
        }
      ],
      "stateMutability": "view",
      "type": "function"
    },
    {
      "inputs": [],
      "name": "deploymentFee",
      "outputs": [
        {
          "internalType": "uint256",
          "name": "",
          "type": "uint256"
        }
      ],
      "stateMutability": "view",
      "type": "function"
    },
    {
      "inputs": [],
      "name": "emergencyWithdraw",
      "outputs": [],
      "stateMutability": "nonpayable",
      "type": "function"
    },
    {
      "inputs": [],
      "name": "feeCollector",
      "outputs": [
        {
          "internalType": "address",
          "name": "",
          "type": "address"
        }
      ],
      "stateMutability": "view",
      "type": "function"
    },
    {
      "inputs": [],
      "name": "getAllDeployers",
      "outputs": [
        {
          "internalType": "address[]",
          "name": "",
          "type": "address[]"
        }
      ],
      "stateMutability": "view",
      "type": "function"
    },
    {
      "inputs": [],
      "name": "getAllTokens",
      "outputs": [
        {
          "internalType": "address[]",
          "name": "",
          "type": "address[]"
        }
      ],
      "stateMutability": "view",
      "type": "function"
    },
    {
      "inputs": [],
      "name": "getDeployerCount",
      "outputs": [
        {
          "internalType": "uint256",
          "name": "",
          "type": "uint256"
        }
      ],
      "stateMutability": "view",
      "type": "function"
    },
    {
      "inputs": [],
      "name": "getFactoryStats",
      "outputs": [
        {
          "internalType": "uint256",
          "name": "totalTokens",
          "type": "uint256"
        },
        {
          "internalType": "uint256",
          "name": "verifiedTokens",
          "type": "uint256"
        },
        {
          "internalType": "uint256",
          "name": "totalDeployers",
          "type": "uint256"
        },
        {
          "internalType": "uint256",
          "name": "totalFeesCollected",
          "type": "uint256"
        }
      ],
      "stateMutability": "view",
      "type": "function"
    },
    {
      "inputs": [
        {
          "internalType": "string",
          "name": "_category",
          "type": "string"
        }
      ],
      "name": "getTokenCountByCategory",
      "outputs": [
        {
          "internalType": "uint256",
          "name": "",
          "type": "uint256"
        }
      ],
      "stateMutability": "view",
      "type": "function"
    },
    {
      "inputs": [
        {
          "internalType": "address",
          "name": "_tokenAddress",
          "type": "address"
        }
      ],
      "name": "getTokenInfo",
      "outputs": [
        {
          "components": [
            {
              "internalType": "address",
              "name": "deployer",
              "type": "address"
            },
            {
              "internalType": "string",
              "name": "name",
              "type": "string"
            },
            {
              "internalType": "string",
              "name": "symbol",
              "type": "string"
            },
            {
              "internalType": "uint256",
              "name": "deploymentTime",
              "type": "uint256"
            },
            {
              "internalType": "bool",
              "name": "verified",
              "type": "bool"
            },
            {
              "internalType": "string",
              "name": "category",
              "type": "string"
            },
            {
              "internalType": "uint256",
              "name": "deploymentFee",
              "type": "uint256"
            }
          ],
          "internalType": "struct RWAFactory.TokenInfo",
          "name": "",
          "type": "tuple"
        }
      ],
      "stateMutability": "view",
      "type": "function"
    },
    {
      "inputs": [
        {
          "internalType": "string",
          "name": "_category",
          "type": "string"
        }
      ],
      "name": "getTokensByCategory",
      "outputs": [
        {
          "internalType": "address[]",
          "name": "",
          "type": "address[]"
        }
      ],
      "stateMutability": "view",
      "type": "function"
    },
    {
      "inputs": [
        {
          "internalType": "address",
          "name": "_deployer",
          "type": "address"
        }
      ],
      "name": "getTokensByDeployer",
      "outputs": [
        {
          "internalType": "address[]",
          "name": "",
          "type": "address[]"
        }
      ],
      "stateMutability": "view",
      "type": "function"
    },
    {
      "inputs": [],
      "name": "getTotalTokens",
      "outputs": [
        {
          "internalType": "uint256",
          "name": "",
          "type": "uint256"
        }
      ],
      "stateMutability": "view",
      "type": "function"
    },
    {
      "inputs": [],
      "name": "getVerifiedTokens",
      "outputs": [
        {
          "internalType": "address[]",
          "name": "",
          "type": "address[]"
        }
      ],
      "stateMutability": "view",
      "type": "function"
    },
    {
      "inputs": [
        {
          "internalType": "address",
          "name": "_tokenAddress",
          "type": "address"
        }
      ],
      "name": "isTokenDeployed",
      "outputs": [
        {
          "internalType": "bool",
          "name": "",
          "type": "bool"
        }
      ],
      "stateMutability": "view",
      "type": "function"
    },
    {
      "inputs": [],
      "name": "owner",
      "outputs": [
        {
          "internalType": "address",
          "name": "",
          "type": "address"
        }
      ],
      "stateMutability": "view",
      "type": "function"
    },
    {
      "inputs": [],
      "name": "pause",
      "outputs": [],
      "stateMutability": "nonpayable",
      "type": "function"
    },
    {
      "inputs": [],
      "name": "paused",
      "outputs": [
        {
          "internalType": "bool",
          "name": "",
          "type": "bool"
        }
      ],
      "stateMutability": "view",
      "type": "function"
    },
    {
      "inputs": [
        {
          "internalType": "address",
          "name": "",
          "type": "address"
        }
      ],
      "name": "tokenInfo",
      "outputs": [
        {
          "internalType": "address",
          "name": "deployer",
          "type": "address"
        },
        {
          "internalType": "string",
          "name": "name",
          "type": "string"
        },
        {
          "internalType": "string",
          "name": "symbol",
          "type": "string"
        },
        {
          "internalType": "uint256",
          "name": "deploymentTime",
          "type": "uint256"
        },
        {
          "internalType": "bool",
          "name": "verified",
          "type": "bool"
        },
        {
          "internalType": "string",
          "name": "category",
          "type": "string"
        },
        {
          "internalType": "uint256",
          "name": "deploymentFee",
          "type": "uint256"
        }
      ],
      "stateMutability": "view",
      "type": "function"
    },
    {
      "inputs": [
        {
          "internalType": "address",
          "name": "_newOwner",
          "type": "address"
        }
      ],
      "name": "transferOwnership",
      "outputs": [],
      "stateMutability": "nonpayable",
      "type": "function"
    },
    {
      "inputs": [],
      "name": "unpause",
      "outputs": [],
      "stateMutability": "nonpayable",
      "type": "function"
    },
    {
      "inputs": [
        {
          "internalType": "uint256",
          "name": "_newFee",
          "type": "uint256"
        }
      ],
      "name": "updateDeploymentFee",
      "outputs": [],
      "stateMutability": "nonpayable",
      "type": "function"
    },
    {
      "inputs": [
        {
          "internalType": "address",
          "name": "_newFeeCollector",
          "type": "address"
        }
      ],
      "name": "updateFeeCollector",
      "outputs": [],
      "stateMutability": "nonpayable",
      "type": "function"
    },
    {
      "inputs": [
        {
          "internalType": "address",
          "name": "_tokenAddress",
          "type": "address"
        }
      ],
      "name": "verifyToken",
      "outputs": [],
      "stateMutability": "nonpayable",
      "type": "function"
    }
  ],
  "bytecode": "0x60803461006d57601f61399b38819003918201601f19168301916001600160401b038311848410176100725780849260209460405283398101031261006d575160018060a01b0319338160005416176000553390600154161760015560025560405161391290816100898239f35b600080fd5b634e487b7160e01b600052604160045260246000fdfe60808060405260043610156200001457600080fd5b600090813560e01c9081631f69565f146200173a575080632a5c792a14620016b45780633f4ba83a146200165d5780634130276b1462001540578063499200db14620014dc5780635c975abb14620014b75780635ef2c2bf14620013965780637293709e146200131e5780638456cb5914620012c45780638bfeb39e14620011945780638da5cb5b146200116b5780639b81a8ba14620011095780639e592afc146200101d578063a6c74fd41462000fd5578063ae400c19146200079b578063b901189f146200074b578063c415b95c1462000720578063c92264451462000581578063d2c35ce81462000502578063d38610821462000451578063db2e21bc14620003fa578063ec81aadb14620003b1578063ecc487351462000312578063f08b82e614620002f2578063f2cff57f14620002d2578063f2fde38b146200023a5763f5dab711146200016657600080fd5b346200023757602036600319011262000237576001600160a01b0390604090826200019062001899565b16815260046020522090815416620001ab6001830162001a84565b916200022d620001be6002830162001a84565b9160038101549060ff600482015416620002126006620001e16005850162001a84565b9301549562000203604051998a998a5260e060208b015260e08a0190620018da565b9088820360408a0152620018da565b9260608701521515608086015284820360a0860152620018da565b9060c08301520390f35b80fd5b50346200023757602036600319011262000237576200025862001899565b8154906001600160a01b038083169133839003620002c05716918215620002ae576001600160a01b031916821783557f8be0079c531659141344cd1fd0a4f28419497f9722a3daafe3b4186f6b6457e08380a380f35b60405163e6c4247b60e01b8152600490fd5b6040516330cd747160e01b8152600490fd5b503462000237578060031936011262000237576020600254604051908152f35b503462000237578060031936011262000237576020600554604051908152f35b50346200023757602080600319360112620003ad576001600160a01b0390816200033b62001899565b168015620002ae5783908152600682526040812092604051908193808654938481520195845280842093915b83831062000393576200038f8662000382818a038262001963565b6040519182918262001901565b0390f35b845481168752958101956001948501949092019162000367565b5080fd5b50346200023757602036600319011262000237576004359060055482101562000237576020620003e183620019e0565b905460405160039290921b1c6001600160a01b03168152f35b5034620002375780600319360112620002375780546001600160a01b031633819003620002c0578180808093479082821562000447575bf1156200043b5780f35b604051903d90823e3d90fd5b506108fc62000431565b50346200023757602080600319360112620003ad576004356001600160401b038111620004fe57816200048d620004a192369060040162001985565b8160405193828580945193849201620018b5565b81016007815203019020916040518092808554928381520194835280832092905b828210620004dd576200038f85620003828189038262001963565b83546001600160a01b031686529485019460019384019390910190620004c2565b8280fd5b50346200023757602036600319011262000237576200052062001899565b81546001600160a01b03919082163303620002c0578116908115620002ae57600154826bffffffffffffffffffffffff60a01b821617600155167f5d16ad41baeb009cd23eb8f6c7cde5c2e0cd5acf4a33926ab488875c37c37f388380a380f35b50346200023757806003193601126200023757600580549082839184905b848210620006385750506040516327964abf60e21b815290602082600481305afa9182156200062d578592620005ec575b5060809450604051938452602084015260408301526060820152f35b9091506020813d821162000624575b816200060a6020938362001963565b81010312620006205760809450519038620005d0565b8480fd5b3d9150620005fb565b6040513d87823e3d90fd5b90926200064584620019e0565b60018060a01b03809254600392831b1c16885260209060048252604089209160405193620006738562001947565b8354168452620006866001840162001a84565b90840152620006986002830162001a84565b6040840152810154606083015260c0600660ff60048401541692608085019315158452620006c887820162001a84565b60a086015201549201918252516200070d575b518101809111620006f957620006f2909362001b74565b906200059f565b634e487b7160e01b86526011600452602486fd5b92620007199062001b74565b92620006db565b503462000237578060031936011262000237576001546040516001600160a01b039091168152602090f35b5034620002375760203660031901126200023757600435906001600160401b0382116200023757602062000788816200048d366004870162001985565b8101600781520301902054604051908152f35b50610100908160031936011262000237576004356001600160401b038111620003ad57620007ce90369060040162001985565b6024356001600160401b038111620004fe57620007f090369060040162001985565b6044359360ff8516850362000fd1576084356001600160401b03811162000620576200082190369060040162001985565b9060a4356001600160401b03811162000fcd576200084490369060040162001985565b60e4356001600160401b03811162000fc9576200086690369060040162001985565b9660ff6003541662000fb75785511562000fa55784511562000fa5576064351562000f935760025480341062000f75575060405193611cdd9385858101106001600160401b03868801111762000f6157620009339285949260ff620008f6620008e362000920958b9a62001c008c398a8a01818152018d620018da565b888a01810360208a8c0101528b620018da565b92168787016040810191909152606435606082015233608082015280830360a090910152620018da565b90838501820360c08587010152620018da565b9060e060c4359184010152039084f09283156200043b57604051620009588162001947565b338152602080820185815260408084018690524260608501526080840185905260a084018990523460c08501526001600160a01b03888116865260049093528420835181546001600160a01b0319169316929092178255518051919291906001600160401b03821162000da3578190620009d6600186015462001a47565b601f811162000f0c575b50602090601f831160011462000e9857869262000e8c575b50508160011b916000199060031b1c19161760018301555b60408101518051906001600160401b03821162000da357819062000a38600286015462001a47565b601f811162000e37575b50602090601f831160011462000dc357869262000db7575b50508160011b916000199060031b1c19161760028301555b60608101516003830155600482016080820151151560ff8019835416911617905560a08101518051906001600160401b03821162000da35762000ab9600585015462001a47565b601f811162000d5a575b50602090601f831160011462000ce35791806006949260c094889262000cd7575b50508160011b916000199060031b1c19161760058501555b0151910155600554600160401b81101562000cc15780600162000b239201600555620019e0565b81546001600160a01b0387811660039390931b83811b91901b199091161790915533825260066020526040822062000b5c919062001b36565b62000b96604051865162000b75818360208b01620018b5565b600790820190815281900360200190206001600160a01b0386169062001b36565b80600254801590811562000c8d575b50505060025480341162000c43575b505060209362000be762000bf69262000bd960405195608087526080870190620018da565b9085820388870152620018da565b908382036040850152620018da565b34606083015233916001600160a01b038416917f0ab0306faf10034d54b313f8808a8b4b267d3c0b1be27c28ce2c6c9656b29575919081900390a36040516001600160a01b039091168152f35b8034039034821162000c79578280809381938290341462000c6f575b3390f1156200043b578062000bb4565b506108fc62000c5f565b634e487b7160e01b83526011600452602483fd5b82809291819260018060a01b036001541690839062000cb7575bf1156200043b5780388062000ba5565b506108fc62000ca7565b634e487b7160e01b600052604160045260246000fd5b01519050388062000ae4565b906005850186526020862091865b601f198516811062000d415750926006949260019260c09583601f1981161062000d27575b505050811b01600585015562000afc565b015160001960f88460031b161c1916905538808062000d16565b9192602060018192868501518155019401920162000cf1565b60058501865260208620601f840160051c81016020851062000d9b575b601f830160051c8201811062000d8f57505062000ac3565b87815560010162000d77565b508062000d77565b634e487b7160e01b85526041600452602485fd5b01519050388062000a5a565b9250600285018652602086209086935b601f198416851062000e1b576001945083601f1981161062000e01575b505050811b01600283015562000a72565b015160001960f88460031b161c1916905538808062000df0565b8181015183556020948501946001909301929091019062000dd3565b90915060028501865260208620601f840160051c81016020851062000e84575b90849392915b601f830160051c8201811062000e7557505062000a42565b88815585945060010162000e5d565b508062000e57565b015190503880620009f8565b9250600185018652602086209086935b601f198416851062000ef0576001945083601f1981161062000ed6575b505050811b01600183015562000a10565b015160001960f88460031b161c1916905538808062000ec5565b8181015183556020948501946001909301929091019062000ea8565b90915060018501865260208620601f840160051c81016020851062000f59575b90849392915b601f830160051c8201811062000f4a575050620009e0565b88815585945060010162000f32565b508062000f2c565b634e487b7160e01b89526041600452602489fd5b6044906040519063a458261b60e01b82523460048301526024820152fd5b60405163c2c5358f60e01b8152600490fd5b6040516316c31e7760e21b8152600490fd5b6040516301744af160e41b8152600490fd5b8680fd5b8580fd5b8380fd5b50346200023757602036600319011262000237576001600160a01b038062000ffc62001899565b168015620002ae578260409160209452600484522054161515604051908152f35b503462000237578060031936011262000237578081600554905b8181106200104a57602083604051908152f35b6200105581620019e0565b9054600391821b1c6001600160a01b03908116865260046020908152604087205487939290811691845b868110620010be575b505050505015620010a5575b6200109f9062001b74565b62001037565b91620010b56200109f9162001b74565b92905062001094565b82620010ca82620019e0565b905490871b1c168a5260048252838360408c20541614620010f657620010f09062001b74565b6200107f565b5050505050506001388080808062001088565b50346200023757604036600319011262000237576200112762001899565b6001600160a01b039081168252600660205260408220805460243593908410156200023757506020926200115b9162001a2e565b9190546040519260031b1c168152f35b50346200023757806003193601126200023757546040516001600160a01b039091168152602090f35b50346200023757806003193601126200023757600554620011b58162001bb2565b8291835b8181106200121c575050620011ce8262001bb2565b925b828110620011e857604051806200038f868262001901565b62001216906001600160a01b0362001201828562001bea565b51166200120f828762001bea565b5262001b74565b620011d0565b6200122781620019e0565b90546001600160a01b0360039290921b1c81168652600460205260408620548116908690815b87811062001290575b50501562001271575b506200126b9062001b74565b620011b9565b8462001288916200120f6200126b94978762001bea565b93906200125f565b83826200129e838a62001bea565b511614620012b757620012b19062001b74565b6200124d565b5050506001388062001256565b5034620002375780600319360112620002375780546001600160a01b03163303620002c057600160ff196003541617600355337ff7ab4f18771ba1e5f8db30e61ceed7bc8096937655edc7b3cae25a61921f4a1e8280a280f35b50346200023757604036600319011262000237576004356001600160401b038111620003ad576200135490369060040162001985565b90620013736020602435938160405193828580945193849201620018b5565b8101600781520301902090815483101562000237576020620003e1848462001a2e565b5034620002375780600319360112620002375760055481805b828110620014585750620013c39062001bb2565b9180805b838110620013df57604051806200038f878262001901565b620013ea81620019e0565b60018060a01b03809254600392831b1c168452600460205260ff60046040862001541662001426575b5050620014209062001b74565b620013c7565b936200144f9183956200143d6200142095620019e0565b9054911b1c166200120f828962001bea565b92903862001413565b6200146381620019e0565b905460039190911b1c6001600160a01b031684526004602081905260408520015460ff166200149e575b620014989062001b74565b620013af565b90620014ae620014989162001b74565b9190506200148d565b50346200023757806003193601126200023757602060ff600354166040519015158152f35b50346200023757602036600319011262000237578054600435906001600160a01b03163303620002c05760407f528d9479e9f9889a87a3c30c7f7ba537e5e59c4c85a37733b16e57c62df6130291600254908060025582519182526020820152a180f35b50346200023757602036600319011262000237576200155e62001899565b81546001600160a01b0392919083163303620002c0578216918215620002ae5782825260046020526040822090815416156200164b57600401805460ff8116620016395760ff19166001179055813b1562000237576040516301b621f760e51b8152818160048183875af180156200162e5762001601575b509033907f6956363f94cead922fc2205779903a46ce7592b28144c6117204074a6ac77bb98380a380f35b6001600160401b0381116200161a5760405238620015d6565b634e487b7160e01b82526041600452602482fd5b6040513d84823e3d90fd5b60405163557d22fd60e11b8152600490fd5b604051630cbdb7b360e41b8152600490fd5b5034620002375780600319360112620002375780546001600160a01b03163303620002c05760ff1960035416600355337f5dd33ddbee1b2bb2cfe2e04a15fcc4e2071c141d15e24d1fe1b5d6b80f355c0c8280a280f35b50346200023757806003193601126200023757604051600580548083529083526020808301937f036b6384b5eca791c62761152d0c79bb0604c104a5fb6f4eb0703f3154bb3db092915b82821062001719576200038f85620003828189038262001963565b83546001600160a01b031686529485019460019384019390910190620016fe565b823462000237576020908160031936011262000237576200175a62001899565b90620017668462001947565b8084528060c0606095868682015286604082015282878201528260808201528660a0820152015260018060a01b038092168015620002ae57816040916200188e935260048552209160405194858094620017c08262001947565b8381541682526200186e620017d86001830162001a84565b88840190815262001859620017f06002850162001a84565b91604086019283528a600386015498888801998a5260c0600660ff60048a0154169860808b019915158a5260a06200182b6005830162001a84565b9b019a8b5201549c019b8c526040519d8e9d8e525116908c01525160e060408c01526101008b0190620018da565b9051601f1995868b840301908b0152620018da565b9351608088015251151560a087015251908583030160c0860152620018da565b905160e08301520390f35b600435906001600160a01b0382168203620018b057565b600080fd5b60005b838110620018c95750506000910152565b8181015183820152602001620018b8565b90602091620018f581518092818552858086019101620018b5565b601f01601f1916010190565b6020908160408183019282815285518094520193019160005b82811062001929575050505090565b83516001600160a01b0316855293810193928101926001016200191a565b60e081019081106001600160401b0382111762000cc157604052565b90601f801991011681019081106001600160401b0382111762000cc157604052565b81601f82011215620018b0578035906001600160401b03821162000cc15760405192620019bd601f8401601f19166020018562001963565b82845260208383010111620018b057816000926020809301838601378301015290565b60055481101562001a185760056000527f036b6384b5eca791c62761152d0c79bb0604c104a5fb6f4eb0703f3154bb3db00190600090565b634e487b7160e01b600052603260045260246000fd5b805482101562001a185760005260206000200190600090565b90600182811c9216801562001a79575b602083101462001a6357565b634e487b7160e01b600052602260045260246000fd5b91607f169162001a57565b906040519182600082549262001a9a8462001a47565b90818452600194858116908160001462001b11575060011462001aca575b505062001ac89250038362001963565b565b9093915060005260209081600020936000915b81831062001af857505062001ac89350820101388062001ab8565b8554888401850152948501948794509183019162001add565b91505062001ac894506020925060ff191682840152151560051b820101388062001ab8565b8054600160401b81101562000cc15762001b569160018201815562001a2e565b819291549060031b9160018060a01b03809116831b921b1916179055565b600019811462001b845760010190565b634e487b7160e01b600052601160045260246000fd5b6001600160401b03811162000cc15760051b60200190565b9062001bbe8262001b9a565b62001bcd604051918262001963565b828152809262001be0601f199162001b9a565b0190602036910137565b805182101562001a185760209160051b01019056fe608060405234620007ae5762001cdd803803806200001d81620007b3565b928339810161010082820312620007ae5781516001600160401b038111620007ae57816200004d918401620007d9565b60208301519091906001600160401b038111620007ae578162000072918501620007d9565b9060408401519260ff84168403620007ae5760608501516080860151909490936001600160a01b0385168503620007ae5760a08701516001600160401b038111620007ae5784620000c5918901620007d9565b60c08801519094906001600160401b038111620007ae5760e091620000ec918a01620007d9565b970151926001600160a01b038616156200079c578051906001600160401b038211620004665760035490600182811c9216801562000791575b6020831014620004455781601f8493116200071f575b50602090601f8311600114620006905760009262000684575b50508160011b916000199060031b1c1916176003555b8051906001600160401b038211620004665760045490600182811c9216801562000679575b6020831014620004455781601f84931162000607575b50602090601f831160011462000578576000926200056c575b50508160011b916000199060031b1c1916176004555b600580546001600160a81b03191660ff90921691909117600885811b610100600160a81b0316919091178255600680546001600160a01b03191633179055835191939091906001600160401b038211620004665760075490600182811c9216801562000561575b6020831014620004455781601f84931162000502575b50602090601f831160011462000488576000926200047c575b50508160011b916000199060031b1c1916176007555b85516001600160401b03811162000466578154600181811c911680156200045b575b60208210146200044557601f8111620003fa575b506020601f82116001146200038a57819060ff9697986000926200037e575b50508160011b916000199060031b1c19161790555b600a555416604d81116200036857600a0a91828102928184041490151715620003685760028290556001600160a01b031660008181526020818152604080832085905551938452919290917fddf252ad1be2c89b69c2b068fc378daa952ba7f163c4a11628f55a4df523b3ef91a360405161147190816200084c8239f35b634e487b7160e01b600052601160045260246000fd5b015190503880620002d5565b601f198216978360005260206000209860005b818110620003e157509160ff97989991846001959410620003c7575b505050811b019055620002ea565b015160001960f88460031b161c19169055388080620003b9565b838301518b556001909a0199602093840193016200039d565b826000526020600020601f8301861c810191602084106200043a575b601f01861c01905b8181106200042d5750620002b6565b600081556001016200041e565b909150819062000416565b634e487b7160e01b600052602260045260246000fd5b90607f1690620002a2565b634e487b7160e01b600052604160045260246000fd5b0151905038806200026a565b6007600090815260008051602062001cbd8339815191529350601f198516905b818110620004e95750908460019594939210620004cf575b505050811b0160075562000280565b015160001960f88460031b161c19169055388080620004c0565b92936020600181928786015181550195019301620004a8565b600760005290915060008051602062001cbd833981519152601f8401871c81016020851062000559575b90849392915b601f8301891c820181106200054957505062000251565b6000815585945060010162000532565b50806200052c565b91607f16916200023b565b015190503880620001be565b6004600090815293507f8a35acfbc15ff81a39ae7d344fd709f28e8600b4aa8c65c6b64bfe7fe36bd19b91905b601f1984168510620005eb576001945083601f19811610620005d1575b505050811b01600455620001d4565b015160001960f88460031b161c19169055388080620005c2565b81810151835560209485019460019093019290910190620005a5565b60046000529091507f8a35acfbc15ff81a39ae7d344fd709f28e8600b4aa8c65c6b64bfe7fe36bd19b601f840160051c81016020851062000671575b90849392915b601f830160051c8201811062000661575050620001a5565b6000815585945060010162000649565b508062000643565b91607f16916200018f565b01519050388062000154565b6003600090815293507fc2575a0e9e593c00f959f8c92f12db2869c3395a3b0502d05e2516446f71f85b91905b601f198416851062000703576001945083601f19811610620006e9575b505050811b016003556200016a565b015160001960f88460031b161c19169055388080620006da565b81810151835560209485019460019093019290910190620006bd565b60036000529091507fc2575a0e9e593c00f959f8c92f12db2869c3395a3b0502d05e2516446f71f85b601f840160051c81016020851062000789575b90849392915b601f830160051c82018110620007795750506200013b565b6000815585945060010162000761565b50806200075b565b91607f169162000125565b60405163e6c4247b60e01b8152600490fd5b600080fd5b6040519190601f01601f191682016001600160401b038111838210176200046657604052565b919080601f84011215620007ae5782516001600160401b03811162000466576020906200080f601f8201601f19168301620007b3565b92818452828287010111620007ae5760005b8181106200083757508260009394955001015290565b85810183015184820184015282016200082156fe6040608081526004908136101561001557600080fd5b600091823560e01c806305c738d4146105fd57806306fdde0314610db1578063095ea7b314610d7557806318160ddd14610d565780631bd7342c146109ee57806323b872dd14610949578063313ce5671461092757806336c43ee0146108c05780633f4ba83a146108635780633fe3347a1461084557806340c10f191461077857806342966c68146106b457806351cc7b6b146106965780635c975abb1461066f5780635e3109e71461060257806370a08231146105fd578063776cdb7c146105df57806379cc6790146104d15780638456cb59146104615780638da5cb5b1461043457806395d89b41146103ff578063a71891c3146103e0578063a9059cbb1461035d578063abb1dc44146102db578063bbb82d89146102b7578063c45a01551461028e578063d5395d2b14610253578063dd62ed3e146102065763f2fde38b1461016057600080fd5b3461020257602036600319011261020257610179610dcf565b6005549060018060a01b0392838360081c16938433036101f35782169485156101e6575050610100600160a81b031990911660089190911b610100600160a81b0316176005557f8be0079c531659141344cd1fd0a4f28419497f9722a3daafe3b4186f6b6457e08380a380f35b5163e6c4247b60e01b8152fd5b5084516330cd747160e01b8152fd5b8280fd5b50503461024f578060031936011261024f5780602092610224610dcf565b61022c610dea565b6001600160a01b0391821683526001865283832091168252845220549051908152f35b5080fd5b50503461024f578060031936011261024f576020916001600160a01b03610278610dcf565b1681528083528160243591205410159051908152f35b50503461024f578160031936011261024f5760065490516001600160a01b039091168152602090f35b50503461024f578160031936011261024f5760209060ff600b541690519015158152f35b50503461024f578160031936011261024f57906103229160ff60055460065490610303610eac565b9461033061030f611135565b865198899860c08a5260c08a01906111ce565b9088820360208a01526111ce565b9484831690870152606086015260018060a01b039060081c16608085015260a01c16151560a08301520390f35b5091346103dd57816003193601126103dd5750610378610dcf565b6024359260ff60065460a01c166103cf5783156103c1576001600160a01b038216156103b357506020926103ac9133611295565b5160018152f35b825163e6c4247b60e01b8152fd5b825163162908e360e11b8152fd5b825163f61d011160e01b8152fd5b80fd5b50503461024f578160031936011261024f57602090600a549051908152f35b50503461024f578160031936011261024f576104309061041d611135565b90519182916020835260208301906111ce565b0390f35b50503461024f578160031936011261024f57600554905160089190911c6001600160a01b03168152602090f35b50903461020257826003193601126102025760055460081c6001600160a01b031633036104c4576006805460ff60a01b1916600160a01b17905582337ff017c0de579727a3cd3ee18077ee8b4c43bf21892985952d1d5a0d52f983502d8280a280f35b516330cd747160e01b8152fd5b50346102025781600319360112610202576104ea610dcf565b916024359182156105d1576001600160a01b0384169384156105c25761051184338361138c565b84865285602052828620549184831061058e57505091602091610555827ffd38818f5291bf0bb3a2a48aadc06ba8757865d1dabd804585338aab3009dcb695611288565b8587528684528187205561056b82600254611288565b600255858560008051602061141c833981519152858451868152a351908152a280f35b835163db42144d60e01b81526001600160a01b03909216908201908152602081018590526040810183905281906060010390fd5b50905163e6c4247b60e01b8152fd5b905163162908e360e11b8152fd5b50503461024f578160031936011261024f576104309061041d61109c565b610e00565b50503461024f578160031936011261024f5761032290610430600a549160ff600b54169261062e610f6a565b9361063761109c565b91610657610643611003565b93855198899860a08a5260a08a01906111ce565b938601521515606085015283820360808501526111ce565b50503461024f578160031936011261024f5760209060ff60065460a01c1690519015158152f35b50503461024f578160031936011261024f576104309061041d611003565b5090346102025760203660031901126102025781359182156105d15733845283602052818420549083821061074f5750826106ee91611288565b338452836020528184205561070582600254611288565b60025582815183815260008051602061141c83398151915260203392a3519081527ffd38818f5291bf0bb3a2a48aadc06ba8757865d1dabd804585338aab3009dcb660203392a280f35b915163db42144d60e01b8152339281019283526020830193909352604082015281906060010390fd5b509034610202578060031936011261020257610792610dcf565b60055460243592916001600160a01b039160081c8216330361083557169283156108275782156105d15750816020916107ee7f3f2c9d57c068687834f0de942a9babb9e5acab57d516d3480a3c16ee165a427394600254611265565b600255848652858352808620610805838254611265565b9055848660008051602061141c833981519152858451868152a351908152a280f35b905163e6c4247b60e01b8152fd5b82516330cd747160e01b81528590fd5b50503461024f578160031936011261024f576104309061041d610f6a565b50903461020257826003193601126102025760055460081c6001600160a01b031633036104c4576006805460ff60a01b1916905582337ff38578ed892ce2ce655ca8ae03c73464ad74915a1331a9b4085e637534daeedf8280a280f35b5090346102025782600319360112610202576006546001600160a01b0316330361091a5782600160ff19600b541617600b55337f0be95955bd2d9141bff4014af611adc8cc414a3c5308dfbff6ad1fcda6e808078280a280f35b51631966391b60e11b8152fd5b50503461024f578160031936011261024f5760209060ff600554169051908152f35b5091346103dd5760603660031901126103dd5750610965610dcf565b61096d610dea565b906044359360ff60065460a01c166109e05784156109d2576001600160a01b03838116156109c3578216156109b55750926103ac916020946109b083338361138c565b611295565b835163e6c4247b60e01b8152fd5b50835163e6c4247b60e01b8152fd5b835163162908e360e11b8152fd5b835163f61d011160e01b8152fd5b5082903461024f57606036600319011261024f5767ffffffffffffffff928135848111610d5257610a22903690840161120e565b9160243590604435868111610d4e57610a3e903690830161120e565b60055460081c6001600160a01b03163303610d3f57845191878311610c3e57610a68600754610e3a565b92601f93848111610cdf575b50806020858211600114610c5c578991610c51575b508160011b916000199060031b1c1916176007555b83600a558151978811610c3e5750610ab7600954610e3a565b828111610bde575b506020918711600114610b395795809186977fbc6f5cf2ece628f201d4619ae75ccbdaaba2626f33d15ed417e92c36c83ee53f9792610b2e575b50508160011b916000199060031b1c1916176009555b610b2282519383859485528401906111ce565b9060208301520390a180f35b015190508780610af9565b600986527f6e1540171b6c0c960b71a7020d9f60077f6af931a8bbf590da0223dacf75c7af9190601f198816875b818110610bc657509160019391897fbc6f5cf2ece628f201d4619ae75ccbdaaba2626f33d15ed417e92c36c83ee53f999a9410610bad575b505050811b01600955610b0f565b015160001960f88460031b161c19169055878080610b9f565b92936020600181928786015181550195019301610b67565b600987527f6e1540171b6c0c960b71a7020d9f60077f6af931a8bbf590da0223dacf75c7af83808a0160051c82019260208b10610c35575b0160051c01905b818110610c2a5750610abf565b878155600101610c1d565b92508192610c16565b634e487b7160e01b875260419052602486fd5b90508701518a610a89565b60078a527fa66cc928b5edb82af9bd49922954155ab7b0942694bea4ce44661d9a8736c6889150601f1983168a5b8a828210610cc75750509083600194939210610cae575b5050811b01600755610a9e565b89015160001960f88460031b161c191690558a80610ca1565b60018495602093958493015181550194019201610c8a565b600789527fa66cc928b5edb82af9bd49922954155ab7b0942694bea4ce44661d9a8736c6888580840160051c82019260208510610d36575b0160051c01905b818110610d2b5750610a74565b898155600101610d1e565b92508192610d17565b5082516330cd747160e01b8152fd5b8580fd5b8380fd5b50503461024f578160031936011261024f576020906002549051908152f35b5091346103dd57816003193601126103dd5750610d90610dcf565b916001600160a01b0383161561082757506103ac6020926024359033611335565b50503461024f578160031936011261024f576104309061041d610eac565b600435906001600160a01b0382168203610de557565b600080fd5b602435906001600160a01b0382168203610de557565b34610de5576020366003190112610de5576001600160a01b03610e21610dcf565b1660005260006020526020604060002054604051908152f35b90600182811c92168015610e6a575b6020831014610e5457565b634e487b7160e01b600052602260045260246000fd5b91607f1691610e49565b90601f8019910116810190811067ffffffffffffffff821117610e9657604052565b634e487b7160e01b600052604160045260246000fd5b6040519060008260035491610ec083610e3a565b80835292600190818116908115610f485750600114610ee9575b50610ee792500383610e74565b565b6003600090815291507fc2575a0e9e593c00f959f8c92f12db2869c3395a3b0502d05e2516446f71f85b5b848310610f2d5750610ee7935050810160200138610eda565b81935090816020925483858a01015201910190918592610f14565b905060209250610ee794915060ff191682840152151560051b82010138610eda565b6040519060008260075491610f7e83610e3a565b80835292600190818116908115610f485750600114610fa45750610ee792500383610e74565b6007600090815291507fa66cc928b5edb82af9bd49922954155ab7b0942694bea4ce44661d9a8736c6885b848310610fe85750610ee7935050810160200138610eda565b81935090816020925483858a01015201910190918592610fcf565b604051906000826009549161101783610e3a565b80835292600190818116908115610f48575060011461103d5750610ee792500383610e74565b6009600090815291507f6e1540171b6c0c960b71a7020d9f60077f6af931a8bbf590da0223dacf75c7af5b8483106110815750610ee7935050810160200138610eda565b81935090816020925483858a01015201910190918592611068565b60405190600082600854916110b083610e3a565b80835292600190818116908115610f4857506001146110d65750610ee792500383610e74565b6008600090815291507ff3f7a9fe364faab93b216da50a3214154f22a0a2b415b23a84c8169e8b636ee35b84831061111a5750610ee7935050810160200138610eda565b81935090816020925483858a01015201910190918592611101565b604051906000826004549161114983610e3a565b80835292600190818116908115610f48575060011461116f5750610ee792500383610e74565b6004600090815291507f8a35acfbc15ff81a39ae7d344fd709f28e8600b4aa8c65c6b64bfe7fe36bd19b5b8483106111b35750610ee7935050810160200138610eda565b81935090816020925483858a0101520191019091859261119a565b919082519283825260005b8481106111fa575050826000602080949584010152601f8019910116010190565b6020818301810151848301820152016111d9565b81601f82011215610de55780359067ffffffffffffffff8211610e965760405192611243601f8401601f191660200185610e74565b82845260208383010111610de557816000926020809301838601378301015290565b9190820180921161127257565b634e487b7160e01b600052601160045260246000fd5b9190820391821161127257565b6001600160a01b03808216600081815260208190526040812054909591949193848210611303575060209284926112dd60008051602061141c83398151915296604094611288565b878952888652838920551695868152206112f8828254611265565b9055604051908152a3565b60405163db42144d60e01b81526001600160a01b03919091166004820152602481018590526044810191909152606490fd5b909160207f8c5be1e5ebec7d5bd14f71427d1e84f3dd0314c0f7b2291e5b200ac8c7c3b9259160018060a01b03809416938460005260018352604060002095169485600052825280604060002055604051908152a3565b9160018060a01b03808416806000526001602052604060002091841691826000526020526040600020549160001983036113c9575b505050505050565b8383106113f25750506113e79392916113e191611288565b91611335565b3880808080806113c1565b91836084936040519363246fb68960e21b85526004850152602484015260448301526064820152fdfeddf252ad1be2c89b69c2b068fc378daa952ba7f163c4a11628f55a4df523b3efa2646970667358221220548d2e604a6212a6a103880f9d6315773aef22b9642b9f57d86ad1fede4161c064736f6c63430008140033a66cc928b5edb82af9bd49922954155ab7b0942694bea4ce44661d9a8736c688a26469706673582212203e52b7c82e519ee996c5204600e4ba4a05a0c7759057e45e9853d12636f7425964736f6c63430008140033",
  "linkReferences": {},
  "deployedLinkReferences": {}
}