{
  "_format": "hh-sol-artifact-1",
  "contractName": "RWAFactory",
  "sourceName": "src/contracts/RWAFactory.sol",
  "abi": [
    {
      "inputs": [
        {
          "internalType": "uint256",
          "name": "_deploymentFee",
          "type": "uint256"
        }
      ],
      "stateMutability": "nonpayable",
      "type": "constructor"
    },
    {
      "anonymous": false,
      "inputs": [
        {
          "indexed": true,
          "internalType": "address",
          "name": "pauser",
          "type": "address"
        }
      ],
      "name": "FactoryPaused",
      "type": "event"
    },
    {
      "anonymous": false,
      "inputs": [
        {
          "indexed": true,
          "internalType": "address",
          "name": "unpauser",
          "type": "address"
        }
      ],
      "name": "FactoryUnpaused",
      "type": "event"
    },
    {
      "anonymous": false,
      "inputs": [
        {
          "indexed": false,
          "internalType": "uint256",
          "name": "oldFee",
          "type": "uint256"
        },
        {
          "indexed": false,
          "internalType": "uint256",
          "name": "newFee",
          "type": "uint256"
        }
      ],
      "name": "FeeUpdated",
      "type": "event"
    },
    {
      "anonymous": false,
      "inputs": [
        {
          "indexed": true,
          "internalType": "address",
          "name": "tokenAddress",
          "type": "address"
        },
        {
          "indexed": true,
          "internalType": "address",
          "name": "deployer",
          "type": "address"
        },
        {
          "indexed": false,
          "internalType": "string",
          "name": "name",
          "type": "string"
        },
        {
          "indexed": false,
          "internalType": "string",
          "name": "symbol",
          "type": "string"
        },
        {
          "indexed": false,
          "internalType": "string",
          "name": "category",
          "type": "string"
        }
      ],
      "name": "TokenDeployed",
      "type": "event"
    },
    {
      "anonymous": false,
      "inputs": [
        {
          "indexed": true,
          "internalType": "address",
          "name": "tokenAddress",
          "type": "address"
        },
        {
          "indexed": true,
          "internalType": "address",
          "name": "verifier",
          "type": "address"
        }
      ],
      "name": "TokenVerified",
      "type": "event"
    },
    {
      "inputs": [
        {
          "internalType": "string",
          "name": "_name",
          "type": "string"
        },
        {
          "internalType": "string",
          "name": "_symbol",
          "type": "string"
        },
        {
          "internalType": "uint8",
          "name": "_decimals",
          "type": "uint8"
        },
        {
          "internalType": "uint256",
          "name": "_initialSupply",
          "type": "uint256"
        },
        {
          "internalType": "string",
          "name": "_assetType",
          "type": "string"
        },
        {
          "internalType": "string",
          "name": "_assetLocation",
          "type": "string"
        },
        {
          "internalType": "uint256",
          "name": "_assetValue",
          "type": "uint256"
        },
        {
          "internalType": "string",
          "name": "_category",
          "type": "string"
        }
      ],
      "name": "deployRWAToken",
      "outputs": [
        {
          "internalType": "address",
          "name": "",
          "type": "address"
        }
      ],
      "stateMutability": "payable",
      "type": "function"
    },
    {
      "inputs": [
        {
          "internalType": "uint256",
          "name": "",
          "type": "uint256"
        }
      ],
      "name": "deployedTokens",
      "outputs": [
        {
          "internalType": "address",
          "name": "",
          "type": "address"
        }
      ],
      "stateMutability": "view",
      "type": "function"
    },
    {
      "inputs": [
        {
          "internalType": "address",
          "name": "",
          "type": "address"
        },
        {
          "internalType": "uint256",
          "name": "",
          "type": "uint256"
        }
      ],
      "name": "deployerTokens",
      "outputs": [
        {
          "internalType": "address",
          "name": "",
          "type": "address"
        }
      ],
      "stateMutability": "view",
      "type": "function"
    },
    {
      "inputs": [],
      "name": "deploymentFee",
      "outputs": [
        {
          "internalType": "uint256",
          "name": "",
          "type": "uint256"
        }
      ],
      "stateMutability": "view",
      "type": "function"
    },
    {
      "inputs": [],
      "name": "emergencyWithdraw",
      "outputs": [],
      "stateMutability": "nonpayable",
      "type": "function"
    },
    {
      "inputs": [],
      "name": "feeCollector",
      "outputs": [
        {
          "internalType": "address",
          "name": "",
          "type": "address"
        }
      ],
      "stateMutability": "view",
      "type": "function"
    },
    {
      "inputs": [],
      "name": "getAllTokens",
      "outputs": [
        {
          "internalType": "address[]",
          "name": "",
          "type": "address[]"
        }
      ],
      "stateMutability": "view",
      "type": "function"
    },
    {
      "inputs": [
        {
          "internalType": "address",
          "name": "_tokenAddress",
          "type": "address"
        }
      ],
      "name": "getTokenInfo",
      "outputs": [
        {
          "components": [
            {
              "internalType": "address",
              "name": "deployer",
              "type": "address"
            },
            {
              "internalType": "string",
              "name": "name",
              "type": "string"
            },
            {
              "internalType": "string",
              "name": "symbol",
              "type": "string"
            },
            {
              "internalType": "uint256",
              "name": "deploymentTime",
              "type": "uint256"
            },
            {
              "internalType": "bool",
              "name": "verified",
              "type": "bool"
            },
            {
              "internalType": "string",
              "name": "category",
              "type": "string"
            }
          ],
          "internalType": "struct RWAFactory.TokenInfo",
          "name": "",
          "type": "tuple"
        }
      ],
      "stateMutability": "view",
      "type": "function"
    },
    {
      "inputs": [
        {
          "internalType": "string",
          "name": "_category",
          "type": "string"
        }
      ],
      "name": "getTokensByCategory",
      "outputs": [
        {
          "internalType": "address[]",
          "name": "",
          "type": "address[]"
        }
      ],
      "stateMutability": "view",
      "type": "function"
    },
    {
      "inputs": [
        {
          "internalType": "address",
          "name": "_deployer",
          "type": "address"
        }
      ],
      "name": "getTokensByDeployer",
      "outputs": [
        {
          "internalType": "address[]",
          "name": "",
          "type": "address[]"
        }
      ],
      "stateMutability": "view",
      "type": "function"
    },
    {
      "inputs": [],
      "name": "getTotalTokens",
      "outputs": [
        {
          "internalType": "uint256",
          "name": "",
          "type": "uint256"
        }
      ],
      "stateMutability": "view",
      "type": "function"
    },
    {
      "inputs": [],
      "name": "getVerifiedTokens",
      "outputs": [
        {
          "internalType": "address[]",
          "name": "",
          "type": "address[]"
        }
      ],
      "stateMutability": "view",
      "type": "function"
    },
    {
      "inputs": [
        {
          "internalType": "address",
          "name": "_tokenAddress",
          "type": "address"
        }
      ],
      "name": "isTokenDeployed",
      "outputs": [
        {
          "internalType": "bool",
          "name": "",
          "type": "bool"
        }
      ],
      "stateMutability": "view",
      "type": "function"
    },
    {
      "inputs": [],
      "name": "owner",
      "outputs": [
        {
          "internalType": "address",
          "name": "",
          "type": "address"
        }
      ],
      "stateMutability": "view",
      "type": "function"
    },
    {
      "inputs": [],
      "name": "pause",
      "outputs": [],
      "stateMutability": "nonpayable",
      "type": "function"
    },
    {
      "inputs": [],
      "name": "paused",
      "outputs": [
        {
          "internalType": "bool",
          "name": "",
          "type": "bool"
        }
      ],
      "stateMutability": "view",
      "type": "function"
    },
    {
      "inputs": [
        {
          "internalType": "address",
          "name": "",
          "type": "address"
        }
      ],
      "name": "tokenInfo",
      "outputs": [
        {
          "internalType": "address",
          "name": "deployer",
          "type": "address"
        },
        {
          "internalType": "string",
          "name": "name",
          "type": "string"
        },
        {
          "internalType": "string",
          "name": "symbol",
          "type": "string"
        },
        {
          "internalType": "uint256",
          "name": "deploymentTime",
          "type": "uint256"
        },
        {
          "internalType": "bool",
          "name": "verified",
          "type": "bool"
        },
        {
          "internalType": "string",
          "name": "category",
          "type": "string"
        }
      ],
      "stateMutability": "view",
      "type": "function"
    },
    {
      "inputs": [
        {
          "internalType": "address",
          "name": "_newOwner",
          "type": "address"
        }
      ],
      "name": "transferOwnership",
      "outputs": [],
      "stateMutability": "nonpayable",
      "type": "function"
    },
    {
      "inputs": [],
      "name": "unpause",
      "outputs": [],
      "stateMutability": "nonpayable",
      "type": "function"
    },
    {
      "inputs": [
        {
          "internalType": "uint256",
          "name": "_newFee",
          "type": "uint256"
        }
      ],
      "name": "updateDeploymentFee",
      "outputs": [],
      "stateMutability": "nonpayable",
      "type": "function"
    },
    {
      "inputs": [
        {
          "internalType": "address",
          "name": "_newFeeCollector",
          "type": "address"
        }
      ],
      "name": "updateFeeCollector",
      "outputs": [],
      "stateMutability": "nonpayable",
      "type": "function"
    },
    {
      "inputs": [
        {
          "internalType": "address",
          "name": "_tokenAddress",
          "type": "address"
        }
      ],
      "name": "verifyToken",
      "outputs": [],
      "stateMutability": "nonpayable",
      "type": "function"
    }
  ],
  "bytecode": "0x608060405234801561001057600080fd5b506040516139f73803806139f783398101604081905261002f91610059565b60008054336001600160a01b03199182168117909255600180549091169091179055600255610072565b60006020828403121561006b57600080fd5b5051919050565b613976806100816000396000f3fe6080604052600436106200014f5760003560e01c8063ae400c1911620000b9578063ec81aadb1162000078578063ec81aadb14620003b3578063ecc4873514620003d8578063f08b82e614620003fd578063f2cff57f146200041e578063f2fde38b1462000436578063f5dab711146200045b57600080fd5b8063ae400c191462000318578063c415b95c146200032f578063d2c35ce81462000351578063d38610821462000376578063db2e21bc146200039b57600080fd5b80635c975abb11620001125780635c975abb146200021c5780635ef2c2bf14620002495780638456cb5914620002615780638da5cb5b14620002795780639b81a8ba14620002b4578063a6c74fd414620002d957600080fd5b80631f69565f14620001545780632a5c792a14620001915780633f4ba83a14620001b85780634130276b14620001d2578063499200db14620001f7575b600080fd5b3480156200016157600080fd5b5062000179620001733660046200170b565b62000494565b60405162000188919062001778565b60405180910390f35b3480156200019e57600080fd5b50620001a9620006fe565b60405162000188919062001807565b348015620001c557600080fd5b50620001d062000762565b005b348015620001df57600080fd5b50620001d0620001f13660046200170b565b620007cf565b3480156200020457600080fd5b50620001d06200021636600462001856565b62000989565b3480156200022957600080fd5b50600354620002389060ff1681565b604051901515815260200162000188565b3480156200025657600080fd5b50620001a9620009fb565b3480156200026e57600080fd5b50620001d062000bb1565b3480156200028657600080fd5b506000546200029b906001600160a01b031681565b6040516001600160a01b03909116815260200162000188565b348015620002c157600080fd5b506200029b620002d336600462001870565b62000c18565b348015620002e657600080fd5b5062000238620002f83660046200170b565b6001600160a01b0390811660009081526004602052604090205416151590565b6200029b620003293660046200195a565b62000c51565b3480156200033c57600080fd5b506001546200029b906001600160a01b031681565b3480156200035e57600080fd5b50620001d0620003703660046200170b565b62001092565b3480156200038357600080fd5b50620001a96200039536600462001a62565b62001143565b348015620003a857600080fd5b50620001d062001334565b348015620003c057600080fd5b506200029b620003d236600462001856565b6200139f565b348015620003e557600080fd5b50620001a9620003f73660046200170b565b620013ca565b3480156200040a57600080fd5b506005545b60405190815260200162000188565b3480156200042b57600080fd5b506200040f60025481565b3480156200044357600080fd5b50620001d0620004553660046200170b565b62001442565b3480156200046857600080fd5b50620004806200047a3660046200170b565b620014e9565b604051620001889695949392919062001aa3565b620004d96040518060c0016040528060006001600160a01b03168152602001606081526020016060815260200160008152602001600015158152602001606081525090565b6001600160a01b03808316600090815260046020908152604091829020825160c0810190935280549093168252600183018054929392918401916200051e9062001b0e565b80601f01602080910402602001604051908101604052809291908181526020018280546200054c9062001b0e565b80156200059d5780601f1062000571576101008083540402835291602001916200059d565b820191906000526020600020905b8154815290600101906020018083116200057f57829003601f168201915b50505050508152602001600282018054620005b89062001b0e565b80601f0160208091040260200160405190810160405280929190818152602001828054620005e69062001b0e565b8015620006375780601f106200060b5761010080835404028352916020019162000637565b820191906000526020600020905b8154815290600101906020018083116200061957829003601f168201915b505050918352505060038201546020820152600482015460ff16151560408201526005820180546060909201916200066f9062001b0e565b80601f01602080910402602001604051908101604052809291908181526020018280546200069d9062001b0e565b8015620006ee5780601f10620006c257610100808354040283529160200191620006ee565b820191906000526020600020905b815481529060010190602001808311620006d057829003601f168201915b5050505050815250509050919050565b606060058054806020026020016040519081016040528092919081815260200182805480156200075857602002820191906000526020600020905b81546001600160a01b0316815260019091019060200180831162000739575b5050505050905090565b6000546001600160a01b03163314620007985760405162461bcd60e51b81526004016200078f9062001b4a565b60405180910390fd5b6003805460ff1916905560405133907f5dd33ddbee1b2bb2cfe2e04a15fcc4e2071c141d15e24d1fe1b5d6b80f355c0c90600090a2565b6000546001600160a01b03163314620007fc5760405162461bcd60e51b81526004016200078f9062001b4a565b6001600160a01b0381811660009081526004602052604090205416620008655760405162461bcd60e51b815260206004820152601b60248201527f525741466163746f72793a20746f6b656e206e6f7420666f756e64000000000060448201526064016200078f565b6001600160a01b0381166000908152600460208190526040909120015460ff1615620008df5760405162461bcd60e51b815260206004820152602260248201527f525741466163746f72793a20746f6b656e20616c726561647920766572696669604482015261195960f21b60648201526084016200078f565b6001600160a01b03811660008181526004602081905260408083208201805460ff1916600117905580516301b621f760e51b815290516336c43ee09382840193909282900301818387803b1580156200093757600080fd5b505af11580156200094c573d6000803e3d6000fd5b50506040513392506001600160a01b03841691507f6956363f94cead922fc2205779903a46ce7592b28144c6117204074a6ac77bb990600090a350565b6000546001600160a01b03163314620009b65760405162461bcd60e51b81526004016200078f9062001b4a565b600280549082905560408051828152602081018490527f528d9479e9f9889a87a3c30c7f7ba537e5e59c4c85a37733b16e57c62df61302910160405180910390a15050565b60606000805b60055481101562000a7c57600460006005838154811062000a265762000a2662001b8d565b60009182526020808320909101546001600160a01b0316835282019290925260400190206004015460ff161562000a67578162000a638162001bb9565b9250505b8062000a738162001bb9565b91505062000a01565b5060008167ffffffffffffffff81111562000a9b5762000a9b6200189d565b60405190808252806020026020018201604052801562000ac5578160200160208202803683370190505b5090506000805b60055481101562000ba857600460006005838154811062000af15762000af162001b8d565b60009182526020808320909101546001600160a01b0316835282019290925260400190206004015460ff161562000b93576005818154811062000b385762000b3862001b8d565b9060005260206000200160009054906101000a90046001600160a01b031683838151811062000b6b5762000b6b62001b8d565b6001600160a01b03909216602092830291909101909101528162000b8f8162001bb9565b9250505b8062000b9f8162001bb9565b91505062000acc565b50909392505050565b6000546001600160a01b0316331462000bde5760405162461bcd60e51b81526004016200078f9062001b4a565b6003805460ff1916600117905560405133907ff7ab4f18771ba1e5f8db30e61ceed7bc8096937655edc7b3cae25a61921f4a1e90600090a2565b6006602052816000526040600020818154811062000c3557600080fd5b6000918252602090912001546001600160a01b03169150829050565b60035460009060ff161562000ca95760405162461bcd60e51b815260206004820152601e60248201527f525741466163746f72793a20636f6e747261637420697320706175736564000060448201526064016200078f565b60025434101562000cfd5760405162461bcd60e51b815260206004820152601c60248201527f525741466163746f72793a20696e73756666696369656e74206665650000000060448201526064016200078f565b600089511162000d505760405162461bcd60e51b815260206004820181905260248201527f525741466163746f72793a206e616d652063616e6e6f7420626520656d70747960448201526064016200078f565b600088511162000dae5760405162461bcd60e51b815260206004820152602260248201527f525741466163746f72793a2073796d626f6c2063616e6e6f7420626520656d70604482015261747960f01b60648201526084016200078f565b6000861162000e1a5760405162461bcd60e51b815260206004820152603160248201527f525741466163746f72793a20696e697469616c20737570706c79206d75737420604482015270062652067726561746572207468616e203607c1b60648201526084016200078f565b600089898989338a8a8a60405162000e3290620016e0565b62000e4598979695949392919062001bd5565b604051809103906000f08015801562000e62573d6000803e3d6000fd5b506040805160c08101825233815260208082018e81528284018e905242606084015260006080840181905260a084018990526001600160a01b038681168252600490935293909320825181546001600160a01b031916921691909117815591519293508392909190600182019062000edb908262001cb5565b506040820151600282019062000ef2908262001cb5565b5060608201516003820155608082015160048201805460ff191691151591909117905560a0820151600582019062000f2b908262001cb5565b50506005805460018181019092557f036b6384b5eca791c62761152d0c79bb0604c104a5fb6f4eb0703f3154bb3db00180546001600160a01b0385166001600160a01b03199182168117909255336000908152600660209081526040822080549586018155825290209092018054909216179055506002541562000fe8576001546002546040516001600160a01b039092169181156108fc0291906000818181858888f1935050505015801562000fe6573d6000803e3d6000fd5b505b600254341115620010335760025433906108fc9062001008903462001d82565b6040518115909202916000818181858888f1935050505015801562001031573d6000803e3d6000fd5b505b336001600160a01b0316816001600160a01b03167f76bdb315c7056f419ed0a4f41d3ebffc7dbaff7317674064d23c1cfc8b8327828d8d886040516200107c9392919062001d9e565b60405180910390a39a9950505050505050505050565b6000546001600160a01b03163314620010bf5760405162461bcd60e51b81526004016200078f9062001b4a565b6001600160a01b038116620011215760405162461bcd60e51b815260206004820152602160248201527f525741466163746f72793a20696e76616c69642066656520636f6c6c6563746f6044820152603960f91b60648201526084016200078f565b600180546001600160a01b0319166001600160a01b0392909216919091179055565b60606000805b600554811015620011e1578380519060200120600460006005848154811062001176576200117662001b8d565b60009182526020808320909101546001600160a01b0316835282019290925260409081019091209051620011ae916005019062001de7565b604051809103902003620011cc5781620011c88162001bb9565b9250505b80620011d88162001bb9565b91505062001149565b5060008167ffffffffffffffff8111156200120057620012006200189d565b6040519080825280602002602001820160405280156200122a578160200160208202803683370190505b5090506000805b6005548110156200132a57858051906020012060046000600584815481106200125e576200125e62001b8d565b60009182526020808320909101546001600160a01b031683528201929092526040908101909120905162001296916005019062001de7565b604051809103902003620013155760058181548110620012ba57620012ba62001b8d565b9060005260206000200160009054906101000a90046001600160a01b0316838381518110620012ed57620012ed62001b8d565b6001600160a01b039092166020928302919091019091015281620013118162001bb9565b9250505b80620013218162001bb9565b91505062001231565b5090949350505050565b6000546001600160a01b03163314620013615760405162461bcd60e51b81526004016200078f9062001b4a565b600080546040516001600160a01b03909116914780156108fc02929091818181858888f193505050501580156200139c573d6000803e3d6000fd5b50565b60058181548110620013b057600080fd5b6000918252602090912001546001600160a01b0316905081565b6001600160a01b0381166000908152600660209081526040918290208054835181840281018401909452808452606093928301828280156200143657602002820191906000526020600020905b81546001600160a01b0316815260019091019060200180831162001417575b50505050509050919050565b6000546001600160a01b031633146200146f5760405162461bcd60e51b81526004016200078f9062001b4a565b6001600160a01b038116620014c75760405162461bcd60e51b815260206004820152601d60248201527f525741466163746f72793a20696e76616c6964206e6577206f776e657200000060448201526064016200078f565b600080546001600160a01b0319166001600160a01b0392909216919091179055565b600460205260009081526040902080546001820180546001600160a01b039092169291620015179062001b0e565b80601f0160208091040260200160405190810160405280929190818152602001828054620015459062001b0e565b8015620015965780601f106200156a5761010080835404028352916020019162001596565b820191906000526020600020905b8154815290600101906020018083116200157857829003601f168201915b505050505090806002018054620015ad9062001b0e565b80601f0160208091040260200160405190810160405280929190818152602001828054620015db9062001b0e565b80156200162c5780601f1062001600576101008083540402835291602001916200162c565b820191906000526020600020905b8154815290600101906020018083116200160e57829003601f168201915b50505050600383015460048401546005850180549495929460ff909216935090620016579062001b0e565b80601f0160208091040260200160405190810160405280929190818152602001828054620016859062001b0e565b8015620016d65780601f10620016aa57610100808354040283529160200191620016d6565b820191906000526020600020905b815481529060010190602001808311620016b857829003601f168201915b5050505050905086565b611adb8062001e6683390190565b80356001600160a01b03811681146200170657600080fd5b919050565b6000602082840312156200171e57600080fd5b6200172982620016ee565b9392505050565b6000815180845260005b8181101562001758576020818501810151868301820152016200173a565b506000602082860101526020601f19601f83011685010191505092915050565b602080825282516001600160a01b03168282015282015160c06040830152600090620017a860e084018262001730565b90506040840151601f1980858403016060860152620017c8838362001730565b9250606086015160808601526080860151151560a086015260a08601519150808584030160c086015250620017fe828262001730565b95945050505050565b6020808252825182820181905260009190848201906040850190845b818110156200184a5783516001600160a01b03168352928401929184019160010162001823565b50909695505050505050565b6000602082840312156200186957600080fd5b5035919050565b600080604083850312156200188457600080fd5b6200188f83620016ee565b946020939093013593505050565b634e487b7160e01b600052604160045260246000fd5b600082601f830112620018c557600080fd5b813567ffffffffffffffff80821115620018e357620018e36200189d565b604051601f8301601f19908116603f011681019082821181831017156200190e576200190e6200189d565b816040528381528660208588010111156200192857600080fd5b836020870160208301376000602085830101528094505050505092915050565b803560ff811681146200170657600080fd5b600080600080600080600080610100898b0312156200197857600080fd5b883567ffffffffffffffff808211156200199157600080fd5b6200199f8c838d01620018b3565b995060208b0135915080821115620019b657600080fd5b620019c48c838d01620018b3565b9850620019d460408c0162001948565b975060608b0135965060808b0135915080821115620019f257600080fd5b62001a008c838d01620018b3565b955060a08b013591508082111562001a1757600080fd5b62001a258c838d01620018b3565b945060c08b0135935060e08b013591508082111562001a4357600080fd5b5062001a528b828c01620018b3565b9150509295985092959890939650565b60006020828403121562001a7557600080fd5b813567ffffffffffffffff81111562001a8d57600080fd5b62001a9b84828501620018b3565b949350505050565b6001600160a01b038716815260c06020820181905260009062001ac99083018862001730565b828103604084015262001add818862001730565b9050856060840152841515608084015282810360a084015262001b01818562001730565b9998505050505050505050565b600181811c9082168062001b2357607f821691505b60208210810362001b4457634e487b7160e01b600052602260045260246000fd5b50919050565b60208082526023908201527f525741466163746f72793a2063616c6c6572206973206e6f7420746865206f776040820152623732b960e91b606082015260800190565b634e487b7160e01b600052603260045260246000fd5b634e487b7160e01b600052601160045260246000fd5b60006001820162001bce5762001bce62001ba3565b5060010190565b600061010080835262001beb8184018c62001730565b9050828103602084015262001c01818b62001730565b60ff8a166040850152606084018990526001600160a01b038816608085015283810360a0850152905062001c36818762001730565b905082810360c084015262001c4c818662001730565b9150508260e08301529998505050505050505050565b601f82111562001cb057600081815260208120601f850160051c8101602086101562001c8b5750805b601f850160051c820191505b8181101562001cac5782815560010162001c97565b5050505b505050565b815167ffffffffffffffff81111562001cd25762001cd26200189d565b62001cea8162001ce3845462001b0e565b8462001c62565b602080601f83116001811462001d22576000841562001d095750858301515b600019600386901b1c1916600185901b17855562001cac565b600085815260208120601f198616915b8281101562001d535788860151825594840194600190910190840162001d32565b508582101562001d725787850151600019600388901b60f8161c191681555b5050505050600190811b01905550565b8181038181111562001d985762001d9862001ba3565b92915050565b60608152600062001db3606083018662001730565b828103602084015262001dc7818662001730565b9050828103604084015262001ddd818562001730565b9695505050505050565b600080835462001df78162001b0e565b6001828116801562001e12576001811462001e285762001e59565b60ff198416875282151583028701945062001e59565b8760005260208060002060005b8581101562001e505781548a82015290840190820162001e35565b50505082870194505b5092969550505050505056fe60806040523480156200001157600080fd5b5060405162001adb38038062001adb833981016040819052620000349162000223565b6003620000428982620003a4565b506004620000518882620003a4565b50600580546001600160a01b038616610100026001600160a81b031990911660ff891617179055600680546001600160a01b031916331790556007620000988482620003a4565b506008620000a78382620003a4565b50600a818155600554620000c19160ff9091169062000585565b620000cd90866200059d565b60028190556001600160a01b03851660008181526020818152604080832085905551938452919290917fddf252ad1be2c89b69c2b068fc378daa952ba7f163c4a11628f55a4df523b3ef910160405180910390a35050505050505050620005b7565b634e487b7160e01b600052604160045260246000fd5b600082601f8301126200015757600080fd5b81516001600160401b03808211156200017457620001746200012f565b604051601f8301601f19908116603f011681019082821181831017156200019f576200019f6200012f565b81604052838152602092508683858801011115620001bc57600080fd5b600091505b83821015620001e05785820183015181830184015290820190620001c1565b600093810190920192909252949350505050565b805160ff811681146200020657600080fd5b919050565b80516001600160a01b03811681146200020657600080fd5b600080600080600080600080610100898b0312156200024157600080fd5b88516001600160401b03808211156200025957600080fd5b620002678c838d0162000145565b995060208b01519150808211156200027e57600080fd5b6200028c8c838d0162000145565b98506200029c60408c01620001f4565b975060608b01519650620002b360808c016200020b565b955060a08b0151915080821115620002ca57600080fd5b620002d88c838d0162000145565b945060c08b0151915080821115620002ef57600080fd5b50620002fe8b828c0162000145565b92505060e089015190509295985092959890939650565b600181811c908216806200032a57607f821691505b6020821081036200034b57634e487b7160e01b600052602260045260246000fd5b50919050565b601f8211156200039f57600081815260208120601f850160051c810160208610156200037a5750805b601f850160051c820191505b818110156200039b5782815560010162000386565b5050505b505050565b81516001600160401b03811115620003c057620003c06200012f565b620003d881620003d1845462000315565b8462000351565b602080601f831160018114620004105760008415620003f75750858301515b600019600386901b1c1916600185901b1785556200039b565b600085815260208120601f198616915b82811015620004415788860151825594840194600190910190840162000420565b5085821015620004605787850151600019600388901b60f8161c191681555b5050505050600190811b01905550565b634e487b7160e01b600052601160045260246000fd5b600181815b80851115620004c7578160001904821115620004ab57620004ab62000470565b80851615620004b957918102915b93841c93908002906200048b565b509250929050565b600082620004e0575060016200057f565b81620004ef575060006200057f565b8160018114620005085760028114620005135762000533565b60019150506200057f565b60ff84111562000527576200052762000470565b50506001821b6200057f565b5060208310610133831016604e8410600b841016171562000558575081810a6200057f565b62000564838362000486565b80600019048211156200057b576200057b62000470565b0290505b92915050565b60006200059660ff841683620004cf565b9392505050565b80820281158282048414176200057f576200057f62000470565b61151480620005c76000396000f3fe608060405234801561001057600080fd5b506004361061018e5760003560e01c80635e3109e7116100de57806395d89b4111610097578063bbb82d8911610071578063bbb82d8914610340578063c45a01551461034d578063dd62ed3e14610360578063f2fde38b1461039957600080fd5b806395d89b411461031c578063a71891c314610324578063a9059cbb1461032d57600080fd5b80635e3109e71461028757806370a08231146102a0578063776cdb7c146102c957806379cc6790146102d15780638456cb59146102e45780638da5cb5b146102ec57600080fd5b806336c43ee01161014b57806340c10f191161012557806340c10f191461024557806342966c681461025857806351cc7b6b1461026b5780635c975abb1461027357600080fd5b806336c43ee01461022d5780633f4ba83a146102355780633fe3347a1461023d57600080fd5b806306fdde0314610193578063095ea7b3146101b157806318160ddd146101d45780631bd7342c146101e657806323b872dd146101fb578063313ce5671461020e575b600080fd5b61019b6103ac565b6040516101a89190610fe7565b60405180910390f35b6101c46101bf36600461101d565b61043a565b60405190151581526020016101a8565b6002545b6040519081526020016101a8565b6101f96101f43660046110ea565b610454565b005b6101c4610209366004611157565b6104e9565b60055461021b9060ff1681565b60405160ff90911681526020016101a8565b6101f9610538565b6101f96105d8565b61019b610641565b6101f961025336600461101d565b61064e565b6101f9610266366004611193565b610756565b61019b6107f7565b6006546101c490600160a01b900460ff1681565b61028f610804565b6040516101a89594939291906111ac565b6101d86102ae3660046111ff565b6001600160a01b031660009081526020819052604090205490565b61019b6109da565b6101f96102df36600461101d565b6109e7565b6101f9610a9c565b6005546103049061010090046001600160a01b031681565b6040516001600160a01b0390911681526020016101a8565b61019b610b0b565b6101d8600a5481565b6101c461033b36600461101d565b610b18565b600b546101c49060ff1681565b600654610304906001600160a01b031681565b6101d861036e36600461121a565b6001600160a01b03918216600090815260016020908152604080832093909416825291909152205490565b6101f96103a73660046111ff565b610b51565b600380546103b99061124d565b80601f01602080910402602001604051908101604052809291908181526020018280546103e59061124d565b80156104325780601f1061040757610100808354040283529160200191610432565b820191906000526020600020905b81548152906001019060200180831161041557829003601f168201915b505050505081565b600033610448818585610c0e565b60019150505b92915050565b60055461010090046001600160a01b0316331461048c5760405162461bcd60e51b815260040161048390611287565b60405180910390fd5b60076104988482611317565b50600a82905560096104aa8282611317565b507fbc6f5cf2ece628f201d4619ae75ccbdaaba2626f33d15ed417e92c36c83ee53f83836040516104dc9291906113d7565b60405180910390a1505050565b600654600090600160a01b900460ff16156105165760405162461bcd60e51b8152600401610483906113f9565b33610522858285610d39565b61052d858585610dd2565b506001949350505050565b6006546001600160a01b0316331461059e5760405162461bcd60e51b815260206004820152602360248201527f525741546f6b656e3a2063616c6c6572206973206e6f742074686520666163746044820152626f727960e81b6064820152608401610483565b600b805460ff1916600117905560405133907f0be95955bd2d9141bff4014af611adc8cc414a3c5308dfbff6ad1fcda6e8080790600090a2565b60055461010090046001600160a01b031633146106075760405162461bcd60e51b815260040161048390611287565b6006805460ff60a01b1916905560405133907ff38578ed892ce2ce655ca8ae03c73464ad74915a1331a9b4085e637534daeedf90600090a2565b600780546103b99061124d565b60055461010090046001600160a01b0316331461067d5760405162461bcd60e51b815260040161048390611287565b6001600160a01b0382166106de5760405162461bcd60e51b815260206004820152602260248201527f525741546f6b656e3a206d696e7420746f20746865207a65726f206164647265604482015261737360f01b6064820152608401610483565b80600260008282546106f09190611453565b90915550506001600160a01b0382166000908152602081905260408120805483929061071d908490611453565b90915550506040518181526001600160a01b038316906000906000805160206114bf833981519152906020015b60405180910390a35050565b336000818152602081905260409020548211156107855760405162461bcd60e51b815260040161048390611466565b6001600160a01b038116600090815260208190526040812080548492906107ad9084906114ab565b9250508190555081600260008282546107c691906114ab565b90915550506040518281526000906001600160a01b038316906000805160206114bf8339815191529060200161074a565b600980546103b99061124d565b606080600080606060076008600a54600b60009054906101000a900460ff1660098480546108319061124d565b80601f016020809104026020016040519081016040528092919081815260200182805461085d9061124d565b80156108aa5780601f1061087f576101008083540402835291602001916108aa565b820191906000526020600020905b81548152906001019060200180831161088d57829003601f168201915b505050505094508380546108bd9061124d565b80601f01602080910402602001604051908101604052809291908181526020018280546108e99061124d565b80156109365780601f1061090b57610100808354040283529160200191610936565b820191906000526020600020905b81548152906001019060200180831161091957829003601f168201915b505050505093508080546109499061124d565b80601f01602080910402602001604051908101604052809291908181526020018280546109759061124d565b80156109c25780601f10610997576101008083540402835291602001916109c2565b820191906000526020600020905b8154815290600101906020018083116109a557829003601f168201915b50505050509050945094509450945094509091929394565b600880546103b99061124d565b6109f2823383610d39565b6001600160a01b038216600090815260208190526040902054811115610a2a5760405162461bcd60e51b815260040161048390611466565b6001600160a01b03821660009081526020819052604081208054839290610a529084906114ab565b925050819055508060026000828254610a6b91906114ab565b90915550506040518181526000906001600160a01b038416906000805160206114bf8339815191529060200161074a565b60055461010090046001600160a01b03163314610acb5760405162461bcd60e51b815260040161048390611287565b6006805460ff60a01b1916600160a01b17905560405133907ff017c0de579727a3cd3ee18077ee8b4c43bf21892985952d1d5a0d52f983502d90600090a2565b600480546103b99061124d565b600654600090600160a01b900460ff1615610b455760405162461bcd60e51b8152600401610483906113f9565b33610448818585610dd2565b60055461010090046001600160a01b03163314610b805760405162461bcd60e51b815260040161048390611287565b6001600160a01b038116610be65760405162461bcd60e51b815260206004820152602760248201527f525741546f6b656e3a206e6577206f776e657220697320746865207a65726f206044820152666164647265737360c81b6064820152608401610483565b600580546001600160a01b0390921661010002610100600160a81b0319909216919091179055565b6001600160a01b038316610c745760405162461bcd60e51b815260206004820152602760248201527f525741546f6b656e3a20617070726f76652066726f6d20746865207a65726f206044820152666164647265737360c81b6064820152608401610483565b6001600160a01b038216610cd85760405162461bcd60e51b815260206004820152602560248201527f525741546f6b656e3a20617070726f766520746f20746865207a65726f206164604482015264647265737360d81b6064820152608401610483565b6001600160a01b0383811660008181526001602090815260408083209487168084529482529182902085905590518481527f8c5be1e5ebec7d5bd14f71427d1e84f3dd0314c0f7b2291e5b200ac8c7c3b925910160405180910390a3505050565b6001600160a01b038381166000908152600160209081526040808320938616835292905220546000198114610dcc5781811015610db85760405162461bcd60e51b815260206004820181905260248201527f525741546f6b656e3a20696e73756666696369656e7420616c6c6f77616e63656044820152606401610483565b610dcc8484610dc785856114ab565b610c0e565b50505050565b6001600160a01b038316610e395760405162461bcd60e51b815260206004820152602860248201527f525741546f6b656e3a207472616e736665722066726f6d20746865207a65726f604482015267206164647265737360c01b6064820152608401610483565b6001600160a01b038216610e9e5760405162461bcd60e51b815260206004820152602660248201527f525741546f6b656e3a207472616e7366657220746f20746865207a65726f206160448201526564647265737360d01b6064820152608401610483565b6001600160a01b03831660009081526020819052604090205481811015610f195760405162461bcd60e51b815260206004820152602960248201527f525741546f6b656e3a207472616e7366657220616d6f756e7420657863656564604482015268732062616c616e636560b81b6064820152608401610483565b610f2382826114ab565b6001600160a01b038086166000908152602081905260408082209390935590851681529081208054849290610f59908490611453565b92505081905550826001600160a01b0316846001600160a01b03166000805160206114bf83398151915284604051610f9391815260200190565b60405180910390a350505050565b6000815180845260005b81811015610fc757602081850181015186830182015201610fab565b506000602082860101526020601f19601f83011685010191505092915050565b602081526000610ffa6020830184610fa1565b9392505050565b80356001600160a01b038116811461101857600080fd5b919050565b6000806040838503121561103057600080fd5b61103983611001565b946020939093013593505050565b634e487b7160e01b600052604160045260246000fd5b600082601f83011261106e57600080fd5b813567ffffffffffffffff8082111561108957611089611047565b604051601f8301601f19908116603f011681019082821181831017156110b1576110b1611047565b816040528381528660208588010111156110ca57600080fd5b836020870160208301376000602085830101528094505050505092915050565b6000806000606084860312156110ff57600080fd5b833567ffffffffffffffff8082111561111757600080fd5b6111238783880161105d565b945060208601359350604086013591508082111561114057600080fd5b5061114d8682870161105d565b9150509250925092565b60008060006060848603121561116c57600080fd5b61117584611001565b925061118360208501611001565b9150604084013590509250925092565b6000602082840312156111a557600080fd5b5035919050565b60a0815260006111bf60a0830188610fa1565b82810360208401526111d18188610fa1565b9050856040840152841515606084015282810360808401526111f38185610fa1565b98975050505050505050565b60006020828403121561121157600080fd5b610ffa82611001565b6000806040838503121561122d57600080fd5b61123683611001565b915061124460208401611001565b90509250929050565b600181811c9082168061126157607f821691505b60208210810361128157634e487b7160e01b600052602260045260246000fd5b50919050565b60208082526021908201527f525741546f6b656e3a2063616c6c6572206973206e6f7420746865206f776e656040820152603960f91b606082015260800190565b601f82111561131257600081815260208120601f850160051c810160208610156112ef5750805b601f850160051c820191505b8181101561130e578281556001016112fb565b5050505b505050565b815167ffffffffffffffff81111561133157611331611047565b6113458161133f845461124d565b846112c8565b602080601f83116001811461137a57600084156113625750858301515b600019600386901b1c1916600185901b17855561130e565b600085815260208120601f198616915b828110156113a95788860151825594840194600190910190840161138a565b50858210156113c75787850151600019600388901b60f8161c191681555b5050505050600190811b01905550565b6040815260006113ea6040830185610fa1565b90508260208301529392505050565b60208082526024908201527f525741546f6b656e3a20746f6b656e207472616e7366657273206172652070616040820152631d5cd95960e21b606082015260800190565b634e487b7160e01b600052601160045260246000fd5b8082018082111561044e5761044e61143d565b60208082526025908201527f525741546f6b656e3a206275726e20616d6f756e7420657863656564732062616040820152646c616e636560d81b606082015260800190565b8181038181111561044e5761044e61143d56feddf252ad1be2c89b69c2b068fc378daa952ba7f163c4a11628f55a4df523b3efa264697066735822122086a8d813eba6cc28b7b1ef5d249968a2419c774599531713bc8d912a301f00dd64736f6c63430008140033a264697066735822122039a795f9cd3e2788b29d1deba6c5f60ca0d86e64c2e0fe45035db39f62702d0a64736f6c63430008140033",
  "linkReferences": {},
  "deployedLinkReferences": {}
}