{
  "_format": "hh-sol-artifact-1",
  "contractName": "RWAToken",
  "sourceName": "src/contracts/RWAToken.sol",
  "abi": [
    {
      "inputs": [
        {
          "internalType": "string",
          "name": "_name",
          "type": "string"
        },
        {
          "internalType": "string",
          "name": "_symbol",
          "type": "string"
        },
        {
          "internalType": "uint8",
          "name": "_decimals",
          "type": "uint8"
        },
        {
          "internalType": "uint256",
          "name": "_initialSupply",
          "type": "uint256"
        },
        {
          "internalType": "address",
          "name": "_owner",
          "type": "address"
        },
        {
          "internalType": "string",
          "name": "_assetType",
          "type": "string"
        },
        {
          "internalType": "string",
          "name": "_assetLocation",
          "type": "string"
        },
        {
          "internalType": "uint256",
          "name": "_assetValue",
          "type": "uint256"
        }
      ],
      "stateMutability": "nonpayable",
      "type": "constructor"
    },
    {
      "anonymous": false,
      "inputs": [
        {
          "indexed": true,
          "internalType": "address",
          "name": "owner",
          "type": "address"
        },
        {
          "indexed": true,
          "internalType": "address",
          "name": "spender",
          "type": "address"
        },
        {
          "indexed": false,
          "internalType": "uint256",
          "name": "value",
          "type": "uint256"
        }
      ],
      "name": "Approval",
      "type": "event"
    },
    {
      "anonymous": false,
      "inputs": [
        {
          "indexed": false,
          "internalType": "string",
          "name": "newAssetType",
          "type": "string"
        },
        {
          "indexed": false,
          "internalType": "uint256",
          "name": "newAssetValue",
          "type": "uint256"
        }
      ],
      "name": "AssetUpdated",
      "type": "event"
    },
    {
      "anonymous": false,
      "inputs": [
        {
          "indexed": true,
          "internalType": "address",
          "name": "verifier",
          "type": "address"
        }
      ],
      "name": "AssetVerified",
      "type": "event"
    },
    {
      "anonymous": false,
      "inputs": [
        {
          "indexed": true,
          "internalType": "address",
          "name": "pauser",
          "type": "address"
        }
      ],
      "name": "TokenPaused",
      "type": "event"
    },
    {
      "anonymous": false,
      "inputs": [
        {
          "indexed": true,
          "internalType": "address",
          "name": "unpauser",
          "type": "address"
        }
      ],
      "name": "TokenUnpaused",
      "type": "event"
    },
    {
      "anonymous": false,
      "inputs": [
        {
          "indexed": true,
          "internalType": "address",
          "name": "from",
          "type": "address"
        },
        {
          "indexed": true,
          "internalType": "address",
          "name": "to",
          "type": "address"
        },
        {
          "indexed": false,
          "internalType": "uint256",
          "name": "value",
          "type": "uint256"
        }
      ],
      "name": "Transfer",
      "type": "event"
    },
    {
      "inputs": [
        {
          "internalType": "address",
          "name": "owner",
          "type": "address"
        },
        {
          "internalType": "address",
          "name": "spender",
          "type": "address"
        }
      ],
      "name": "allowance",
      "outputs": [
        {
          "internalType": "uint256",
          "name": "",
          "type": "uint256"
        }
      ],
      "stateMutability": "view",
      "type": "function"
    },
    {
      "inputs": [
        {
          "internalType": "address",
          "name": "spender",
          "type": "address"
        },
        {
          "internalType": "uint256",
          "name": "amount",
          "type": "uint256"
        }
      ],
      "name": "approve",
      "outputs": [
        {
          "internalType": "bool",
          "name": "",
          "type": "bool"
        }
      ],
      "stateMutability": "nonpayable",
      "type": "function"
    },
    {
      "inputs": [],
      "name": "assetLocation",
      "outputs": [
        {
          "internalType": "string",
          "name": "",
          "type": "string"
        }
      ],
      "stateMutability": "view",
      "type": "function"
    },
    {
      "inputs": [],
      "name": "assetType",
      "outputs": [
        {
          "internalType": "string",
          "name": "",
          "type": "string"
        }
      ],
      "stateMutability": "view",
      "type": "function"
    },
    {
      "inputs": [],
      "name": "assetValue",
      "outputs": [
        {
          "internalType": "uint256",
          "name": "",
          "type": "uint256"
        }
      ],
      "stateMutability": "view",
      "type": "function"
    },
    {
      "inputs": [
        {
          "internalType": "address",
          "name": "account",
          "type": "address"
        }
      ],
      "name": "balanceOf",
      "outputs": [
        {
          "internalType": "uint256",
          "name": "",
          "type": "uint256"
        }
      ],
      "stateMutability": "view",
      "type": "function"
    },
    {
      "inputs": [
        {
          "internalType": "uint256",
          "name": "amount",
          "type": "uint256"
        }
      ],
      "name": "burn",
      "outputs": [],
      "stateMutability": "nonpayable",
      "type": "function"
    },
    {
      "inputs": [
        {
          "internalType": "address",
          "name": "account",
          "type": "address"
        },
        {
          "internalType": "uint256",
          "name": "amount",
          "type": "uint256"
        }
      ],
      "name": "burnFrom",
      "outputs": [],
      "stateMutability": "nonpayable",
      "type": "function"
    },
    {
      "inputs": [],
      "name": "decimals",
      "outputs": [
        {
          "internalType": "uint8",
          "name": "",
          "type": "uint8"
        }
      ],
      "stateMutability": "view",
      "type": "function"
    },
    {
      "inputs": [],
      "name": "factory",
      "outputs": [
        {
          "internalType": "address",
          "name": "",
          "type": "address"
        }
      ],
      "stateMutability": "view",
      "type": "function"
    },
    {
      "inputs": [],
      "name": "getAssetInfo",
      "outputs": [
        {
          "internalType": "string",
          "name": "_assetType",
          "type": "string"
        },
        {
          "internalType": "string",
          "name": "_assetLocation",
          "type": "string"
        },
        {
          "internalType": "uint256",
          "name": "_assetValue",
          "type": "uint256"
        },
        {
          "internalType": "bool",
          "name": "_verified",
          "type": "bool"
        },
        {
          "internalType": "string",
          "name": "_legalDocumentHash",
          "type": "string"
        }
      ],
      "stateMutability": "view",
      "type": "function"
    },
    {
      "inputs": [],
      "name": "legalDocumentHash",
      "outputs": [
        {
          "internalType": "string",
          "name": "",
          "type": "string"
        }
      ],
      "stateMutability": "view",
      "type": "function"
    },
    {
      "inputs": [
        {
          "internalType": "address",
          "name": "to",
          "type": "address"
        },
        {
          "internalType": "uint256",
          "name": "amount",
          "type": "uint256"
        }
      ],
      "name": "mint",
      "outputs": [],
      "stateMutability": "nonpayable",
      "type": "function"
    },
    {
      "inputs": [],
      "name": "name",
      "outputs": [
        {
          "internalType": "string",
          "name": "",
          "type": "string"
        }
      ],
      "stateMutability": "view",
      "type": "function"
    },
    {
      "inputs": [],
      "name": "owner",
      "outputs": [
        {
          "internalType": "address",
          "name": "",
          "type": "address"
        }
      ],
      "stateMutability": "view",
      "type": "function"
    },
    {
      "inputs": [],
      "name": "pause",
      "outputs": [],
      "stateMutability": "nonpayable",
      "type": "function"
    },
    {
      "inputs": [],
      "name": "paused",
      "outputs": [
        {
          "internalType": "bool",
          "name": "",
          "type": "bool"
        }
      ],
      "stateMutability": "view",
      "type": "function"
    },
    {
      "inputs": [],
      "name": "symbol",
      "outputs": [
        {
          "internalType": "string",
          "name": "",
          "type": "string"
        }
      ],
      "stateMutability": "view",
      "type": "function"
    },
    {
      "inputs": [],
      "name": "totalSupply",
      "outputs": [
        {
          "internalType": "uint256",
          "name": "",
          "type": "uint256"
        }
      ],
      "stateMutability": "view",
      "type": "function"
    },
    {
      "inputs": [
        {
          "internalType": "address",
          "name": "to",
          "type": "address"
        },
        {
          "internalType": "uint256",
          "name": "amount",
          "type": "uint256"
        }
      ],
      "name": "transfer",
      "outputs": [
        {
          "internalType": "bool",
          "name": "",
          "type": "bool"
        }
      ],
      "stateMutability": "nonpayable",
      "type": "function"
    },
    {
      "inputs": [
        {
          "internalType": "address",
          "name": "from",
          "type": "address"
        },
        {
          "internalType": "address",
          "name": "to",
          "type": "address"
        },
        {
          "internalType": "uint256",
          "name": "amount",
          "type": "uint256"
        }
      ],
      "name": "transferFrom",
      "outputs": [
        {
          "internalType": "bool",
          "name": "",
          "type": "bool"
        }
      ],
      "stateMutability": "nonpayable",
      "type": "function"
    },
    {
      "inputs": [
        {
          "internalType": "address",
          "name": "newOwner",
          "type": "address"
        }
      ],
      "name": "transferOwnership",
      "outputs": [],
      "stateMutability": "nonpayable",
      "type": "function"
    },
    {
      "inputs": [],
      "name": "unpause",
      "outputs": [],
      "stateMutability": "nonpayable",
      "type": "function"
    },
    {
      "inputs": [
        {
          "internalType": "string",
          "name": "_assetType",
          "type": "string"
        },
        {
          "internalType": "uint256",
          "name": "_assetValue",
          "type": "uint256"
        },
        {
          "internalType": "string",
          "name": "_legalDocumentHash",
          "type": "string"
        }
      ],
      "name": "updateAssetInfo",
      "outputs": [],
      "stateMutability": "nonpayable",
      "type": "function"
    },
    {
      "inputs": [],
      "name": "verified",
      "outputs": [
        {
          "internalType": "bool",
          "name": "",
          "type": "bool"
        }
      ],
      "stateMutability": "view",
      "type": "function"
    },
    {
      "inputs": [],
      "name": "verifyAsset",
      "outputs": [],
      "stateMutability": "nonpayable",
      "type": "function"
    }
  ],
  "bytecode": "0x60806040523480156200001157600080fd5b5060405162001adb38038062001adb833981016040819052620000349162000223565b6003620000428982620003a4565b506004620000518882620003a4565b50600580546001600160a01b038616610100026001600160a81b031990911660ff891617179055600680546001600160a01b031916331790556007620000988482620003a4565b506008620000a78382620003a4565b50600a818155600554620000c19160ff9091169062000585565b620000cd90866200059d565b60028190556001600160a01b03851660008181526020818152604080832085905551938452919290917fddf252ad1be2c89b69c2b068fc378daa952ba7f163c4a11628f55a4df523b3ef910160405180910390a35050505050505050620005b7565b634e487b7160e01b600052604160045260246000fd5b600082601f8301126200015757600080fd5b81516001600160401b03808211156200017457620001746200012f565b604051601f8301601f19908116603f011681019082821181831017156200019f576200019f6200012f565b81604052838152602092508683858801011115620001bc57600080fd5b600091505b83821015620001e05785820183015181830184015290820190620001c1565b600093810190920192909252949350505050565b805160ff811681146200020657600080fd5b919050565b80516001600160a01b03811681146200020657600080fd5b600080600080600080600080610100898b0312156200024157600080fd5b88516001600160401b03808211156200025957600080fd5b620002678c838d0162000145565b995060208b01519150808211156200027e57600080fd5b6200028c8c838d0162000145565b98506200029c60408c01620001f4565b975060608b01519650620002b360808c016200020b565b955060a08b0151915080821115620002ca57600080fd5b620002d88c838d0162000145565b945060c08b0151915080821115620002ef57600080fd5b50620002fe8b828c0162000145565b92505060e089015190509295985092959890939650565b600181811c908216806200032a57607f821691505b6020821081036200034b57634e487b7160e01b600052602260045260246000fd5b50919050565b601f8211156200039f57600081815260208120601f850160051c810160208610156200037a5750805b601f850160051c820191505b818110156200039b5782815560010162000386565b5050505b505050565b81516001600160401b03811115620003c057620003c06200012f565b620003d881620003d1845462000315565b8462000351565b602080601f831160018114620004105760008415620003f75750858301515b600019600386901b1c1916600185901b1785556200039b565b600085815260208120601f198616915b82811015620004415788860151825594840194600190910190840162000420565b5085821015620004605787850151600019600388901b60f8161c191681555b5050505050600190811b01905550565b634e487b7160e01b600052601160045260246000fd5b600181815b80851115620004c7578160001904821115620004ab57620004ab62000470565b80851615620004b957918102915b93841c93908002906200048b565b509250929050565b600082620004e0575060016200057f565b81620004ef575060006200057f565b8160018114620005085760028114620005135762000533565b60019150506200057f565b60ff84111562000527576200052762000470565b50506001821b6200057f565b5060208310610133831016604e8410600b841016171562000558575081810a6200057f565b62000564838362000486565b80600019048211156200057b576200057b62000470565b0290505b92915050565b60006200059660ff841683620004cf565b9392505050565b80820281158282048414176200057f576200057f62000470565b61151480620005c76000396000f3fe608060405234801561001057600080fd5b506004361061018e5760003560e01c80635e3109e7116100de57806395d89b4111610097578063bbb82d8911610071578063bbb82d8914610340578063c45a01551461034d578063dd62ed3e14610360578063f2fde38b1461039957600080fd5b806395d89b411461031c578063a71891c314610324578063a9059cbb1461032d57600080fd5b80635e3109e71461028757806370a08231146102a0578063776cdb7c146102c957806379cc6790146102d15780638456cb59146102e45780638da5cb5b146102ec57600080fd5b806336c43ee01161014b57806340c10f191161012557806340c10f191461024557806342966c681461025857806351cc7b6b1461026b5780635c975abb1461027357600080fd5b806336c43ee01461022d5780633f4ba83a146102355780633fe3347a1461023d57600080fd5b806306fdde0314610193578063095ea7b3146101b157806318160ddd146101d45780631bd7342c146101e657806323b872dd146101fb578063313ce5671461020e575b600080fd5b61019b6103ac565b6040516101a89190610fe7565b60405180910390f35b6101c46101bf36600461101d565b61043a565b60405190151581526020016101a8565b6002545b6040519081526020016101a8565b6101f96101f43660046110ea565b610454565b005b6101c4610209366004611157565b6104e9565b60055461021b9060ff1681565b60405160ff90911681526020016101a8565b6101f9610538565b6101f96105d8565b61019b610641565b6101f961025336600461101d565b61064e565b6101f9610266366004611193565b610756565b61019b6107f7565b6006546101c490600160a01b900460ff1681565b61028f610804565b6040516101a89594939291906111ac565b6101d86102ae3660046111ff565b6001600160a01b031660009081526020819052604090205490565b61019b6109da565b6101f96102df36600461101d565b6109e7565b6101f9610a9c565b6005546103049061010090046001600160a01b031681565b6040516001600160a01b0390911681526020016101a8565b61019b610b0b565b6101d8600a5481565b6101c461033b36600461101d565b610b18565b600b546101c49060ff1681565b600654610304906001600160a01b031681565b6101d861036e36600461121a565b6001600160a01b03918216600090815260016020908152604080832093909416825291909152205490565b6101f96103a73660046111ff565b610b51565b600380546103b99061124d565b80601f01602080910402602001604051908101604052809291908181526020018280546103e59061124d565b80156104325780601f1061040757610100808354040283529160200191610432565b820191906000526020600020905b81548152906001019060200180831161041557829003601f168201915b505050505081565b600033610448818585610c0e565b60019150505b92915050565b60055461010090046001600160a01b0316331461048c5760405162461bcd60e51b815260040161048390611287565b60405180910390fd5b60076104988482611317565b50600a82905560096104aa8282611317565b507fbc6f5cf2ece628f201d4619ae75ccbdaaba2626f33d15ed417e92c36c83ee53f83836040516104dc9291906113d7565b60405180910390a1505050565b600654600090600160a01b900460ff16156105165760405162461bcd60e51b8152600401610483906113f9565b33610522858285610d39565b61052d858585610dd2565b506001949350505050565b6006546001600160a01b0316331461059e5760405162461bcd60e51b815260206004820152602360248201527f525741546f6b656e3a2063616c6c6572206973206e6f742074686520666163746044820152626f727960e81b6064820152608401610483565b600b805460ff1916600117905560405133907f0be95955bd2d9141bff4014af611adc8cc414a3c5308dfbff6ad1fcda6e8080790600090a2565b60055461010090046001600160a01b031633146106075760405162461bcd60e51b815260040161048390611287565b6006805460ff60a01b1916905560405133907ff38578ed892ce2ce655ca8ae03c73464ad74915a1331a9b4085e637534daeedf90600090a2565b600780546103b99061124d565b60055461010090046001600160a01b0316331461067d5760405162461bcd60e51b815260040161048390611287565b6001600160a01b0382166106de5760405162461bcd60e51b815260206004820152602260248201527f525741546f6b656e3a206d696e7420746f20746865207a65726f206164647265604482015261737360f01b6064820152608401610483565b80600260008282546106f09190611453565b90915550506001600160a01b0382166000908152602081905260408120805483929061071d908490611453565b90915550506040518181526001600160a01b038316906000906000805160206114bf833981519152906020015b60405180910390a35050565b336000818152602081905260409020548211156107855760405162461bcd60e51b815260040161048390611466565b6001600160a01b038116600090815260208190526040812080548492906107ad9084906114ab565b9250508190555081600260008282546107c691906114ab565b90915550506040518281526000906001600160a01b038316906000805160206114bf8339815191529060200161074a565b600980546103b99061124d565b606080600080606060076008600a54600b60009054906101000a900460ff1660098480546108319061124d565b80601f016020809104026020016040519081016040528092919081815260200182805461085d9061124d565b80156108aa5780601f1061087f576101008083540402835291602001916108aa565b820191906000526020600020905b81548152906001019060200180831161088d57829003601f168201915b505050505094508380546108bd9061124d565b80601f01602080910402602001604051908101604052809291908181526020018280546108e99061124d565b80156109365780601f1061090b57610100808354040283529160200191610936565b820191906000526020600020905b81548152906001019060200180831161091957829003601f168201915b505050505093508080546109499061124d565b80601f01602080910402602001604051908101604052809291908181526020018280546109759061124d565b80156109c25780601f10610997576101008083540402835291602001916109c2565b820191906000526020600020905b8154815290600101906020018083116109a557829003601f168201915b50505050509050945094509450945094509091929394565b600880546103b99061124d565b6109f2823383610d39565b6001600160a01b038216600090815260208190526040902054811115610a2a5760405162461bcd60e51b815260040161048390611466565b6001600160a01b03821660009081526020819052604081208054839290610a529084906114ab565b925050819055508060026000828254610a6b91906114ab565b90915550506040518181526000906001600160a01b038416906000805160206114bf8339815191529060200161074a565b60055461010090046001600160a01b03163314610acb5760405162461bcd60e51b815260040161048390611287565b6006805460ff60a01b1916600160a01b17905560405133907ff017c0de579727a3cd3ee18077ee8b4c43bf21892985952d1d5a0d52f983502d90600090a2565b600480546103b99061124d565b600654600090600160a01b900460ff1615610b455760405162461bcd60e51b8152600401610483906113f9565b33610448818585610dd2565b60055461010090046001600160a01b03163314610b805760405162461bcd60e51b815260040161048390611287565b6001600160a01b038116610be65760405162461bcd60e51b815260206004820152602760248201527f525741546f6b656e3a206e6577206f776e657220697320746865207a65726f206044820152666164647265737360c81b6064820152608401610483565b600580546001600160a01b0390921661010002610100600160a81b0319909216919091179055565b6001600160a01b038316610c745760405162461bcd60e51b815260206004820152602760248201527f525741546f6b656e3a20617070726f76652066726f6d20746865207a65726f206044820152666164647265737360c81b6064820152608401610483565b6001600160a01b038216610cd85760405162461bcd60e51b815260206004820152602560248201527f525741546f6b656e3a20617070726f766520746f20746865207a65726f206164604482015264647265737360d81b6064820152608401610483565b6001600160a01b0383811660008181526001602090815260408083209487168084529482529182902085905590518481527f8c5be1e5ebec7d5bd14f71427d1e84f3dd0314c0f7b2291e5b200ac8c7c3b925910160405180910390a3505050565b6001600160a01b038381166000908152600160209081526040808320938616835292905220546000198114610dcc5781811015610db85760405162461bcd60e51b815260206004820181905260248201527f525741546f6b656e3a20696e73756666696369656e7420616c6c6f77616e63656044820152606401610483565b610dcc8484610dc785856114ab565b610c0e565b50505050565b6001600160a01b038316610e395760405162461bcd60e51b815260206004820152602860248201527f525741546f6b656e3a207472616e736665722066726f6d20746865207a65726f604482015267206164647265737360c01b6064820152608401610483565b6001600160a01b038216610e9e5760405162461bcd60e51b815260206004820152602660248201527f525741546f6b656e3a207472616e7366657220746f20746865207a65726f206160448201526564647265737360d01b6064820152608401610483565b6001600160a01b03831660009081526020819052604090205481811015610f195760405162461bcd60e51b815260206004820152602960248201527f525741546f6b656e3a207472616e7366657220616d6f756e7420657863656564604482015268732062616c616e636560b81b6064820152608401610483565b610f2382826114ab565b6001600160a01b038086166000908152602081905260408082209390935590851681529081208054849290610f59908490611453565b92505081905550826001600160a01b0316846001600160a01b03166000805160206114bf83398151915284604051610f9391815260200190565b60405180910390a350505050565b6000815180845260005b81811015610fc757602081850181015186830182015201610fab565b506000602082860101526020601f19601f83011685010191505092915050565b602081526000610ffa6020830184610fa1565b9392505050565b80356001600160a01b038116811461101857600080fd5b919050565b6000806040838503121561103057600080fd5b61103983611001565b946020939093013593505050565b634e487b7160e01b600052604160045260246000fd5b600082601f83011261106e57600080fd5b813567ffffffffffffffff8082111561108957611089611047565b604051601f8301601f19908116603f011681019082821181831017156110b1576110b1611047565b816040528381528660208588010111156110ca57600080fd5b836020870160208301376000602085830101528094505050505092915050565b6000806000606084860312156110ff57600080fd5b833567ffffffffffffffff8082111561111757600080fd5b6111238783880161105d565b945060208601359350604086013591508082111561114057600080fd5b5061114d8682870161105d565b9150509250925092565b60008060006060848603121561116c57600080fd5b61117584611001565b925061118360208501611001565b9150604084013590509250925092565b6000602082840312156111a557600080fd5b5035919050565b60a0815260006111bf60a0830188610fa1565b82810360208401526111d18188610fa1565b9050856040840152841515606084015282810360808401526111f38185610fa1565b98975050505050505050565b60006020828403121561121157600080fd5b610ffa82611001565b6000806040838503121561122d57600080fd5b61123683611001565b915061124460208401611001565b90509250929050565b600181811c9082168061126157607f821691505b60208210810361128157634e487b7160e01b600052602260045260246000fd5b50919050565b60208082526021908201527f525741546f6b656e3a2063616c6c6572206973206e6f7420746865206f776e656040820152603960f91b606082015260800190565b601f82111561131257600081815260208120601f850160051c810160208610156112ef5750805b601f850160051c820191505b8181101561130e578281556001016112fb565b5050505b505050565b815167ffffffffffffffff81111561133157611331611047565b6113458161133f845461124d565b846112c8565b602080601f83116001811461137a57600084156113625750858301515b600019600386901b1c1916600185901b17855561130e565b600085815260208120601f198616915b828110156113a95788860151825594840194600190910190840161138a565b50858210156113c75787850151600019600388901b60f8161c191681555b5050505050600190811b01905550565b6040815260006113ea6040830185610fa1565b90508260208301529392505050565b60208082526024908201527f525741546f6b656e3a20746f6b656e207472616e7366657273206172652070616040820152631d5cd95960e21b606082015260800190565b634e487b7160e01b600052601160045260246000fd5b8082018082111561044e5761044e61143d565b60208082526025908201527f525741546f6b656e3a206275726e20616d6f756e7420657863656564732062616040820152646c616e636560d81b606082015260800190565b8181038181111561044e5761044e61143d56feddf252ad1be2c89b69c2b068fc378daa952ba7f163c4a11628f55a4df523b3efa264697066735822122086a8d813eba6cc28b7b1ef5d249968a2419c774599531713bc8d912a301f00dd64736f6c63430008140033",
  "linkReferences": {},
  "deployedLinkReferences": {}
}