{
  "_format": "hh-sol-artifact-1",
  "contractName": "RWAToken",
  "sourceName": "src/contracts/RWAToken.sol",
  "abi": [
    {
      "inputs": [
        {
          "internalType": "string",
          "name": "_name",
          "type": "string"
        },
        {
          "internalType": "string",
          "name": "_symbol",
          "type": "string"
        },
        {
          "internalType": "uint8",
          "name": "_decimals",
          "type": "uint8"
        },
        {
          "internalType": "uint256",
          "name": "_initialSupply",
          "type": "uint256"
        },
        {
          "internalType": "address",
          "name": "_owner",
          "type": "address"
        },
        {
          "internalType": "string",
          "name": "_assetType",
          "type": "string"
        },
        {
          "internalType": "string",
          "name": "_assetLocation",
          "type": "string"
        },
        {
          "internalType": "uint256",
          "name": "_assetValue",
          "type": "uint256"
        }
      ],
      "stateMutability": "nonpayable",
      "type": "constructor"
    },
    {
      "inputs": [],
      "name": "ApproveFromZeroAddress",
      "type": "error"
    },
    {
      "inputs": [],
      "name": "ApproveToZeroAddress",
      "type": "error"
    },
    {
      "inputs": [
        {
          "internalType": "address",
          "name": "owner",
          "type": "address"
        },
        {
          "internalType": "address",
          "name": "spender",
          "type": "address"
        },
        {
          "internalType": "uint256",
          "name": "requested",
          "type": "uint256"
        },
        {
          "internalType": "uint256",
          "name": "available",
          "type": "uint256"
        }
      ],
      "name": "InsufficientAllowance",
      "type": "error"
    },
    {
      "inputs": [
        {
          "internalType": "address",
          "name": "account",
          "type": "address"
        },
        {
          "internalType": "uint256",
          "name": "requested",
          "type": "uint256"
        },
        {
          "internalType": "uint256",
          "name": "available",
          "type": "uint256"
        }
      ],
      "name": "InsufficientBalance",
      "type": "error"
    },
    {
      "inputs": [],
      "name": "InvalidAddress",
      "type": "error"
    },
    {
      "inputs": [],
      "name": "InvalidAmount",
      "type": "error"
    },
    {
      "inputs": [],
      "name": "NotFactory",
      "type": "error"
    },
    {
      "inputs": [],
      "name": "NotOwner",
      "type": "error"
    },
    {
      "inputs": [],
      "name": "TokenPausedError",
      "type": "error"
    },
    {
      "inputs": [],
      "name": "TransferFromZeroAddress",
      "type": "error"
    },
    {
      "inputs": [],
      "name": "TransferToZeroAddress",
      "type": "error"
    },
    {
      "anonymous": false,
      "inputs": [
        {
          "indexed": true,
          "internalType": "address",
          "name": "owner",
          "type": "address"
        },
        {
          "indexed": true,
          "internalType": "address",
          "name": "spender",
          "type": "address"
        },
        {
          "indexed": false,
          "internalType": "uint256",
          "name": "value",
          "type": "uint256"
        }
      ],
      "name": "Approval",
      "type": "event"
    },
    {
      "anonymous": false,
      "inputs": [
        {
          "indexed": false,
          "internalType": "string",
          "name": "newAssetType",
          "type": "string"
        },
        {
          "indexed": false,
          "internalType": "uint256",
          "name": "newAssetValue",
          "type": "uint256"
        }
      ],
      "name": "AssetUpdated",
      "type": "event"
    },
    {
      "anonymous": false,
      "inputs": [
        {
          "indexed": true,
          "internalType": "address",
          "name": "verifier",
          "type": "address"
        }
      ],
      "name": "AssetVerified",
      "type": "event"
    },
    {
      "anonymous": false,
      "inputs": [
        {
          "indexed": true,
          "internalType": "address",
          "name": "previousOwner",
          "type": "address"
        },
        {
          "indexed": true,
          "internalType": "address",
          "name": "newOwner",
          "type": "address"
        }
      ],
      "name": "OwnershipTransferred",
      "type": "event"
    },
    {
      "anonymous": false,
      "inputs": [
        {
          "indexed": true,
          "internalType": "address",
          "name": "pauser",
          "type": "address"
        }
      ],
      "name": "TokenPaused",
      "type": "event"
    },
    {
      "anonymous": false,
      "inputs": [
        {
          "indexed": true,
          "internalType": "address",
          "name": "unpauser",
          "type": "address"
        }
      ],
      "name": "TokenUnpaused",
      "type": "event"
    },
    {
      "anonymous": false,
      "inputs": [
        {
          "indexed": true,
          "internalType": "address",
          "name": "from",
          "type": "address"
        },
        {
          "indexed": false,
          "internalType": "uint256",
          "name": "amount",
          "type": "uint256"
        }
      ],
      "name": "TokensBurned",
      "type": "event"
    },
    {
      "anonymous": false,
      "inputs": [
        {
          "indexed": true,
          "internalType": "address",
          "name": "to",
          "type": "address"
        },
        {
          "indexed": false,
          "internalType": "uint256",
          "name": "amount",
          "type": "uint256"
        }
      ],
      "name": "TokensMinted",
      "type": "event"
    },
    {
      "anonymous": false,
      "inputs": [
        {
          "indexed": true,
          "internalType": "address",
          "name": "from",
          "type": "address"
        },
        {
          "indexed": true,
          "internalType": "address",
          "name": "to",
          "type": "address"
        },
        {
          "indexed": false,
          "internalType": "uint256",
          "name": "value",
          "type": "uint256"
        }
      ],
      "name": "Transfer",
      "type": "event"
    },
    {
      "inputs": [
        {
          "internalType": "address",
          "name": "ownerAddr",
          "type": "address"
        },
        {
          "internalType": "address",
          "name": "spender",
          "type": "address"
        }
      ],
      "name": "allowance",
      "outputs": [
        {
          "internalType": "uint256",
          "name": "",
          "type": "uint256"
        }
      ],
      "stateMutability": "view",
      "type": "function"
    },
    {
      "inputs": [
        {
          "internalType": "address",
          "name": "spender",
          "type": "address"
        },
        {
          "internalType": "uint256",
          "name": "amount",
          "type": "uint256"
        }
      ],
      "name": "approve",
      "outputs": [
        {
          "internalType": "bool",
          "name": "",
          "type": "bool"
        }
      ],
      "stateMutability": "nonpayable",
      "type": "function"
    },
    {
      "inputs": [],
      "name": "assetLocation",
      "outputs": [
        {
          "internalType": "string",
          "name": "",
          "type": "string"
        }
      ],
      "stateMutability": "view",
      "type": "function"
    },
    {
      "inputs": [],
      "name": "assetType",
      "outputs": [
        {
          "internalType": "string",
          "name": "",
          "type": "string"
        }
      ],
      "stateMutability": "view",
      "type": "function"
    },
    {
      "inputs": [],
      "name": "assetValue",
      "outputs": [
        {
          "internalType": "uint256",
          "name": "",
          "type": "uint256"
        }
      ],
      "stateMutability": "view",
      "type": "function"
    },
    {
      "inputs": [
        {
          "internalType": "address",
          "name": "account",
          "type": "address"
        }
      ],
      "name": "balanceOf",
      "outputs": [
        {
          "internalType": "uint256",
          "name": "",
          "type": "uint256"
        }
      ],
      "stateMutability": "view",
      "type": "function"
    },
    {
      "inputs": [
        {
          "internalType": "uint256",
          "name": "amount",
          "type": "uint256"
        }
      ],
      "name": "burn",
      "outputs": [],
      "stateMutability": "nonpayable",
      "type": "function"
    },
    {
      "inputs": [
        {
          "internalType": "address",
          "name": "account",
          "type": "address"
        },
        {
          "internalType": "uint256",
          "name": "amount",
          "type": "uint256"
        }
      ],
      "name": "burnFrom",
      "outputs": [],
      "stateMutability": "nonpayable",
      "type": "function"
    },
    {
      "inputs": [],
      "name": "decimals",
      "outputs": [
        {
          "internalType": "uint8",
          "name": "",
          "type": "uint8"
        }
      ],
      "stateMutability": "view",
      "type": "function"
    },
    {
      "inputs": [],
      "name": "factory",
      "outputs": [
        {
          "internalType": "address",
          "name": "",
          "type": "address"
        }
      ],
      "stateMutability": "view",
      "type": "function"
    },
    {
      "inputs": [],
      "name": "getAssetInfo",
      "outputs": [
        {
          "internalType": "string",
          "name": "_assetType",
          "type": "string"
        },
        {
          "internalType": "string",
          "name": "_assetLocation",
          "type": "string"
        },
        {
          "internalType": "uint256",
          "name": "_assetValue",
          "type": "uint256"
        },
        {
          "internalType": "bool",
          "name": "_verified",
          "type": "bool"
        },
        {
          "internalType": "string",
          "name": "_legalDocumentHash",
          "type": "string"
        }
      ],
      "stateMutability": "view",
      "type": "function"
    },
    {
      "inputs": [
        {
          "internalType": "address",
          "name": "account",
          "type": "address"
        }
      ],
      "name": "getFormattedBalance",
      "outputs": [
        {
          "internalType": "uint256",
          "name": "",
          "type": "uint256"
        }
      ],
      "stateMutability": "view",
      "type": "function"
    },
    {
      "inputs": [],
      "name": "getTokenInfo",
      "outputs": [
        {
          "internalType": "string",
          "name": "_name",
          "type": "string"
        },
        {
          "internalType": "string",
          "name": "_symbol",
          "type": "string"
        },
        {
          "internalType": "uint8",
          "name": "_decimals",
          "type": "uint8"
        },
        {
          "internalType": "uint256",
          "name": "_totalSupply",
          "type": "uint256"
        },
        {
          "internalType": "address",
          "name": "_owner",
          "type": "address"
        },
        {
          "internalType": "bool",
          "name": "_paused",
          "type": "bool"
        }
      ],
      "stateMutability": "view",
      "type": "function"
    },
    {
      "inputs": [
        {
          "internalType": "address",
          "name": "account",
          "type": "address"
        },
        {
          "internalType": "uint256",
          "name": "amount",
          "type": "uint256"
        }
      ],
      "name": "hasSufficientBalance",
      "outputs": [
        {
          "internalType": "bool",
          "name": "",
          "type": "bool"
        }
      ],
      "stateMutability": "view",
      "type": "function"
    },
    {
      "inputs": [],
      "name": "legalDocumentHash",
      "outputs": [
        {
          "internalType": "string",
          "name": "",
          "type": "string"
        }
      ],
      "stateMutability": "view",
      "type": "function"
    },
    {
      "inputs": [
        {
          "internalType": "address",
          "name": "to",
          "type": "address"
        },
        {
          "internalType": "uint256",
          "name": "amount",
          "type": "uint256"
        }
      ],
      "name": "mint",
      "outputs": [],
      "stateMutability": "nonpayable",
      "type": "function"
    },
    {
      "inputs": [],
      "name": "name",
      "outputs": [
        {
          "internalType": "string",
          "name": "",
          "type": "string"
        }
      ],
      "stateMutability": "view",
      "type": "function"
    },
    {
      "inputs": [],
      "name": "owner",
      "outputs": [
        {
          "internalType": "address",
          "name": "",
          "type": "address"
        }
      ],
      "stateMutability": "view",
      "type": "function"
    },
    {
      "inputs": [],
      "name": "pause",
      "outputs": [],
      "stateMutability": "nonpayable",
      "type": "function"
    },
    {
      "inputs": [],
      "name": "paused",
      "outputs": [
        {
          "internalType": "bool",
          "name": "",
          "type": "bool"
        }
      ],
      "stateMutability": "view",
      "type": "function"
    },
    {
      "inputs": [],
      "name": "symbol",
      "outputs": [
        {
          "internalType": "string",
          "name": "",
          "type": "string"
        }
      ],
      "stateMutability": "view",
      "type": "function"
    },
    {
      "inputs": [],
      "name": "totalSupply",
      "outputs": [
        {
          "internalType": "uint256",
          "name": "",
          "type": "uint256"
        }
      ],
      "stateMutability": "view",
      "type": "function"
    },
    {
      "inputs": [
        {
          "internalType": "address",
          "name": "to",
          "type": "address"
        },
        {
          "internalType": "uint256",
          "name": "amount",
          "type": "uint256"
        }
      ],
      "name": "transfer",
      "outputs": [
        {
          "internalType": "bool",
          "name": "",
          "type": "bool"
        }
      ],
      "stateMutability": "nonpayable",
      "type": "function"
    },
    {
      "inputs": [
        {
          "internalType": "address",
          "name": "from",
          "type": "address"
        },
        {
          "internalType": "address",
          "name": "to",
          "type": "address"
        },
        {
          "internalType": "uint256",
          "name": "amount",
          "type": "uint256"
        }
      ],
      "name": "transferFrom",
      "outputs": [
        {
          "internalType": "bool",
          "name": "",
          "type": "bool"
        }
      ],
      "stateMutability": "nonpayable",
      "type": "function"
    },
    {
      "inputs": [
        {
          "internalType": "address",
          "name": "newOwner",
          "type": "address"
        }
      ],
      "name": "transferOwnership",
      "outputs": [],
      "stateMutability": "nonpayable",
      "type": "function"
    },
    {
      "inputs": [],
      "name": "unpause",
      "outputs": [],
      "stateMutability": "nonpayable",
      "type": "function"
    },
    {
      "inputs": [
        {
          "internalType": "string",
          "name": "_assetType",
          "type": "string"
        },
        {
          "internalType": "uint256",
          "name": "_assetValue",
          "type": "uint256"
        },
        {
          "internalType": "string",
          "name": "_legalDocumentHash",
          "type": "string"
        }
      ],
      "name": "updateAssetInfo",
      "outputs": [],
      "stateMutability": "nonpayable",
      "type": "function"
    },
    {
      "inputs": [],
      "name": "verified",
      "outputs": [
        {
          "internalType": "bool",
          "name": "",
          "type": "bool"
        }
      ],
      "stateMutability": "view",
      "type": "function"
    },
    {
      "inputs": [],
      "name": "verifyAsset",
      "outputs": [],
      "stateMutability": "nonpayable",
      "type": "function"
    }
  ],
  "bytecode": "0x608060405234620007ae5762001cdd803803806200001d81620007b3565b928339810161010082820312620007ae5781516001600160401b038111620007ae57816200004d918401620007d9565b60208301519091906001600160401b038111620007ae578162000072918501620007d9565b9060408401519260ff84168403620007ae5760608501516080860151909490936001600160a01b0385168503620007ae5760a08701516001600160401b038111620007ae5784620000c5918901620007d9565b60c08801519094906001600160401b038111620007ae5760e091620000ec918a01620007d9565b970151926001600160a01b038616156200079c578051906001600160401b038211620004665760035490600182811c9216801562000791575b6020831014620004455781601f8493116200071f575b50602090601f8311600114620006905760009262000684575b50508160011b916000199060031b1c1916176003555b8051906001600160401b038211620004665760045490600182811c9216801562000679575b6020831014620004455781601f84931162000607575b50602090601f831160011462000578576000926200056c575b50508160011b916000199060031b1c1916176004555b600580546001600160a81b03191660ff90921691909117600885811b610100600160a81b0316919091178255600680546001600160a01b03191633179055835191939091906001600160401b038211620004665760075490600182811c9216801562000561575b6020831014620004455781601f84931162000502575b50602090601f831160011462000488576000926200047c575b50508160011b916000199060031b1c1916176007555b85516001600160401b03811162000466578154600181811c911680156200045b575b60208210146200044557601f8111620003fa575b506020601f82116001146200038a57819060ff9697986000926200037e575b50508160011b916000199060031b1c19161790555b600a555416604d81116200036857600a0a91828102928184041490151715620003685760028290556001600160a01b031660008181526020818152604080832085905551938452919290917fddf252ad1be2c89b69c2b068fc378daa952ba7f163c4a11628f55a4df523b3ef91a360405161147190816200084c8239f35b634e487b7160e01b600052601160045260246000fd5b015190503880620002d5565b601f198216978360005260206000209860005b818110620003e157509160ff97989991846001959410620003c7575b505050811b019055620002ea565b015160001960f88460031b161c19169055388080620003b9565b838301518b556001909a0199602093840193016200039d565b826000526020600020601f8301861c810191602084106200043a575b601f01861c01905b8181106200042d5750620002b6565b600081556001016200041e565b909150819062000416565b634e487b7160e01b600052602260045260246000fd5b90607f1690620002a2565b634e487b7160e01b600052604160045260246000fd5b0151905038806200026a565b6007600090815260008051602062001cbd8339815191529350601f198516905b818110620004e95750908460019594939210620004cf575b505050811b0160075562000280565b015160001960f88460031b161c19169055388080620004c0565b92936020600181928786015181550195019301620004a8565b600760005290915060008051602062001cbd833981519152601f8401871c81016020851062000559575b90849392915b601f8301891c820181106200054957505062000251565b6000815585945060010162000532565b50806200052c565b91607f16916200023b565b015190503880620001be565b6004600090815293507f8a35acfbc15ff81a39ae7d344fd709f28e8600b4aa8c65c6b64bfe7fe36bd19b91905b601f1984168510620005eb576001945083601f19811610620005d1575b505050811b01600455620001d4565b015160001960f88460031b161c19169055388080620005c2565b81810151835560209485019460019093019290910190620005a5565b60046000529091507f8a35acfbc15ff81a39ae7d344fd709f28e8600b4aa8c65c6b64bfe7fe36bd19b601f840160051c81016020851062000671575b90849392915b601f830160051c8201811062000661575050620001a5565b6000815585945060010162000649565b508062000643565b91607f16916200018f565b01519050388062000154565b6003600090815293507fc2575a0e9e593c00f959f8c92f12db2869c3395a3b0502d05e2516446f71f85b91905b601f198416851062000703576001945083601f19811610620006e9575b505050811b016003556200016a565b015160001960f88460031b161c19169055388080620006da565b81810151835560209485019460019093019290910190620006bd565b60036000529091507fc2575a0e9e593c00f959f8c92f12db2869c3395a3b0502d05e2516446f71f85b601f840160051c81016020851062000789575b90849392915b601f830160051c82018110620007795750506200013b565b6000815585945060010162000761565b50806200075b565b91607f169162000125565b60405163e6c4247b60e01b8152600490fd5b600080fd5b6040519190601f01601f191682016001600160401b038111838210176200046657604052565b919080601f84011215620007ae5782516001600160401b03811162000466576020906200080f601f8201601f19168301620007b3565b92818452828287010111620007ae5760005b8181106200083757508260009394955001015290565b85810183015184820184015282016200082156fe6040608081526004908136101561001557600080fd5b600091823560e01c806305c738d4146105fd57806306fdde0314610db1578063095ea7b314610d7557806318160ddd14610d565780631bd7342c146109ee57806323b872dd14610949578063313ce5671461092757806336c43ee0146108c05780633f4ba83a146108635780633fe3347a1461084557806340c10f191461077857806342966c68146106b457806351cc7b6b146106965780635c975abb1461066f5780635e3109e71461060257806370a08231146105fd578063776cdb7c146105df57806379cc6790146104d15780638456cb59146104615780638da5cb5b1461043457806395d89b41146103ff578063a71891c3146103e0578063a9059cbb1461035d578063abb1dc44146102db578063bbb82d89146102b7578063c45a01551461028e578063d5395d2b14610253578063dd62ed3e146102065763f2fde38b1461016057600080fd5b3461020257602036600319011261020257610179610dcf565b6005549060018060a01b0392838360081c16938433036101f35782169485156101e6575050610100600160a81b031990911660089190911b610100600160a81b0316176005557f8be0079c531659141344cd1fd0a4f28419497f9722a3daafe3b4186f6b6457e08380a380f35b5163e6c4247b60e01b8152fd5b5084516330cd747160e01b8152fd5b8280fd5b50503461024f578060031936011261024f5780602092610224610dcf565b61022c610dea565b6001600160a01b0391821683526001865283832091168252845220549051908152f35b5080fd5b50503461024f578060031936011261024f576020916001600160a01b03610278610dcf565b1681528083528160243591205410159051908152f35b50503461024f578160031936011261024f5760065490516001600160a01b039091168152602090f35b50503461024f578160031936011261024f5760209060ff600b541690519015158152f35b50503461024f578160031936011261024f57906103229160ff60055460065490610303610eac565b9461033061030f611135565b865198899860c08a5260c08a01906111ce565b9088820360208a01526111ce565b9484831690870152606086015260018060a01b039060081c16608085015260a01c16151560a08301520390f35b5091346103dd57816003193601126103dd5750610378610dcf565b6024359260ff60065460a01c166103cf5783156103c1576001600160a01b038216156103b357506020926103ac9133611295565b5160018152f35b825163e6c4247b60e01b8152fd5b825163162908e360e11b8152fd5b825163f61d011160e01b8152fd5b80fd5b50503461024f578160031936011261024f57602090600a549051908152f35b50503461024f578160031936011261024f576104309061041d611135565b90519182916020835260208301906111ce565b0390f35b50503461024f578160031936011261024f57600554905160089190911c6001600160a01b03168152602090f35b50903461020257826003193601126102025760055460081c6001600160a01b031633036104c4576006805460ff60a01b1916600160a01b17905582337ff017c0de579727a3cd3ee18077ee8b4c43bf21892985952d1d5a0d52f983502d8280a280f35b516330cd747160e01b8152fd5b50346102025781600319360112610202576104ea610dcf565b916024359182156105d1576001600160a01b0384169384156105c25761051184338361138c565b84865285602052828620549184831061058e57505091602091610555827ffd38818f5291bf0bb3a2a48aadc06ba8757865d1dabd804585338aab3009dcb695611288565b8587528684528187205561056b82600254611288565b600255858560008051602061141c833981519152858451868152a351908152a280f35b835163db42144d60e01b81526001600160a01b03909216908201908152602081018590526040810183905281906060010390fd5b50905163e6c4247b60e01b8152fd5b905163162908e360e11b8152fd5b50503461024f578160031936011261024f576104309061041d61109c565b610e00565b50503461024f578160031936011261024f5761032290610430600a549160ff600b54169261062e610f6a565b9361063761109c565b91610657610643611003565b93855198899860a08a5260a08a01906111ce565b938601521515606085015283820360808501526111ce565b50503461024f578160031936011261024f5760209060ff60065460a01c1690519015158152f35b50503461024f578160031936011261024f576104309061041d611003565b5090346102025760203660031901126102025781359182156105d15733845283602052818420549083821061074f5750826106ee91611288565b338452836020528184205561070582600254611288565b60025582815183815260008051602061141c83398151915260203392a3519081527ffd38818f5291bf0bb3a2a48aadc06ba8757865d1dabd804585338aab3009dcb660203392a280f35b915163db42144d60e01b8152339281019283526020830193909352604082015281906060010390fd5b509034610202578060031936011261020257610792610dcf565b60055460243592916001600160a01b039160081c8216330361083557169283156108275782156105d15750816020916107ee7f3f2c9d57c068687834f0de942a9babb9e5acab57d516d3480a3c16ee165a427394600254611265565b600255848652858352808620610805838254611265565b9055848660008051602061141c833981519152858451868152a351908152a280f35b905163e6c4247b60e01b8152fd5b82516330cd747160e01b81528590fd5b50503461024f578160031936011261024f576104309061041d610f6a565b50903461020257826003193601126102025760055460081c6001600160a01b031633036104c4576006805460ff60a01b1916905582337ff38578ed892ce2ce655ca8ae03c73464ad74915a1331a9b4085e637534daeedf8280a280f35b5090346102025782600319360112610202576006546001600160a01b0316330361091a5782600160ff19600b541617600b55337f0be95955bd2d9141bff4014af611adc8cc414a3c5308dfbff6ad1fcda6e808078280a280f35b51631966391b60e11b8152fd5b50503461024f578160031936011261024f5760209060ff600554169051908152f35b5091346103dd5760603660031901126103dd5750610965610dcf565b61096d610dea565b906044359360ff60065460a01c166109e05784156109d2576001600160a01b03838116156109c3578216156109b55750926103ac916020946109b083338361138c565b611295565b835163e6c4247b60e01b8152fd5b50835163e6c4247b60e01b8152fd5b835163162908e360e11b8152fd5b835163f61d011160e01b8152fd5b5082903461024f57606036600319011261024f5767ffffffffffffffff928135848111610d5257610a22903690840161120e565b9160243590604435868111610d4e57610a3e903690830161120e565b60055460081c6001600160a01b03163303610d3f57845191878311610c3e57610a68600754610e3a565b92601f93848111610cdf575b50806020858211600114610c5c578991610c51575b508160011b916000199060031b1c1916176007555b83600a558151978811610c3e5750610ab7600954610e3a565b828111610bde575b506020918711600114610b395795809186977fbc6f5cf2ece628f201d4619ae75ccbdaaba2626f33d15ed417e92c36c83ee53f9792610b2e575b50508160011b916000199060031b1c1916176009555b610b2282519383859485528401906111ce565b9060208301520390a180f35b015190508780610af9565b600986527f6e1540171b6c0c960b71a7020d9f60077f6af931a8bbf590da0223dacf75c7af9190601f198816875b818110610bc657509160019391897fbc6f5cf2ece628f201d4619ae75ccbdaaba2626f33d15ed417e92c36c83ee53f999a9410610bad575b505050811b01600955610b0f565b015160001960f88460031b161c19169055878080610b9f565b92936020600181928786015181550195019301610b67565b600987527f6e1540171b6c0c960b71a7020d9f60077f6af931a8bbf590da0223dacf75c7af83808a0160051c82019260208b10610c35575b0160051c01905b818110610c2a5750610abf565b878155600101610c1d565b92508192610c16565b634e487b7160e01b875260419052602486fd5b90508701518a610a89565b60078a527fa66cc928b5edb82af9bd49922954155ab7b0942694bea4ce44661d9a8736c6889150601f1983168a5b8a828210610cc75750509083600194939210610cae575b5050811b01600755610a9e565b89015160001960f88460031b161c191690558a80610ca1565b60018495602093958493015181550194019201610c8a565b600789527fa66cc928b5edb82af9bd49922954155ab7b0942694bea4ce44661d9a8736c6888580840160051c82019260208510610d36575b0160051c01905b818110610d2b5750610a74565b898155600101610d1e565b92508192610d17565b5082516330cd747160e01b8152fd5b8580fd5b8380fd5b50503461024f578160031936011261024f576020906002549051908152f35b5091346103dd57816003193601126103dd5750610d90610dcf565b916001600160a01b0383161561082757506103ac6020926024359033611335565b50503461024f578160031936011261024f576104309061041d610eac565b600435906001600160a01b0382168203610de557565b600080fd5b602435906001600160a01b0382168203610de557565b34610de5576020366003190112610de5576001600160a01b03610e21610dcf565b1660005260006020526020604060002054604051908152f35b90600182811c92168015610e6a575b6020831014610e5457565b634e487b7160e01b600052602260045260246000fd5b91607f1691610e49565b90601f8019910116810190811067ffffffffffffffff821117610e9657604052565b634e487b7160e01b600052604160045260246000fd5b6040519060008260035491610ec083610e3a565b80835292600190818116908115610f485750600114610ee9575b50610ee792500383610e74565b565b6003600090815291507fc2575a0e9e593c00f959f8c92f12db2869c3395a3b0502d05e2516446f71f85b5b848310610f2d5750610ee7935050810160200138610eda565b81935090816020925483858a01015201910190918592610f14565b905060209250610ee794915060ff191682840152151560051b82010138610eda565b6040519060008260075491610f7e83610e3a565b80835292600190818116908115610f485750600114610fa45750610ee792500383610e74565b6007600090815291507fa66cc928b5edb82af9bd49922954155ab7b0942694bea4ce44661d9a8736c6885b848310610fe85750610ee7935050810160200138610eda565b81935090816020925483858a01015201910190918592610fcf565b604051906000826009549161101783610e3a565b80835292600190818116908115610f48575060011461103d5750610ee792500383610e74565b6009600090815291507f6e1540171b6c0c960b71a7020d9f60077f6af931a8bbf590da0223dacf75c7af5b8483106110815750610ee7935050810160200138610eda565b81935090816020925483858a01015201910190918592611068565b60405190600082600854916110b083610e3a565b80835292600190818116908115610f4857506001146110d65750610ee792500383610e74565b6008600090815291507ff3f7a9fe364faab93b216da50a3214154f22a0a2b415b23a84c8169e8b636ee35b84831061111a5750610ee7935050810160200138610eda565b81935090816020925483858a01015201910190918592611101565b604051906000826004549161114983610e3a565b80835292600190818116908115610f48575060011461116f5750610ee792500383610e74565b6004600090815291507f8a35acfbc15ff81a39ae7d344fd709f28e8600b4aa8c65c6b64bfe7fe36bd19b5b8483106111b35750610ee7935050810160200138610eda565b81935090816020925483858a0101520191019091859261119a565b919082519283825260005b8481106111fa575050826000602080949584010152601f8019910116010190565b6020818301810151848301820152016111d9565b81601f82011215610de55780359067ffffffffffffffff8211610e965760405192611243601f8401601f191660200185610e74565b82845260208383010111610de557816000926020809301838601378301015290565b9190820180921161127257565b634e487b7160e01b600052601160045260246000fd5b9190820391821161127257565b6001600160a01b03808216600081815260208190526040812054909591949193848210611303575060209284926112dd60008051602061141c83398151915296604094611288565b878952888652838920551695868152206112f8828254611265565b9055604051908152a3565b60405163db42144d60e01b81526001600160a01b03919091166004820152602481018590526044810191909152606490fd5b909160207f8c5be1e5ebec7d5bd14f71427d1e84f3dd0314c0f7b2291e5b200ac8c7c3b9259160018060a01b03809416938460005260018352604060002095169485600052825280604060002055604051908152a3565b9160018060a01b03808416806000526001602052604060002091841691826000526020526040600020549160001983036113c9575b505050505050565b8383106113f25750506113e79392916113e191611288565b91611335565b3880808080806113c1565b91836084936040519363246fb68960e21b85526004850152602484015260448301526064820152fdfeddf252ad1be2c89b69c2b068fc378daa952ba7f163c4a11628f55a4df523b3efa2646970667358221220548d2e604a6212a6a103880f9d6315773aef22b9642b9f57d86ad1fede4161c064736f6c63430008140033a66cc928b5edb82af9bd49922954155ab7b0942694bea4ce44661d9a8736c688",
  "linkReferences": {},
  "deployedLinkReferences": {}
}