{"src/contracts/RWAToken.sol":{"RWAToken":{"abi":[{"inputs":[{"internalType":"string","name":"_name","type":"string"},{"internalType":"string","name":"_symbol","type":"string"},{"internalType":"uint8","name":"_decimals","type":"uint8"},{"internalType":"uint256","name":"_initialSupply","type":"uint256"},{"internalType":"address","name":"_owner","type":"address"},{"internalType":"string","name":"_assetType","type":"string"},{"internalType":"string","name":"_assetLocation","type":"string"},{"internalType":"uint256","name":"_assetValue","type":"uint256"}],"stateMutability":"nonpayable","type":"constructor"},{"inputs":[],"name":"ApproveFromZeroAddress","type":"error"},{"inputs":[],"name":"ApproveToZeroAddress","type":"error"},{"inputs":[{"internalType":"address","name":"owner","type":"address"},{"internalType":"address","name":"spender","type":"address"},{"internalType":"uint256","name":"requested","type":"uint256"},{"internalType":"uint256","name":"available","type":"uint256"}],"name":"InsufficientAllowance","type":"error"},{"inputs":[{"internalType":"address","name":"account","type":"address"},{"internalType":"uint256","name":"requested","type":"uint256"},{"internalType":"uint256","name":"available","type":"uint256"}],"name":"InsufficientBalance","type":"error"},{"inputs":[],"name":"InvalidAddress","type":"error"},{"inputs":[],"name":"InvalidAmount","type":"error"},{"inputs":[],"name":"NotFactory","type":"error"},{"inputs":[],"name":"NotOwner","type":"error"},{"inputs":[],"name":"TokenPausedError","type":"error"},{"inputs":[],"name":"TransferFromZeroAddress","type":"error"},{"inputs":[],"name":"TransferToZeroAddress","type":"error"},{"anonymous":false,"inputs":[{"indexed":true,"internalType":"address","name":"owner","type":"address"},{"indexed":true,"internalType":"address","name":"spender","type":"address"},{"indexed":false,"internalType":"uint256","name":"value","type":"uint256"}],"name":"Approval","type":"event"},{"anonymous":false,"inputs":[{"indexed":false,"internalType":"string","name":"newAssetType","type":"string"},{"indexed":false,"internalType":"uint256","name":"newAssetValue","type":"uint256"}],"name":"AssetUpdated","type":"event"},{"anonymous":false,"inputs":[{"indexed":true,"internalType":"address","name":"verifier","type":"address"}],"name":"AssetVerified","type":"event"},{"anonymous":false,"inputs":[{"indexed":true,"internalType":"address","name":"previousOwner","type":"address"},{"indexed":true,"internalType":"address","name":"newOwner","type":"address"}],"name":"OwnershipTransferred","type":"event"},{"anonymous":false,"inputs":[{"indexed":true,"internalType":"address","name":"pauser","type":"address"}],"name":"TokenPaused","type":"event"},{"anonymous":false,"inputs":[{"indexed":true,"internalType":"address","name":"unpauser","type":"address"}],"name":"TokenUnpaused","type":"event"},{"anonymous":false,"inputs":[{"indexed":true,"internalType":"address","name":"from","type":"address"},{"indexed":false,"internalType":"uint256","name":"amount","type":"uint256"}],"name":"TokensBurned","type":"event"},{"anonymous":false,"inputs":[{"indexed":true,"internalType":"address","name":"to","type":"address"},{"indexed":false,"internalType":"uint256","name":"amount","type":"uint256"}],"name":"TokensMinted","type":"event"},{"anonymous":false,"inputs":[{"indexed":true,"internalType":"address","name":"from","type":"address"},{"indexed":true,"internalType":"address","name":"to","type":"address"},{"indexed":false,"internalType":"uint256","name":"value","type":"uint256"}],"name":"Transfer","type":"event"},{"inputs":[{"internalType":"address","name":"ownerAddr","type":"address"},{"internalType":"address","name":"spender","type":"address"}],"name":"allowance","outputs":[{"internalType":"uint256","name":"","type":"uint256"}],"stateMutability":"view","type":"function"},{"inputs":[{"internalType":"address","name":"spender","type":"address"},{"internalType":"uint256","name":"amount","type":"uint256"}],"name":"approve","outputs":[{"internalType":"bool","name":"","type":"bool"}],"stateMutability":"nonpayable","type":"function"},{"inputs":[],"name":"assetLocation","outputs":[{"internalType":"string","name":"","type":"string"}],"stateMutability":"view","type":"function"},{"inputs":[],"name":"assetType","outputs":[{"internalType":"string","name":"","type":"string"}],"stateMutability":"view","type":"function"},{"inputs":[],"name":"assetValue","outputs":[{"internalType":"uint256","name":"","type":"uint256"}],"stateMutability":"view","type":"function"},{"inputs":[{"internalType":"address","name":"account","type":"address"}],"name":"balanceOf","outputs":[{"internalType":"uint256","name":"","type":"uint256"}],"stateMutability":"view","type":"function"},{"inputs":[{"internalType":"uint256","name":"amount","type":"uint256"}],"name":"burn","outputs":[],"stateMutability":"nonpayable","type":"function"},{"inputs":[{"internalType":"address","name":"account","type":"address"},{"internalType":"uint256","name":"amount","type":"uint256"}],"name":"burnFrom","outputs":[],"stateMutability":"nonpayable","type":"function"},{"inputs":[],"name":"decimals","outputs":[{"internalType":"uint8","name":"","type":"uint8"}],"stateMutability":"view","type":"function"},{"inputs":[],"name":"factory","outputs":[{"internalType":"address","name":"","type":"address"}],"stateMutability":"view","type":"function"},{"inputs":[],"name":"getAssetInfo","outputs":[{"internalType":"string","name":"_assetType","type":"string"},{"internalType":"string","name":"_assetLocation","type":"string"},{"internalType":"uint256","name":"_assetValue","type":"uint256"},{"internalType":"bool","name":"_verified","type":"bool"},{"internalType":"string","name":"_legalDocumentHash","type":"string"}],"stateMutability":"view","type":"function"},{"inputs":[{"internalType":"address","name":"account","type":"address"}],"name":"getFormattedBalance","outputs":[{"internalType":"uint256","name":"","type":"uint256"}],"stateMutability":"view","type":"function"},{"inputs":[],"name":"getTokenInfo","outputs":[{"internalType":"string","name":"_name","type":"string"},{"internalType":"string","name":"_symbol","type":"string"},{"internalType":"uint8","name":"_decimals","type":"uint8"},{"internalType":"uint256","name":"_totalSupply","type":"uint256"},{"internalType":"address","name":"_owner","type":"address"},{"internalType":"bool","name":"_paused","type":"bool"}],"stateMutability":"view","type":"function"},{"inputs":[{"internalType":"address","name":"account","type":"address"},{"internalType":"uint256","name":"amount","type":"uint256"}],"name":"hasSufficientBalance","outputs":[{"internalType":"bool","name":"","type":"bool"}],"stateMutability":"view","type":"function"},{"inputs":[],"name":"legalDocumentHash","outputs":[{"internalType":"string","name":"","type":"string"}],"stateMutability":"view","type":"function"},{"inputs":[{"internalType":"address","name":"to","type":"address"},{"internalType":"uint256","name":"amount","type":"uint256"}],"name":"mint","outputs":[],"stateMutability":"nonpayable","type":"function"},{"inputs":[],"name":"name","outputs":[{"internalType":"string","name":"","type":"string"}],"stateMutability":"view","type":"function"},{"inputs":[],"name":"owner","outputs":[{"internalType":"address","name":"","type":"address"}],"stateMutability":"view","type":"function"},{"inputs":[],"name":"pause","outputs":[],"stateMutability":"nonpayable","type":"function"},{"inputs":[],"name":"paused","outputs":[{"internalType":"bool","name":"","type":"bool"}],"stateMutability":"view","type":"function"},{"inputs":[],"name":"symbol","outputs":[{"internalType":"string","name":"","type":"string"}],"stateMutability":"view","type":"function"},{"inputs":[],"name":"totalSupply","outputs":[{"internalType":"uint256","name":"","type":"uint256"}],"stateMutability":"view","type":"function"},{"inputs":[{"internalType":"address","name":"to","type":"address"},{"internalType":"uint256","name":"amount","type":"uint256"}],"name":"transfer","outputs":[{"internalType":"bool","name":"","type":"bool"}],"stateMutability":"nonpayable","type":"function"},{"inputs":[{"internalType":"address","name":"from","type":"address"},{"internalType":"address","name":"to","type":"address"},{"internalType":"uint256","name":"amount","type":"uint256"}],"name":"transferFrom","outputs":[{"internalType":"bool","name":"","type":"bool"}],"stateMutability":"nonpayable","type":"function"},{"inputs":[{"internalType":"address","name":"newOwner","type":"address"}],"name":"transferOwnership","outputs":[],"stateMutability":"nonpayable","type":"function"},{"inputs":[],"name":"unpause","outputs":[],"stateMutability":"nonpayable","type":"function"},{"inputs":[{"internalType":"string","name":"_assetType","type":"string"},{"internalType":"uint256","name":"_assetValue","type":"uint256"},{"internalType":"string","name":"_legalDocumentHash","type":"string"}],"name":"updateAssetInfo","outputs":[],"stateMutability":"nonpayable","type":"function"},{"inputs":[],"name":"verified","outputs":[{"internalType":"bool","name":"","type":"bool"}],"stateMutability":"view","type":"function"},{"inputs":[],"name":"verifyAsset","outputs":[],"stateMutability":"nonpayable","type":"function"}],"evm":{"bytecode":{"linkReferences":{},"object":"608060405234620007ae5762001cdd803803806200001d81620007b3565b928339810161010082820312620007ae5781516001600160401b038111620007ae57816200004d918401620007d9565b60208301519091906001600160401b038111620007ae578162000072918501620007d9565b9060408401519260ff84168403620007ae5760608501516080860151909490936001600160a01b0385168503620007ae5760a08701516001600160401b038111620007ae5784620000c5918901620007d9565b60c08801519094906001600160401b038111620007ae5760e091620000ec918a01620007d9565b970151926001600160a01b038616156200079c578051906001600160401b038211620004665760035490600182811c9216801562000791575b6020831014620004455781601f8493116200071f575b50602090601f8311600114620006905760009262000684575b50508160011b916000199060031b1c1916176003555b8051906001600160401b038211620004665760045490600182811c9216801562000679575b6020831014620004455781601f84931162000607575b50602090601f831160011462000578576000926200056c575b50508160011b916000199060031b1c1916176004555b600580546001600160a81b03191660ff90921691909117600885811b610100600160a81b0316919091178255600680546001600160a01b03191633179055835191939091906001600160401b038211620004665760075490600182811c9216801562000561575b6020831014620004455781601f84931162000502575b50602090601f831160011462000488576000926200047c575b50508160011b916000199060031b1c1916176007555b85516001600160401b03811162000466578154600181811c911680156200045b575b60208210146200044557601f8111620003fa575b506020601f82116001146200038a57819060ff9697986000926200037e575b50508160011b916000199060031b1c19161790555b600a555416604d81116200036857600a0a91828102928184041490151715620003685760028290556001600160a01b031660008181526020818152604080832085905551938452919290917fddf252ad1be2c89b69c2b068fc378daa952ba7f163c4a11628f55a4df523b3ef91a360405161147190816200084c8239f35b634e487b7160e01b600052601160045260246000fd5b015190503880620002d5565b601f198216978360005260206000209860005b818110620003e157509160ff97989991846001959410620003c7575b505050811b019055620002ea565b015160001960f88460031b161c19169055388080620003b9565b838301518b556001909a0199602093840193016200039d565b826000526020600020601f8301861c810191602084106200043a575b601f01861c01905b8181106200042d5750620002b6565b600081556001016200041e565b909150819062000416565b634e487b7160e01b600052602260045260246000fd5b90607f1690620002a2565b634e487b7160e01b600052604160045260246000fd5b0151905038806200026a565b6007600090815260008051602062001cbd8339815191529350601f198516905b818110620004e95750908460019594939210620004cf575b505050811b0160075562000280565b015160001960f88460031b161c19169055388080620004c0565b92936020600181928786015181550195019301620004a8565b600760005290915060008051602062001cbd833981519152601f8401871c81016020851062000559575b90849392915b601f8301891c820181106200054957505062000251565b6000815585945060010162000532565b50806200052c565b91607f16916200023b565b015190503880620001be565b6004600090815293507f8a35acfbc15ff81a39ae7d344fd709f28e8600b4aa8c65c6b64bfe7fe36bd19b91905b601f1984168510620005eb576001945083601f19811610620005d1575b505050811b01600455620001d4565b015160001960f88460031b161c19169055388080620005c2565b81810151835560209485019460019093019290910190620005a5565b60046000529091507f8a35acfbc15ff81a39ae7d344fd709f28e8600b4aa8c65c6b64bfe7fe36bd19b601f840160051c81016020851062000671575b90849392915b601f830160051c8201811062000661575050620001a5565b6000815585945060010162000649565b508062000643565b91607f16916200018f565b01519050388062000154565b6003600090815293507fc2575a0e9e593c00f959f8c92f12db2869c3395a3b0502d05e2516446f71f85b91905b601f198416851062000703576001945083601f19811610620006e9575b505050811b016003556200016a565b015160001960f88460031b161c19169055388080620006da565b81810151835560209485019460019093019290910190620006bd565b60036000529091507fc2575a0e9e593c00f959f8c92f12db2869c3395a3b0502d05e2516446f71f85b601f840160051c81016020851062000789575b90849392915b601f830160051c82018110620007795750506200013b565b6000815585945060010162000761565b50806200075b565b91607f169162000125565b60405163e6c4247b60e01b8152600490fd5b600080fd5b6040519190601f01601f191682016001600160401b038111838210176200046657604052565b919080601f84011215620007ae5782516001600160401b03811162000466576020906200080f601f8201601f19168301620007b3565b92818452828287010111620007ae5760005b8181106200083757508260009394955001015290565b85810183015184820184015282016200082156fe6040608081526004908136101561001557600080fd5b600091823560e01c806305c738d4146105fd57806306fdde0314610db1578063095ea7b314610d7557806318160ddd14610d565780631bd7342c146109ee57806323b872dd14610949578063313ce5671461092757806336c43ee0146108c05780633f4ba83a146108635780633fe3347a1461084557806340c10f191461077857806342966c68146106b457806351cc7b6b146106965780635c975abb1461066f5780635e3109e71461060257806370a08231146105fd578063776cdb7c146105df57806379cc6790146104d15780638456cb59146104615780638da5cb5b1461043457806395d89b41146103ff578063a71891c3146103e0578063a9059cbb1461035d578063abb1dc44146102db578063bbb82d89146102b7578063c45a01551461028e578063d5395d2b14610253578063dd62ed3e146102065763f2fde38b1461016057600080fd5b3461020257602036600319011261020257610179610dcf565b6005549060018060a01b0392838360081c16938433036101f35782169485156101e6575050610100600160a81b031990911660089190911b610100600160a81b0316176005557f8be0079c531659141344cd1fd0a4f28419497f9722a3daafe3b4186f6b6457e08380a380f35b5163e6c4247b60e01b8152fd5b5084516330cd747160e01b8152fd5b8280fd5b50503461024f578060031936011261024f5780602092610224610dcf565b61022c610dea565b6001600160a01b0391821683526001865283832091168252845220549051908152f35b5080fd5b50503461024f578060031936011261024f576020916001600160a01b03610278610dcf565b1681528083528160243591205410159051908152f35b50503461024f578160031936011261024f5760065490516001600160a01b039091168152602090f35b50503461024f578160031936011261024f5760209060ff600b541690519015158152f35b50503461024f578160031936011261024f57906103229160ff60055460065490610303610eac565b9461033061030f611135565b865198899860c08a5260c08a01906111ce565b9088820360208a01526111ce565b9484831690870152606086015260018060a01b039060081c16608085015260a01c16151560a08301520390f35b5091346103dd57816003193601126103dd5750610378610dcf565b6024359260ff60065460a01c166103cf5783156103c1576001600160a01b038216156103b357506020926103ac9133611295565b5160018152f35b825163e6c4247b60e01b8152fd5b825163162908e360e11b8152fd5b825163f61d011160e01b8152fd5b80fd5b50503461024f578160031936011261024f57602090600a549051908152f35b50503461024f578160031936011261024f576104309061041d611135565b90519182916020835260208301906111ce565b0390f35b50503461024f578160031936011261024f57600554905160089190911c6001600160a01b03168152602090f35b50903461020257826003193601126102025760055460081c6001600160a01b031633036104c4576006805460ff60a01b1916600160a01b17905582337ff017c0de579727a3cd3ee18077ee8b4c43bf21892985952d1d5a0d52f983502d8280a280f35b516330cd747160e01b8152fd5b50346102025781600319360112610202576104ea610dcf565b916024359182156105d1576001600160a01b0384169384156105c25761051184338361138c565b84865285602052828620549184831061058e57505091602091610555827ffd38818f5291bf0bb3a2a48aadc06ba8757865d1dabd804585338aab3009dcb695611288565b8587528684528187205561056b82600254611288565b600255858560008051602061141c833981519152858451868152a351908152a280f35b835163db42144d60e01b81526001600160a01b03909216908201908152602081018590526040810183905281906060010390fd5b50905163e6c4247b60e01b8152fd5b905163162908e360e11b8152fd5b50503461024f578160031936011261024f576104309061041d61109c565b610e00565b50503461024f578160031936011261024f5761032290610430600a549160ff600b54169261062e610f6a565b9361063761109c565b91610657610643611003565b93855198899860a08a5260a08a01906111ce565b938601521515606085015283820360808501526111ce565b50503461024f578160031936011261024f5760209060ff60065460a01c1690519015158152f35b50503461024f578160031936011261024f576104309061041d611003565b5090346102025760203660031901126102025781359182156105d15733845283602052818420549083821061074f5750826106ee91611288565b338452836020528184205561070582600254611288565b60025582815183815260008051602061141c83398151915260203392a3519081527ffd38818f5291bf0bb3a2a48aadc06ba8757865d1dabd804585338aab3009dcb660203392a280f35b915163db42144d60e01b8152339281019283526020830193909352604082015281906060010390fd5b509034610202578060031936011261020257610792610dcf565b60055460243592916001600160a01b039160081c8216330361083557169283156108275782156105d15750816020916107ee7f3f2c9d57c068687834f0de942a9babb9e5acab57d516d3480a3c16ee165a427394600254611265565b600255848652858352808620610805838254611265565b9055848660008051602061141c833981519152858451868152a351908152a280f35b905163e6c4247b60e01b8152fd5b82516330cd747160e01b81528590fd5b50503461024f578160031936011261024f576104309061041d610f6a565b50903461020257826003193601126102025760055460081c6001600160a01b031633036104c4576006805460ff60a01b1916905582337ff38578ed892ce2ce655ca8ae03c73464ad74915a1331a9b4085e637534daeedf8280a280f35b5090346102025782600319360112610202576006546001600160a01b0316330361091a5782600160ff19600b541617600b55337f0be95955bd2d9141bff4014af611adc8cc414a3c5308dfbff6ad1fcda6e808078280a280f35b51631966391b60e11b8152fd5b50503461024f578160031936011261024f5760209060ff600554169051908152f35b5091346103dd5760603660031901126103dd5750610965610dcf565b61096d610dea565b906044359360ff60065460a01c166109e05784156109d2576001600160a01b03838116156109c3578216156109b55750926103ac916020946109b083338361138c565b611295565b835163e6c4247b60e01b8152fd5b50835163e6c4247b60e01b8152fd5b835163162908e360e11b8152fd5b835163f61d011160e01b8152fd5b5082903461024f57606036600319011261024f5767ffffffffffffffff928135848111610d5257610a22903690840161120e565b9160243590604435868111610d4e57610a3e903690830161120e565b60055460081c6001600160a01b03163303610d3f57845191878311610c3e57610a68600754610e3a565b92601f93848111610cdf575b50806020858211600114610c5c578991610c51575b508160011b916000199060031b1c1916176007555b83600a558151978811610c3e5750610ab7600954610e3a565b828111610bde575b506020918711600114610b395795809186977fbc6f5cf2ece628f201d4619ae75ccbdaaba2626f33d15ed417e92c36c83ee53f9792610b2e575b50508160011b916000199060031b1c1916176009555b610b2282519383859485528401906111ce565b9060208301520390a180f35b015190508780610af9565b600986527f6e1540171b6c0c960b71a7020d9f60077f6af931a8bbf590da0223dacf75c7af9190601f198816875b818110610bc657509160019391897fbc6f5cf2ece628f201d4619ae75ccbdaaba2626f33d15ed417e92c36c83ee53f999a9410610bad575b505050811b01600955610b0f565b015160001960f88460031b161c19169055878080610b9f565b92936020600181928786015181550195019301610b67565b600987527f6e1540171b6c0c960b71a7020d9f60077f6af931a8bbf590da0223dacf75c7af83808a0160051c82019260208b10610c35575b0160051c01905b818110610c2a5750610abf565b878155600101610c1d565b92508192610c16565b634e487b7160e01b875260419052602486fd5b90508701518a610a89565b60078a527fa66cc928b5edb82af9bd49922954155ab7b0942694bea4ce44661d9a8736c6889150601f1983168a5b8a828210610cc75750509083600194939210610cae575b5050811b01600755610a9e565b89015160001960f88460031b161c191690558a80610ca1565b60018495602093958493015181550194019201610c8a565b600789527fa66cc928b5edb82af9bd49922954155ab7b0942694bea4ce44661d9a8736c6888580840160051c82019260208510610d36575b0160051c01905b818110610d2b5750610a74565b898155600101610d1e565b92508192610d17565b5082516330cd747160e01b8152fd5b8580fd5b8380fd5b50503461024f578160031936011261024f576020906002549051908152f35b5091346103dd57816003193601126103dd5750610d90610dcf565b916001600160a01b0383161561082757506103ac6020926024359033611335565b50503461024f578160031936011261024f576104309061041d610eac565b600435906001600160a01b0382168203610de557565b600080fd5b602435906001600160a01b0382168203610de557565b34610de5576020366003190112610de5576001600160a01b03610e21610dcf565b1660005260006020526020604060002054604051908152f35b90600182811c92168015610e6a575b6020831014610e5457565b634e487b7160e01b600052602260045260246000fd5b91607f1691610e49565b90601f8019910116810190811067ffffffffffffffff821117610e9657604052565b634e487b7160e01b600052604160045260246000fd5b6040519060008260035491610ec083610e3a565b80835292600190818116908115610f485750600114610ee9575b50610ee792500383610e74565b565b6003600090815291507fc2575a0e9e593c00f959f8c92f12db2869c3395a3b0502d05e2516446f71f85b5b848310610f2d5750610ee7935050810160200138610eda565b81935090816020925483858a01015201910190918592610f14565b905060209250610ee794915060ff191682840152151560051b82010138610eda565b6040519060008260075491610f7e83610e3a565b80835292600190818116908115610f485750600114610fa45750610ee792500383610e74565b6007600090815291507fa66cc928b5edb82af9bd49922954155ab7b0942694bea4ce44661d9a8736c6885b848310610fe85750610ee7935050810160200138610eda565b81935090816020925483858a01015201910190918592610fcf565b604051906000826009549161101783610e3a565b80835292600190818116908115610f48575060011461103d5750610ee792500383610e74565b6009600090815291507f6e1540171b6c0c960b71a7020d9f60077f6af931a8bbf590da0223dacf75c7af5b8483106110815750610ee7935050810160200138610eda565b81935090816020925483858a01015201910190918592611068565b60405190600082600854916110b083610e3a565b80835292600190818116908115610f4857506001146110d65750610ee792500383610e74565b6008600090815291507ff3f7a9fe364faab93b216da50a3214154f22a0a2b415b23a84c8169e8b636ee35b84831061111a5750610ee7935050810160200138610eda565b81935090816020925483858a01015201910190918592611101565b604051906000826004549161114983610e3a565b80835292600190818116908115610f48575060011461116f5750610ee792500383610e74565b6004600090815291507f8a35acfbc15ff81a39ae7d344fd709f28e8600b4aa8c65c6b64bfe7fe36bd19b5b8483106111b35750610ee7935050810160200138610eda565b81935090816020925483858a0101520191019091859261119a565b919082519283825260005b8481106111fa575050826000602080949584010152601f8019910116010190565b6020818301810151848301820152016111d9565b81601f82011215610de55780359067ffffffffffffffff8211610e965760405192611243601f8401601f191660200185610e74565b82845260208383010111610de557816000926020809301838601378301015290565b9190820180921161127257565b634e487b7160e01b600052601160045260246000fd5b9190820391821161127257565b6001600160a01b03808216600081815260208190526040812054909591949193848210611303575060209284926112dd60008051602061141c83398151915296604094611288565b878952888652838920551695868152206112f8828254611265565b9055604051908152a3565b60405163db42144d60e01b81526001600160a01b03919091166004820152602481018590526044810191909152606490fd5b909160207f8c5be1e5ebec7d5bd14f71427d1e84f3dd0314c0f7b2291e5b200ac8c7c3b9259160018060a01b03809416938460005260018352604060002095169485600052825280604060002055604051908152a3565b9160018060a01b03808416806000526001602052604060002091841691826000526020526040600020549160001983036113c9575b505050505050565b8383106113f25750506113e79392916113e191611288565b91611335565b3880808080806113c1565b91836084936040519363246fb68960e21b85526004850152602484015260448301526064820152fdfeddf252ad1be2c89b69c2b068fc378daa952ba7f163c4a11628f55a4df523b3efa2646970667358221220548d2e604a6212a6a103880f9d6315773aef22b9642b9f57d86ad1fede4161c064736f6c63430008140033a66cc928b5edb82af9bd49922954155ab7b0942694bea4ce44661d9a8736c688","opcodes":"PUSH1 0x80 PUSH1 0x40 MSTORE CALLVALUE PUSH3 0x7AE JUMPI PUSH3 0x1CDD DUP1 CODESIZE SUB DUP1 PUSH3 0x1D DUP2 PUSH3 0x7B3 JUMP JUMPDEST SWAP3 DUP4 CODECOPY DUP2 ADD PUSH2 0x100 DUP3 DUP3 SUB SLT PUSH3 0x7AE JUMPI DUP2 MLOAD PUSH1 0x1 PUSH1 0x1 PUSH1 0x40 SHL SUB DUP2 GT PUSH3 0x7AE JUMPI DUP2 PUSH3 0x4D SWAP2 DUP5 ADD PUSH3 0x7D9 JUMP JUMPDEST PUSH1 0x20 DUP4 ADD MLOAD SWAP1 SWAP2 SWAP1 PUSH1 0x1 PUSH1 0x1 PUSH1 0x40 SHL SUB DUP2 GT PUSH3 0x7AE JUMPI DUP2 PUSH3 0x72 SWAP2 DUP6 ADD PUSH3 0x7D9 JUMP JUMPDEST SWAP1 PUSH1 0x40 DUP5 ADD MLOAD SWAP3 PUSH1 0xFF DUP5 AND DUP5 SUB PUSH3 0x7AE JUMPI PUSH1 0x60 DUP6 ADD MLOAD PUSH1 0x80 DUP7 ADD MLOAD SWAP1 SWAP5 SWAP1 SWAP4 PUSH1 0x1 PUSH1 0x1 PUSH1 0xA0 SHL SUB DUP6 AND DUP6 SUB PUSH3 0x7AE JUMPI PUSH1 0xA0 DUP8 ADD MLOAD PUSH1 0x1 PUSH1 0x1 PUSH1 0x40 SHL SUB DUP2 GT PUSH3 0x7AE JUMPI DUP5 PUSH3 0xC5 SWAP2 DUP10 ADD PUSH3 0x7D9 JUMP JUMPDEST PUSH1 0xC0 DUP9 ADD MLOAD SWAP1 SWAP5 SWAP1 PUSH1 0x1 PUSH1 0x1 PUSH1 0x40 SHL SUB DUP2 GT PUSH3 0x7AE JUMPI PUSH1 0xE0 SWAP2 PUSH3 0xEC SWAP2 DUP11 ADD PUSH3 0x7D9 JUMP JUMPDEST SWAP8 ADD MLOAD SWAP3 PUSH1 0x1 PUSH1 0x1 PUSH1 0xA0 SHL SUB DUP7 AND ISZERO PUSH3 0x79C JUMPI DUP1 MLOAD SWAP1 PUSH1 0x1 PUSH1 0x1 PUSH1 0x40 SHL SUB DUP3 GT PUSH3 0x466 JUMPI PUSH1 0x3 SLOAD SWAP1 PUSH1 0x1 DUP3 DUP2 SHR SWAP3 AND DUP1 ISZERO PUSH3 0x791 JUMPI JUMPDEST PUSH1 0x20 DUP4 LT EQ PUSH3 0x445 JUMPI DUP2 PUSH1 0x1F DUP5 SWAP4 GT PUSH3 0x71F JUMPI JUMPDEST POP PUSH1 0x20 SWAP1 PUSH1 0x1F DUP4 GT PUSH1 0x1 EQ PUSH3 0x690 JUMPI PUSH1 0x0 SWAP3 PUSH3 0x684 JUMPI JUMPDEST POP POP DUP2 PUSH1 0x1 SHL SWAP2 PUSH1 0x0 NOT SWAP1 PUSH1 0x3 SHL SHR NOT AND OR PUSH1 0x3 SSTORE JUMPDEST DUP1 MLOAD SWAP1 PUSH1 0x1 PUSH1 0x1 PUSH1 0x40 SHL SUB DUP3 GT PUSH3 0x466 JUMPI PUSH1 0x4 SLOAD SWAP1 PUSH1 0x1 DUP3 DUP2 SHR SWAP3 AND DUP1 ISZERO PUSH3 0x679 JUMPI JUMPDEST PUSH1 0x20 DUP4 LT EQ PUSH3 0x445 JUMPI DUP2 PUSH1 0x1F DUP5 SWAP4 GT PUSH3 0x607 JUMPI JUMPDEST POP PUSH1 0x20 SWAP1 PUSH1 0x1F DUP4 GT PUSH1 0x1 EQ PUSH3 0x578 JUMPI PUSH1 0x0 SWAP3 PUSH3 0x56C JUMPI JUMPDEST POP POP DUP2 PUSH1 0x1 SHL SWAP2 PUSH1 0x0 NOT SWAP1 PUSH1 0x3 SHL SHR NOT AND OR PUSH1 0x4 SSTORE JUMPDEST PUSH1 0x5 DUP1 SLOAD PUSH1 0x1 PUSH1 0x1 PUSH1 0xA8 SHL SUB NOT AND PUSH1 0xFF SWAP1 SWAP3 AND SWAP2 SWAP1 SWAP2 OR PUSH1 0x8 DUP6 DUP2 SHL PUSH2 0x100 PUSH1 0x1 PUSH1 0xA8 SHL SUB AND SWAP2 SWAP1 SWAP2 OR DUP3 SSTORE PUSH1 0x6 DUP1 SLOAD PUSH1 0x1 PUSH1 0x1 PUSH1 0xA0 SHL SUB NOT AND CALLER OR SWAP1 SSTORE DUP4 MLOAD SWAP2 SWAP4 SWAP1 SWAP2 SWAP1 PUSH1 0x1 PUSH1 0x1 PUSH1 0x40 SHL SUB DUP3 GT PUSH3 0x466 JUMPI PUSH1 0x7 SLOAD SWAP1 PUSH1 0x1 DUP3 DUP2 SHR SWAP3 AND DUP1 ISZERO PUSH3 0x561 JUMPI JUMPDEST PUSH1 0x20 DUP4 LT EQ PUSH3 0x445 JUMPI DUP2 PUSH1 0x1F DUP5 SWAP4 GT PUSH3 0x502 JUMPI JUMPDEST POP PUSH1 0x20 SWAP1 PUSH1 0x1F DUP4 GT PUSH1 0x1 EQ PUSH3 0x488 JUMPI PUSH1 0x0 SWAP3 PUSH3 0x47C JUMPI JUMPDEST POP POP DUP2 PUSH1 0x1 SHL SWAP2 PUSH1 0x0 NOT SWAP1 PUSH1 0x3 SHL SHR NOT AND OR PUSH1 0x7 SSTORE JUMPDEST DUP6 MLOAD PUSH1 0x1 PUSH1 0x1 PUSH1 0x40 SHL SUB DUP2 GT PUSH3 0x466 JUMPI DUP2 SLOAD PUSH1 0x1 DUP2 DUP2 SHR SWAP2 AND DUP1 ISZERO PUSH3 0x45B JUMPI JUMPDEST PUSH1 0x20 DUP3 LT EQ PUSH3 0x445 JUMPI PUSH1 0x1F DUP2 GT PUSH3 0x3FA JUMPI JUMPDEST POP PUSH1 0x20 PUSH1 0x1F DUP3 GT PUSH1 0x1 EQ PUSH3 0x38A JUMPI DUP2 SWAP1 PUSH1 0xFF SWAP7 SWAP8 SWAP9 PUSH1 0x0 SWAP3 PUSH3 0x37E JUMPI JUMPDEST POP POP DUP2 PUSH1 0x1 SHL SWAP2 PUSH1 0x0 NOT SWAP1 PUSH1 0x3 SHL SHR NOT AND OR SWAP1 SSTORE JUMPDEST PUSH1 0xA SSTORE SLOAD AND PUSH1 0x4D DUP2 GT PUSH3 0x368 JUMPI PUSH1 0xA EXP SWAP2 DUP3 DUP2 MUL SWAP3 DUP2 DUP5 DIV EQ SWAP1 ISZERO OR ISZERO PUSH3 0x368 JUMPI PUSH1 0x2 DUP3 SWAP1 SSTORE PUSH1 0x1 PUSH1 0x1 PUSH1 0xA0 SHL SUB AND PUSH1 0x0 DUP2 DUP2 MSTORE PUSH1 0x20 DUP2 DUP2 MSTORE PUSH1 0x40 DUP1 DUP4 KECCAK256 DUP6 SWAP1 SSTORE MLOAD SWAP4 DUP5 MSTORE SWAP2 SWAP3 SWAP1 SWAP2 PUSH32 0xDDF252AD1BE2C89B69C2B068FC378DAA952BA7F163C4A11628F55A4DF523B3EF SWAP2 LOG3 PUSH1 0x40 MLOAD PUSH2 0x1471 SWAP1 DUP2 PUSH3 0x84C DUP3 CODECOPY RETURN JUMPDEST PUSH4 0x4E487B71 PUSH1 0xE0 SHL PUSH1 0x0 MSTORE PUSH1 0x11 PUSH1 0x4 MSTORE PUSH1 0x24 PUSH1 0x0 REVERT JUMPDEST ADD MLOAD SWAP1 POP CODESIZE DUP1 PUSH3 0x2D5 JUMP JUMPDEST PUSH1 0x1F NOT DUP3 AND SWAP8 DUP4 PUSH1 0x0 MSTORE PUSH1 0x20 PUSH1 0x0 KECCAK256 SWAP9 PUSH1 0x0 JUMPDEST DUP2 DUP2 LT PUSH3 0x3E1 JUMPI POP SWAP2 PUSH1 0xFF SWAP8 SWAP9 SWAP10 SWAP2 DUP5 PUSH1 0x1 SWAP6 SWAP5 LT PUSH3 0x3C7 JUMPI JUMPDEST POP POP POP DUP2 SHL ADD SWAP1 SSTORE PUSH3 0x2EA JUMP JUMPDEST ADD MLOAD PUSH1 0x0 NOT PUSH1 0xF8 DUP5 PUSH1 0x3 SHL AND SHR NOT AND SWAP1 SSTORE CODESIZE DUP1 DUP1 PUSH3 0x3B9 JUMP JUMPDEST DUP4 DUP4 ADD MLOAD DUP12 SSTORE PUSH1 0x1 SWAP1 SWAP11 ADD SWAP10 PUSH1 0x20 SWAP4 DUP5 ADD SWAP4 ADD PUSH3 0x39D JUMP JUMPDEST DUP3 PUSH1 0x0 MSTORE PUSH1 0x20 PUSH1 0x0 KECCAK256 PUSH1 0x1F DUP4 ADD DUP7 SHR DUP2 ADD SWAP2 PUSH1 0x20 DUP5 LT PUSH3 0x43A JUMPI JUMPDEST PUSH1 0x1F ADD DUP7 SHR ADD SWAP1 JUMPDEST DUP2 DUP2 LT PUSH3 0x42D JUMPI POP PUSH3 0x2B6 JUMP JUMPDEST PUSH1 0x0 DUP2 SSTORE PUSH1 0x1 ADD PUSH3 0x41E JUMP JUMPDEST SWAP1 SWAP2 POP DUP2 SWAP1 PUSH3 0x416 JUMP JUMPDEST PUSH4 0x4E487B71 PUSH1 0xE0 SHL PUSH1 0x0 MSTORE PUSH1 0x22 PUSH1 0x4 MSTORE PUSH1 0x24 PUSH1 0x0 REVERT JUMPDEST SWAP1 PUSH1 0x7F AND SWAP1 PUSH3 0x2A2 JUMP JUMPDEST PUSH4 0x4E487B71 PUSH1 0xE0 SHL PUSH1 0x0 MSTORE PUSH1 0x41 PUSH1 0x4 MSTORE PUSH1 0x24 PUSH1 0x0 REVERT JUMPDEST ADD MLOAD SWAP1 POP CODESIZE DUP1 PUSH3 0x26A JUMP JUMPDEST PUSH1 0x7 PUSH1 0x0 SWAP1 DUP2 MSTORE PUSH1 0x0 DUP1 MLOAD PUSH1 0x20 PUSH3 0x1CBD DUP4 CODECOPY DUP2 MLOAD SWAP2 MSTORE SWAP4 POP PUSH1 0x1F NOT DUP6 AND SWAP1 JUMPDEST DUP2 DUP2 LT PUSH3 0x4E9 JUMPI POP SWAP1 DUP5 PUSH1 0x1 SWAP6 SWAP5 SWAP4 SWAP3 LT PUSH3 0x4CF JUMPI JUMPDEST POP POP POP DUP2 SHL ADD PUSH1 0x7 SSTORE PUSH3 0x280 JUMP JUMPDEST ADD MLOAD PUSH1 0x0 NOT PUSH1 0xF8 DUP5 PUSH1 0x3 SHL AND SHR NOT AND SWAP1 SSTORE CODESIZE DUP1 DUP1 PUSH3 0x4C0 JUMP JUMPDEST SWAP3 SWAP4 PUSH1 0x20 PUSH1 0x1 DUP2 SWAP3 DUP8 DUP7 ADD MLOAD DUP2 SSTORE ADD SWAP6 ADD SWAP4 ADD PUSH3 0x4A8 JUMP JUMPDEST PUSH1 0x7 PUSH1 0x0 MSTORE SWAP1 SWAP2 POP PUSH1 0x0 DUP1 MLOAD PUSH1 0x20 PUSH3 0x1CBD DUP4 CODECOPY DUP2 MLOAD SWAP2 MSTORE PUSH1 0x1F DUP5 ADD DUP8 SHR DUP2 ADD PUSH1 0x20 DUP6 LT PUSH3 0x559 JUMPI JUMPDEST SWAP1 DUP5 SWAP4 SWAP3 SWAP2 JUMPDEST PUSH1 0x1F DUP4 ADD DUP10 SHR DUP3 ADD DUP2 LT PUSH3 0x549 JUMPI POP POP PUSH3 0x251 JUMP JUMPDEST PUSH1 0x0 DUP2 SSTORE DUP6 SWAP5 POP PUSH1 0x1 ADD PUSH3 0x532 JUMP JUMPDEST POP DUP1 PUSH3 0x52C JUMP JUMPDEST SWAP2 PUSH1 0x7F AND SWAP2 PUSH3 0x23B JUMP JUMPDEST ADD MLOAD SWAP1 POP CODESIZE DUP1 PUSH3 0x1BE JUMP JUMPDEST PUSH1 0x4 PUSH1 0x0 SWAP1 DUP2 MSTORE SWAP4 POP PUSH32 0x8A35ACFBC15FF81A39AE7D344FD709F28E8600B4AA8C65C6B64BFE7FE36BD19B SWAP2 SWAP1 JUMPDEST PUSH1 0x1F NOT DUP5 AND DUP6 LT PUSH3 0x5EB JUMPI PUSH1 0x1 SWAP5 POP DUP4 PUSH1 0x1F NOT DUP2 AND LT PUSH3 0x5D1 JUMPI JUMPDEST POP POP POP DUP2 SHL ADD PUSH1 0x4 SSTORE PUSH3 0x1D4 JUMP JUMPDEST ADD MLOAD PUSH1 0x0 NOT PUSH1 0xF8 DUP5 PUSH1 0x3 SHL AND SHR NOT AND SWAP1 SSTORE CODESIZE DUP1 DUP1 PUSH3 0x5C2 JUMP JUMPDEST DUP2 DUP2 ADD MLOAD DUP4 SSTORE PUSH1 0x20 SWAP5 DUP6 ADD SWAP5 PUSH1 0x1 SWAP1 SWAP4 ADD SWAP3 SWAP1 SWAP2 ADD SWAP1 PUSH3 0x5A5 JUMP JUMPDEST PUSH1 0x4 PUSH1 0x0 MSTORE SWAP1 SWAP2 POP PUSH32 0x8A35ACFBC15FF81A39AE7D344FD709F28E8600B4AA8C65C6B64BFE7FE36BD19B PUSH1 0x1F DUP5 ADD PUSH1 0x5 SHR DUP2 ADD PUSH1 0x20 DUP6 LT PUSH3 0x671 JUMPI JUMPDEST SWAP1 DUP5 SWAP4 SWAP3 SWAP2 JUMPDEST PUSH1 0x1F DUP4 ADD PUSH1 0x5 SHR DUP3 ADD DUP2 LT PUSH3 0x661 JUMPI POP POP PUSH3 0x1A5 JUMP JUMPDEST PUSH1 0x0 DUP2 SSTORE DUP6 SWAP5 POP PUSH1 0x1 ADD PUSH3 0x649 JUMP JUMPDEST POP DUP1 PUSH3 0x643 JUMP JUMPDEST SWAP2 PUSH1 0x7F AND SWAP2 PUSH3 0x18F JUMP JUMPDEST ADD MLOAD SWAP1 POP CODESIZE DUP1 PUSH3 0x154 JUMP JUMPDEST PUSH1 0x3 PUSH1 0x0 SWAP1 DUP2 MSTORE SWAP4 POP PUSH32 0xC2575A0E9E593C00F959F8C92F12DB2869C3395A3B0502D05E2516446F71F85B SWAP2 SWAP1 JUMPDEST PUSH1 0x1F NOT DUP5 AND DUP6 LT PUSH3 0x703 JUMPI PUSH1 0x1 SWAP5 POP DUP4 PUSH1 0x1F NOT DUP2 AND LT PUSH3 0x6E9 JUMPI JUMPDEST POP POP POP DUP2 SHL ADD PUSH1 0x3 SSTORE PUSH3 0x16A JUMP JUMPDEST ADD MLOAD PUSH1 0x0 NOT PUSH1 0xF8 DUP5 PUSH1 0x3 SHL AND SHR NOT AND SWAP1 SSTORE CODESIZE DUP1 DUP1 PUSH3 0x6DA JUMP JUMPDEST DUP2 DUP2 ADD MLOAD DUP4 SSTORE PUSH1 0x20 SWAP5 DUP6 ADD SWAP5 PUSH1 0x1 SWAP1 SWAP4 ADD SWAP3 SWAP1 SWAP2 ADD SWAP1 PUSH3 0x6BD JUMP JUMPDEST PUSH1 0x3 PUSH1 0x0 MSTORE SWAP1 SWAP2 POP PUSH32 0xC2575A0E9E593C00F959F8C92F12DB2869C3395A3B0502D05E2516446F71F85B PUSH1 0x1F DUP5 ADD PUSH1 0x5 SHR DUP2 ADD PUSH1 0x20 DUP6 LT PUSH3 0x789 JUMPI JUMPDEST SWAP1 DUP5 SWAP4 SWAP3 SWAP2 JUMPDEST PUSH1 0x1F DUP4 ADD PUSH1 0x5 SHR DUP3 ADD DUP2 LT PUSH3 0x779 JUMPI POP POP PUSH3 0x13B JUMP JUMPDEST PUSH1 0x0 DUP2 SSTORE DUP6 SWAP5 POP PUSH1 0x1 ADD PUSH3 0x761 JUMP JUMPDEST POP DUP1 PUSH3 0x75B JUMP JUMPDEST SWAP2 PUSH1 0x7F AND SWAP2 PUSH3 0x125 JUMP JUMPDEST PUSH1 0x40 MLOAD PUSH4 0xE6C4247B PUSH1 0xE0 SHL DUP2 MSTORE PUSH1 0x4 SWAP1 REVERT JUMPDEST PUSH1 0x0 DUP1 REVERT JUMPDEST PUSH1 0x40 MLOAD SWAP2 SWAP1 PUSH1 0x1F ADD PUSH1 0x1F NOT AND DUP3 ADD PUSH1 0x1 PUSH1 0x1 PUSH1 0x40 SHL SUB DUP2 GT DUP4 DUP3 LT OR PUSH3 0x466 JUMPI PUSH1 0x40 MSTORE JUMP JUMPDEST SWAP2 SWAP1 DUP1 PUSH1 0x1F DUP5 ADD SLT ISZERO PUSH3 0x7AE JUMPI DUP3 MLOAD PUSH1 0x1 PUSH1 0x1 PUSH1 0x40 SHL SUB DUP2 GT PUSH3 0x466 JUMPI PUSH1 0x20 SWAP1 PUSH3 0x80F PUSH1 0x1F DUP3 ADD PUSH1 0x1F NOT AND DUP4 ADD PUSH3 0x7B3 JUMP JUMPDEST SWAP3 DUP2 DUP5 MSTORE DUP3 DUP3 DUP8 ADD ADD GT PUSH3 0x7AE JUMPI PUSH1 0x0 JUMPDEST DUP2 DUP2 LT PUSH3 0x837 JUMPI POP DUP3 PUSH1 0x0 SWAP4 SWAP5 SWAP6 POP ADD ADD MSTORE SWAP1 JUMP JUMPDEST DUP6 DUP2 ADD DUP4 ADD MLOAD DUP5 DUP3 ADD DUP5 ADD MSTORE DUP3 ADD PUSH3 0x821 JUMP INVALID PUSH1 0x40 PUSH1 0x80 DUP2 MSTORE PUSH1 0x4 SWAP1 DUP2 CALLDATASIZE LT ISZERO PUSH2 0x15 JUMPI PUSH1 0x0 DUP1 REVERT JUMPDEST PUSH1 0x0 SWAP2 DUP3 CALLDATALOAD PUSH1 0xE0 SHR DUP1 PUSH4 0x5C738D4 EQ PUSH2 0x5FD JUMPI DUP1 PUSH4 0x6FDDE03 EQ PUSH2 0xDB1 JUMPI DUP1 PUSH4 0x95EA7B3 EQ PUSH2 0xD75 JUMPI DUP1 PUSH4 0x18160DDD EQ PUSH2 0xD56 JUMPI DUP1 PUSH4 0x1BD7342C EQ PUSH2 0x9EE JUMPI DUP1 PUSH4 0x23B872DD EQ PUSH2 0x949 JUMPI DUP1 PUSH4 0x313CE567 EQ PUSH2 0x927 JUMPI DUP1 PUSH4 0x36C43EE0 EQ PUSH2 0x8C0 JUMPI DUP1 PUSH4 0x3F4BA83A EQ PUSH2 0x863 JUMPI DUP1 PUSH4 0x3FE3347A EQ PUSH2 0x845 JUMPI DUP1 PUSH4 0x40C10F19 EQ PUSH2 0x778 JUMPI DUP1 PUSH4 0x42966C68 EQ PUSH2 0x6B4 JUMPI DUP1 PUSH4 0x51CC7B6B EQ PUSH2 0x696 JUMPI DUP1 PUSH4 0x5C975ABB EQ PUSH2 0x66F JUMPI DUP1 PUSH4 0x5E3109E7 EQ PUSH2 0x602 JUMPI DUP1 PUSH4 0x70A08231 EQ PUSH2 0x5FD JUMPI DUP1 PUSH4 0x776CDB7C EQ PUSH2 0x5DF JUMPI DUP1 PUSH4 0x79CC6790 EQ PUSH2 0x4D1 JUMPI DUP1 PUSH4 0x8456CB59 EQ PUSH2 0x461 JUMPI DUP1 PUSH4 0x8DA5CB5B EQ PUSH2 0x434 JUMPI DUP1 PUSH4 0x95D89B41 EQ PUSH2 0x3FF JUMPI DUP1 PUSH4 0xA71891C3 EQ PUSH2 0x3E0 JUMPI DUP1 PUSH4 0xA9059CBB EQ PUSH2 0x35D JUMPI DUP1 PUSH4 0xABB1DC44 EQ PUSH2 0x2DB JUMPI DUP1 PUSH4 0xBBB82D89 EQ PUSH2 0x2B7 JUMPI DUP1 PUSH4 0xC45A0155 EQ PUSH2 0x28E JUMPI DUP1 PUSH4 0xD5395D2B EQ PUSH2 0x253 JUMPI DUP1 PUSH4 0xDD62ED3E EQ PUSH2 0x206 JUMPI PUSH4 0xF2FDE38B EQ PUSH2 0x160 JUMPI PUSH1 0x0 DUP1 REVERT JUMPDEST CALLVALUE PUSH2 0x202 JUMPI PUSH1 0x20 CALLDATASIZE PUSH1 0x3 NOT ADD SLT PUSH2 0x202 JUMPI PUSH2 0x179 PUSH2 0xDCF JUMP JUMPDEST PUSH1 0x5 SLOAD SWAP1 PUSH1 0x1 DUP1 PUSH1 0xA0 SHL SUB SWAP3 DUP4 DUP4 PUSH1 0x8 SHR AND SWAP4 DUP5 CALLER SUB PUSH2 0x1F3 JUMPI DUP3 AND SWAP5 DUP6 ISZERO PUSH2 0x1E6 JUMPI POP POP PUSH2 0x100 PUSH1 0x1 PUSH1 0xA8 SHL SUB NOT SWAP1 SWAP2 AND PUSH1 0x8 SWAP2 SWAP1 SWAP2 SHL PUSH2 0x100 PUSH1 0x1 PUSH1 0xA8 SHL SUB AND OR PUSH1 0x5 SSTORE PUSH32 0x8BE0079C531659141344CD1FD0A4F28419497F9722A3DAAFE3B4186F6B6457E0 DUP4 DUP1 LOG3 DUP1 RETURN JUMPDEST MLOAD PUSH4 0xE6C4247B PUSH1 0xE0 SHL DUP2 MSTORE REVERT JUMPDEST POP DUP5 MLOAD PUSH4 0x30CD7471 PUSH1 0xE0 SHL DUP2 MSTORE REVERT JUMPDEST DUP3 DUP1 REVERT JUMPDEST POP POP CALLVALUE PUSH2 0x24F JUMPI DUP1 PUSH1 0x3 NOT CALLDATASIZE ADD SLT PUSH2 0x24F JUMPI DUP1 PUSH1 0x20 SWAP3 PUSH2 0x224 PUSH2 0xDCF JUMP JUMPDEST PUSH2 0x22C PUSH2 0xDEA JUMP JUMPDEST PUSH1 0x1 PUSH1 0x1 PUSH1 0xA0 SHL SUB SWAP2 DUP3 AND DUP4 MSTORE PUSH1 0x1 DUP7 MSTORE DUP4 DUP4 KECCAK256 SWAP2 AND DUP3 MSTORE DUP5 MSTORE KECCAK256 SLOAD SWAP1 MLOAD SWAP1 DUP2 MSTORE RETURN JUMPDEST POP DUP1 REVERT JUMPDEST POP POP CALLVALUE PUSH2 0x24F JUMPI DUP1 PUSH1 0x3 NOT CALLDATASIZE ADD SLT PUSH2 0x24F JUMPI PUSH1 0x20 SWAP2 PUSH1 0x1 PUSH1 0x1 PUSH1 0xA0 SHL SUB PUSH2 0x278 PUSH2 0xDCF JUMP JUMPDEST AND DUP2 MSTORE DUP1 DUP4 MSTORE DUP2 PUSH1 0x24 CALLDATALOAD SWAP2 KECCAK256 SLOAD LT ISZERO SWAP1 MLOAD SWAP1 DUP2 MSTORE RETURN JUMPDEST POP POP CALLVALUE PUSH2 0x24F JUMPI DUP2 PUSH1 0x3 NOT CALLDATASIZE ADD SLT PUSH2 0x24F JUMPI PUSH1 0x6 SLOAD SWAP1 MLOAD PUSH1 0x1 PUSH1 0x1 PUSH1 0xA0 SHL SUB SWAP1 SWAP2 AND DUP2 MSTORE PUSH1 0x20 SWAP1 RETURN JUMPDEST POP POP CALLVALUE PUSH2 0x24F JUMPI DUP2 PUSH1 0x3 NOT CALLDATASIZE ADD SLT PUSH2 0x24F JUMPI PUSH1 0x20 SWAP1 PUSH1 0xFF PUSH1 0xB SLOAD AND SWAP1 MLOAD SWAP1 ISZERO ISZERO DUP2 MSTORE RETURN JUMPDEST POP POP CALLVALUE PUSH2 0x24F JUMPI DUP2 PUSH1 0x3 NOT CALLDATASIZE ADD SLT PUSH2 0x24F JUMPI SWAP1 PUSH2 0x322 SWAP2 PUSH1 0xFF PUSH1 0x5 SLOAD PUSH1 0x6 SLOAD SWAP1 PUSH2 0x303 PUSH2 0xEAC JUMP JUMPDEST SWAP5 PUSH2 0x330 PUSH2 0x30F PUSH2 0x1135 JUMP JUMPDEST DUP7 MLOAD SWAP9 DUP10 SWAP9 PUSH1 0xC0 DUP11 MSTORE PUSH1 0xC0 DUP11 ADD SWAP1 PUSH2 0x11CE JUMP JUMPDEST SWAP1 DUP9 DUP3 SUB PUSH1 0x20 DUP11 ADD MSTORE PUSH2 0x11CE JUMP JUMPDEST SWAP5 DUP5 DUP4 AND SWAP1 DUP8 ADD MSTORE PUSH1 0x60 DUP7 ADD MSTORE PUSH1 0x1 DUP1 PUSH1 0xA0 SHL SUB SWAP1 PUSH1 0x8 SHR AND PUSH1 0x80 DUP6 ADD MSTORE PUSH1 0xA0 SHR AND ISZERO ISZERO PUSH1 0xA0 DUP4 ADD MSTORE SUB SWAP1 RETURN JUMPDEST POP SWAP2 CALLVALUE PUSH2 0x3DD JUMPI DUP2 PUSH1 0x3 NOT CALLDATASIZE ADD SLT PUSH2 0x3DD JUMPI POP PUSH2 0x378 PUSH2 0xDCF JUMP JUMPDEST PUSH1 0x24 CALLDATALOAD SWAP3 PUSH1 0xFF PUSH1 0x6 SLOAD PUSH1 0xA0 SHR AND PUSH2 0x3CF JUMPI DUP4 ISZERO PUSH2 0x3C1 JUMPI PUSH1 0x1 PUSH1 0x1 PUSH1 0xA0 SHL SUB DUP3 AND ISZERO PUSH2 0x3B3 JUMPI POP PUSH1 0x20 SWAP3 PUSH2 0x3AC SWAP2 CALLER PUSH2 0x1295 JUMP JUMPDEST MLOAD PUSH1 0x1 DUP2 MSTORE RETURN JUMPDEST DUP3 MLOAD PUSH4 0xE6C4247B PUSH1 0xE0 SHL DUP2 MSTORE REVERT JUMPDEST DUP3 MLOAD PUSH4 0x162908E3 PUSH1 0xE1 SHL DUP2 MSTORE REVERT JUMPDEST DUP3 MLOAD PUSH4 0xF61D0111 PUSH1 0xE0 SHL DUP2 MSTORE REVERT JUMPDEST DUP1 REVERT JUMPDEST POP POP CALLVALUE PUSH2 0x24F JUMPI DUP2 PUSH1 0x3 NOT CALLDATASIZE ADD SLT PUSH2 0x24F JUMPI PUSH1 0x20 SWAP1 PUSH1 0xA SLOAD SWAP1 MLOAD SWAP1 DUP2 MSTORE RETURN JUMPDEST POP POP CALLVALUE PUSH2 0x24F JUMPI DUP2 PUSH1 0x3 NOT CALLDATASIZE ADD SLT PUSH2 0x24F JUMPI PUSH2 0x430 SWAP1 PUSH2 0x41D PUSH2 0x1135 JUMP JUMPDEST SWAP1 MLOAD SWAP2 DUP3 SWAP2 PUSH1 0x20 DUP4 MSTORE PUSH1 0x20 DUP4 ADD SWAP1 PUSH2 0x11CE JUMP JUMPDEST SUB SWAP1 RETURN JUMPDEST POP POP CALLVALUE PUSH2 0x24F JUMPI DUP2 PUSH1 0x3 NOT CALLDATASIZE ADD SLT PUSH2 0x24F JUMPI PUSH1 0x5 SLOAD SWAP1 MLOAD PUSH1 0x8 SWAP2 SWAP1 SWAP2 SHR PUSH1 0x1 PUSH1 0x1 PUSH1 0xA0 SHL SUB AND DUP2 MSTORE PUSH1 0x20 SWAP1 RETURN JUMPDEST POP SWAP1 CALLVALUE PUSH2 0x202 JUMPI DUP3 PUSH1 0x3 NOT CALLDATASIZE ADD SLT PUSH2 0x202 JUMPI PUSH1 0x5 SLOAD PUSH1 0x8 SHR PUSH1 0x1 PUSH1 0x1 PUSH1 0xA0 SHL SUB AND CALLER SUB PUSH2 0x4C4 JUMPI PUSH1 0x6 DUP1 SLOAD PUSH1 0xFF PUSH1 0xA0 SHL NOT AND PUSH1 0x1 PUSH1 0xA0 SHL OR SWAP1 SSTORE DUP3 CALLER PUSH32 0xF017C0DE579727A3CD3EE18077EE8B4C43BF21892985952D1D5A0D52F983502D DUP3 DUP1 LOG2 DUP1 RETURN JUMPDEST MLOAD PUSH4 0x30CD7471 PUSH1 0xE0 SHL DUP2 MSTORE REVERT JUMPDEST POP CALLVALUE PUSH2 0x202 JUMPI DUP2 PUSH1 0x3 NOT CALLDATASIZE ADD SLT PUSH2 0x202 JUMPI PUSH2 0x4EA PUSH2 0xDCF JUMP JUMPDEST SWAP2 PUSH1 0x24 CALLDATALOAD SWAP2 DUP3 ISZERO PUSH2 0x5D1 JUMPI PUSH1 0x1 PUSH1 0x1 PUSH1 0xA0 SHL SUB DUP5 AND SWAP4 DUP5 ISZERO PUSH2 0x5C2 JUMPI PUSH2 0x511 DUP5 CALLER DUP4 PUSH2 0x138C JUMP JUMPDEST DUP5 DUP7 MSTORE DUP6 PUSH1 0x20 MSTORE DUP3 DUP7 KECCAK256 SLOAD SWAP2 DUP5 DUP4 LT PUSH2 0x58E JUMPI POP POP SWAP2 PUSH1 0x20 SWAP2 PUSH2 0x555 DUP3 PUSH32 0xFD38818F5291BF0BB3A2A48AADC06BA8757865D1DABD804585338AAB3009DCB6 SWAP6 PUSH2 0x1288 JUMP JUMPDEST DUP6 DUP8 MSTORE DUP7 DUP5 MSTORE DUP2 DUP8 KECCAK256 SSTORE PUSH2 0x56B DUP3 PUSH1 0x2 SLOAD PUSH2 0x1288 JUMP JUMPDEST PUSH1 0x2 SSTORE DUP6 DUP6 PUSH1 0x0 DUP1 MLOAD PUSH1 0x20 PUSH2 0x141C DUP4 CODECOPY DUP2 MLOAD SWAP2 MSTORE DUP6 DUP5 MLOAD DUP7 DUP2 MSTORE LOG3 MLOAD SWAP1 DUP2 MSTORE LOG2 DUP1 RETURN JUMPDEST DUP4 MLOAD PUSH4 0xDB42144D PUSH1 0xE0 SHL DUP2 MSTORE PUSH1 0x1 PUSH1 0x1 PUSH1 0xA0 SHL SUB SWAP1 SWAP3 AND SWAP1 DUP3 ADD SWAP1 DUP2 MSTORE PUSH1 0x20 DUP2 ADD DUP6 SWAP1 MSTORE PUSH1 0x40 DUP2 ADD DUP4 SWAP1 MSTORE DUP2 SWAP1 PUSH1 0x60 ADD SUB SWAP1 REVERT JUMPDEST POP SWAP1 MLOAD PUSH4 0xE6C4247B PUSH1 0xE0 SHL DUP2 MSTORE REVERT JUMPDEST SWAP1 MLOAD PUSH4 0x162908E3 PUSH1 0xE1 SHL DUP2 MSTORE REVERT JUMPDEST POP POP CALLVALUE PUSH2 0x24F JUMPI DUP2 PUSH1 0x3 NOT CALLDATASIZE ADD SLT PUSH2 0x24F JUMPI PUSH2 0x430 SWAP1 PUSH2 0x41D PUSH2 0x109C JUMP JUMPDEST PUSH2 0xE00 JUMP JUMPDEST POP POP CALLVALUE PUSH2 0x24F JUMPI DUP2 PUSH1 0x3 NOT CALLDATASIZE ADD SLT PUSH2 0x24F JUMPI PUSH2 0x322 SWAP1 PUSH2 0x430 PUSH1 0xA SLOAD SWAP2 PUSH1 0xFF PUSH1 0xB SLOAD AND SWAP3 PUSH2 0x62E PUSH2 0xF6A JUMP JUMPDEST SWAP4 PUSH2 0x637 PUSH2 0x109C JUMP JUMPDEST SWAP2 PUSH2 0x657 PUSH2 0x643 PUSH2 0x1003 JUMP JUMPDEST SWAP4 DUP6 MLOAD SWAP9 DUP10 SWAP9 PUSH1 0xA0 DUP11 MSTORE PUSH1 0xA0 DUP11 ADD SWAP1 PUSH2 0x11CE JUMP JUMPDEST SWAP4 DUP7 ADD MSTORE ISZERO ISZERO PUSH1 0x60 DUP6 ADD MSTORE DUP4 DUP3 SUB PUSH1 0x80 DUP6 ADD MSTORE PUSH2 0x11CE JUMP JUMPDEST POP POP CALLVALUE PUSH2 0x24F JUMPI DUP2 PUSH1 0x3 NOT CALLDATASIZE ADD SLT PUSH2 0x24F JUMPI PUSH1 0x20 SWAP1 PUSH1 0xFF PUSH1 0x6 SLOAD PUSH1 0xA0 SHR AND SWAP1 MLOAD SWAP1 ISZERO ISZERO DUP2 MSTORE RETURN JUMPDEST POP POP CALLVALUE PUSH2 0x24F JUMPI DUP2 PUSH1 0x3 NOT CALLDATASIZE ADD SLT PUSH2 0x24F JUMPI PUSH2 0x430 SWAP1 PUSH2 0x41D PUSH2 0x1003 JUMP JUMPDEST POP SWAP1 CALLVALUE PUSH2 0x202 JUMPI PUSH1 0x20 CALLDATASIZE PUSH1 0x3 NOT ADD SLT PUSH2 0x202 JUMPI DUP2 CALLDATALOAD SWAP2 DUP3 ISZERO PUSH2 0x5D1 JUMPI CALLER DUP5 MSTORE DUP4 PUSH1 0x20 MSTORE DUP2 DUP5 KECCAK256 SLOAD SWAP1 DUP4 DUP3 LT PUSH2 0x74F JUMPI POP DUP3 PUSH2 0x6EE SWAP2 PUSH2 0x1288 JUMP JUMPDEST CALLER DUP5 MSTORE DUP4 PUSH1 0x20 MSTORE DUP2 DUP5 KECCAK256 SSTORE PUSH2 0x705 DUP3 PUSH1 0x2 SLOAD PUSH2 0x1288 JUMP JUMPDEST PUSH1 0x2 SSTORE DUP3 DUP2 MLOAD DUP4 DUP2 MSTORE PUSH1 0x0 DUP1 MLOAD PUSH1 0x20 PUSH2 0x141C DUP4 CODECOPY DUP2 MLOAD SWAP2 MSTORE PUSH1 0x20 CALLER SWAP3 LOG3 MLOAD SWAP1 DUP2 MSTORE PUSH32 0xFD38818F5291BF0BB3A2A48AADC06BA8757865D1DABD804585338AAB3009DCB6 PUSH1 0x20 CALLER SWAP3 LOG2 DUP1 RETURN JUMPDEST SWAP2 MLOAD PUSH4 0xDB42144D PUSH1 0xE0 SHL DUP2 MSTORE CALLER SWAP3 DUP2 ADD SWAP3 DUP4 MSTORE PUSH1 0x20 DUP4 ADD SWAP4 SWAP1 SWAP4 MSTORE PUSH1 0x40 DUP3 ADD MSTORE DUP2 SWAP1 PUSH1 0x60 ADD SUB SWAP1 REVERT JUMPDEST POP SWAP1 CALLVALUE PUSH2 0x202 JUMPI DUP1 PUSH1 0x3 NOT CALLDATASIZE ADD SLT PUSH2 0x202 JUMPI PUSH2 0x792 PUSH2 0xDCF JUMP JUMPDEST PUSH1 0x5 SLOAD PUSH1 0x24 CALLDATALOAD SWAP3 SWAP2 PUSH1 0x1 PUSH1 0x1 PUSH1 0xA0 SHL SUB SWAP2 PUSH1 0x8 SHR DUP3 AND CALLER SUB PUSH2 0x835 JUMPI AND SWAP3 DUP4 ISZERO PUSH2 0x827 JUMPI DUP3 ISZERO PUSH2 0x5D1 JUMPI POP DUP2 PUSH1 0x20 SWAP2 PUSH2 0x7EE PUSH32 0x3F2C9D57C068687834F0DE942A9BABB9E5ACAB57D516D3480A3C16EE165A4273 SWAP5 PUSH1 0x2 SLOAD PUSH2 0x1265 JUMP JUMPDEST PUSH1 0x2 SSTORE DUP5 DUP7 MSTORE DUP6 DUP4 MSTORE DUP1 DUP7 KECCAK256 PUSH2 0x805 DUP4 DUP3 SLOAD PUSH2 0x1265 JUMP JUMPDEST SWAP1 SSTORE DUP5 DUP7 PUSH1 0x0 DUP1 MLOAD PUSH1 0x20 PUSH2 0x141C DUP4 CODECOPY DUP2 MLOAD SWAP2 MSTORE DUP6 DUP5 MLOAD DUP7 DUP2 MSTORE LOG3 MLOAD SWAP1 DUP2 MSTORE LOG2 DUP1 RETURN JUMPDEST SWAP1 MLOAD PUSH4 0xE6C4247B PUSH1 0xE0 SHL DUP2 MSTORE REVERT JUMPDEST DUP3 MLOAD PUSH4 0x30CD7471 PUSH1 0xE0 SHL DUP2 MSTORE DUP6 SWAP1 REVERT JUMPDEST POP POP CALLVALUE PUSH2 0x24F JUMPI DUP2 PUSH1 0x3 NOT CALLDATASIZE ADD SLT PUSH2 0x24F JUMPI PUSH2 0x430 SWAP1 PUSH2 0x41D PUSH2 0xF6A JUMP JUMPDEST POP SWAP1 CALLVALUE PUSH2 0x202 JUMPI DUP3 PUSH1 0x3 NOT CALLDATASIZE ADD SLT PUSH2 0x202 JUMPI PUSH1 0x5 SLOAD PUSH1 0x8 SHR PUSH1 0x1 PUSH1 0x1 PUSH1 0xA0 SHL SUB AND CALLER SUB PUSH2 0x4C4 JUMPI PUSH1 0x6 DUP1 SLOAD PUSH1 0xFF PUSH1 0xA0 SHL NOT AND SWAP1 SSTORE DUP3 CALLER PUSH32 0xF38578ED892CE2CE655CA8AE03C73464AD74915A1331A9B4085E637534DAEEDF DUP3 DUP1 LOG2 DUP1 RETURN JUMPDEST POP SWAP1 CALLVALUE PUSH2 0x202 JUMPI DUP3 PUSH1 0x3 NOT CALLDATASIZE ADD SLT PUSH2 0x202 JUMPI PUSH1 0x6 SLOAD PUSH1 0x1 PUSH1 0x1 PUSH1 0xA0 SHL SUB AND CALLER SUB PUSH2 0x91A JUMPI DUP3 PUSH1 0x1 PUSH1 0xFF NOT PUSH1 0xB SLOAD AND OR PUSH1 0xB SSTORE CALLER PUSH32 0xBE95955BD2D9141BFF4014AF611ADC8CC414A3C5308DFBFF6AD1FCDA6E80807 DUP3 DUP1 LOG2 DUP1 RETURN JUMPDEST MLOAD PUSH4 0x1966391B PUSH1 0xE1 SHL DUP2 MSTORE REVERT JUMPDEST POP POP CALLVALUE PUSH2 0x24F JUMPI DUP2 PUSH1 0x3 NOT CALLDATASIZE ADD SLT PUSH2 0x24F JUMPI PUSH1 0x20 SWAP1 PUSH1 0xFF PUSH1 0x5 SLOAD AND SWAP1 MLOAD SWAP1 DUP2 MSTORE RETURN JUMPDEST POP SWAP2 CALLVALUE PUSH2 0x3DD JUMPI PUSH1 0x60 CALLDATASIZE PUSH1 0x3 NOT ADD SLT PUSH2 0x3DD JUMPI POP PUSH2 0x965 PUSH2 0xDCF JUMP JUMPDEST PUSH2 0x96D PUSH2 0xDEA JUMP JUMPDEST SWAP1 PUSH1 0x44 CALLDATALOAD SWAP4 PUSH1 0xFF PUSH1 0x6 SLOAD PUSH1 0xA0 SHR AND PUSH2 0x9E0 JUMPI DUP5 ISZERO PUSH2 0x9D2 JUMPI PUSH1 0x1 PUSH1 0x1 PUSH1 0xA0 SHL SUB DUP4 DUP2 AND ISZERO PUSH2 0x9C3 JUMPI DUP3 AND ISZERO PUSH2 0x9B5 JUMPI POP SWAP3 PUSH2 0x3AC SWAP2 PUSH1 0x20 SWAP5 PUSH2 0x9B0 DUP4 CALLER DUP4 PUSH2 0x138C JUMP JUMPDEST PUSH2 0x1295 JUMP JUMPDEST DUP4 MLOAD PUSH4 0xE6C4247B PUSH1 0xE0 SHL DUP2 MSTORE REVERT JUMPDEST POP DUP4 MLOAD PUSH4 0xE6C4247B PUSH1 0xE0 SHL DUP2 MSTORE REVERT JUMPDEST DUP4 MLOAD PUSH4 0x162908E3 PUSH1 0xE1 SHL DUP2 MSTORE REVERT JUMPDEST DUP4 MLOAD PUSH4 0xF61D0111 PUSH1 0xE0 SHL DUP2 MSTORE REVERT JUMPDEST POP DUP3 SWAP1 CALLVALUE PUSH2 0x24F JUMPI PUSH1 0x60 CALLDATASIZE PUSH1 0x3 NOT ADD SLT PUSH2 0x24F JUMPI PUSH8 0xFFFFFFFFFFFFFFFF SWAP3 DUP2 CALLDATALOAD DUP5 DUP2 GT PUSH2 0xD52 JUMPI PUSH2 0xA22 SWAP1 CALLDATASIZE SWAP1 DUP5 ADD PUSH2 0x120E JUMP JUMPDEST SWAP2 PUSH1 0x24 CALLDATALOAD SWAP1 PUSH1 0x44 CALLDATALOAD DUP7 DUP2 GT PUSH2 0xD4E JUMPI PUSH2 0xA3E SWAP1 CALLDATASIZE SWAP1 DUP4 ADD PUSH2 0x120E JUMP JUMPDEST PUSH1 0x5 SLOAD PUSH1 0x8 SHR PUSH1 0x1 PUSH1 0x1 PUSH1 0xA0 SHL SUB AND CALLER SUB PUSH2 0xD3F JUMPI DUP5 MLOAD SWAP2 DUP8 DUP4 GT PUSH2 0xC3E JUMPI PUSH2 0xA68 PUSH1 0x7 SLOAD PUSH2 0xE3A JUMP JUMPDEST SWAP3 PUSH1 0x1F SWAP4 DUP5 DUP2 GT PUSH2 0xCDF JUMPI JUMPDEST POP DUP1 PUSH1 0x20 DUP6 DUP3 GT PUSH1 0x1 EQ PUSH2 0xC5C JUMPI DUP10 SWAP2 PUSH2 0xC51 JUMPI JUMPDEST POP DUP2 PUSH1 0x1 SHL SWAP2 PUSH1 0x0 NOT SWAP1 PUSH1 0x3 SHL SHR NOT AND OR PUSH1 0x7 SSTORE JUMPDEST DUP4 PUSH1 0xA SSTORE DUP2 MLOAD SWAP8 DUP9 GT PUSH2 0xC3E JUMPI POP PUSH2 0xAB7 PUSH1 0x9 SLOAD PUSH2 0xE3A JUMP JUMPDEST DUP3 DUP2 GT PUSH2 0xBDE JUMPI JUMPDEST POP PUSH1 0x20 SWAP2 DUP8 GT PUSH1 0x1 EQ PUSH2 0xB39 JUMPI SWAP6 DUP1 SWAP2 DUP7 SWAP8 PUSH32 0xBC6F5CF2ECE628F201D4619AE75CCBDAABA2626F33D15ED417E92C36C83EE53F SWAP8 SWAP3 PUSH2 0xB2E JUMPI JUMPDEST POP POP DUP2 PUSH1 0x1 SHL SWAP2 PUSH1 0x0 NOT SWAP1 PUSH1 0x3 SHL SHR NOT AND OR PUSH1 0x9 SSTORE JUMPDEST PUSH2 0xB22 DUP3 MLOAD SWAP4 DUP4 DUP6 SWAP5 DUP6 MSTORE DUP5 ADD SWAP1 PUSH2 0x11CE JUMP JUMPDEST SWAP1 PUSH1 0x20 DUP4 ADD MSTORE SUB SWAP1 LOG1 DUP1 RETURN JUMPDEST ADD MLOAD SWAP1 POP DUP8 DUP1 PUSH2 0xAF9 JUMP JUMPDEST PUSH1 0x9 DUP7 MSTORE PUSH32 0x6E1540171B6C0C960B71A7020D9F60077F6AF931A8BBF590DA0223DACF75C7AF SWAP2 SWAP1 PUSH1 0x1F NOT DUP9 AND DUP8 JUMPDEST DUP2 DUP2 LT PUSH2 0xBC6 JUMPI POP SWAP2 PUSH1 0x1 SWAP4 SWAP2 DUP10 PUSH32 0xBC6F5CF2ECE628F201D4619AE75CCBDAABA2626F33D15ED417E92C36C83EE53F SWAP10 SWAP11 SWAP5 LT PUSH2 0xBAD JUMPI JUMPDEST POP POP POP DUP2 SHL ADD PUSH1 0x9 SSTORE PUSH2 0xB0F JUMP JUMPDEST ADD MLOAD PUSH1 0x0 NOT PUSH1 0xF8 DUP5 PUSH1 0x3 SHL AND SHR NOT AND SWAP1 SSTORE DUP8 DUP1 DUP1 PUSH2 0xB9F JUMP JUMPDEST SWAP3 SWAP4 PUSH1 0x20 PUSH1 0x1 DUP2 SWAP3 DUP8 DUP7 ADD MLOAD DUP2 SSTORE ADD SWAP6 ADD SWAP4 ADD PUSH2 0xB67 JUMP JUMPDEST PUSH1 0x9 DUP8 MSTORE PUSH32 0x6E1540171B6C0C960B71A7020D9F60077F6AF931A8BBF590DA0223DACF75C7AF DUP4 DUP1 DUP11 ADD PUSH1 0x5 SHR DUP3 ADD SWAP3 PUSH1 0x20 DUP12 LT PUSH2 0xC35 JUMPI JUMPDEST ADD PUSH1 0x5 SHR ADD SWAP1 JUMPDEST DUP2 DUP2 LT PUSH2 0xC2A JUMPI POP PUSH2 0xABF JUMP JUMPDEST DUP8 DUP2 SSTORE PUSH1 0x1 ADD PUSH2 0xC1D JUMP JUMPDEST SWAP3 POP DUP2 SWAP3 PUSH2 0xC16 JUMP JUMPDEST PUSH4 0x4E487B71 PUSH1 0xE0 SHL DUP8 MSTORE PUSH1 0x41 SWAP1 MSTORE PUSH1 0x24 DUP7 REVERT JUMPDEST SWAP1 POP DUP8 ADD MLOAD DUP11 PUSH2 0xA89 JUMP JUMPDEST PUSH1 0x7 DUP11 MSTORE PUSH32 0xA66CC928B5EDB82AF9BD49922954155AB7B0942694BEA4CE44661D9A8736C688 SWAP2 POP PUSH1 0x1F NOT DUP4 AND DUP11 JUMPDEST DUP11 DUP3 DUP3 LT PUSH2 0xCC7 JUMPI POP POP SWAP1 DUP4 PUSH1 0x1 SWAP5 SWAP4 SWAP3 LT PUSH2 0xCAE JUMPI JUMPDEST POP POP DUP2 SHL ADD PUSH1 0x7 SSTORE PUSH2 0xA9E JUMP JUMPDEST DUP10 ADD MLOAD PUSH1 0x0 NOT PUSH1 0xF8 DUP5 PUSH1 0x3 SHL AND SHR NOT AND SWAP1 SSTORE DUP11 DUP1 PUSH2 0xCA1 JUMP JUMPDEST PUSH1 0x1 DUP5 SWAP6 PUSH1 0x20 SWAP4 SWAP6 DUP5 SWAP4 ADD MLOAD DUP2 SSTORE ADD SWAP5 ADD SWAP3 ADD PUSH2 0xC8A JUMP JUMPDEST PUSH1 0x7 DUP10 MSTORE PUSH32 0xA66CC928B5EDB82AF9BD49922954155AB7B0942694BEA4CE44661D9A8736C688 DUP6 DUP1 DUP5 ADD PUSH1 0x5 SHR DUP3 ADD SWAP3 PUSH1 0x20 DUP6 LT PUSH2 0xD36 JUMPI JUMPDEST ADD PUSH1 0x5 SHR ADD SWAP1 JUMPDEST DUP2 DUP2 LT PUSH2 0xD2B JUMPI POP PUSH2 0xA74 JUMP JUMPDEST DUP10 DUP2 SSTORE PUSH1 0x1 ADD PUSH2 0xD1E JUMP JUMPDEST SWAP3 POP DUP2 SWAP3 PUSH2 0xD17 JUMP JUMPDEST POP DUP3 MLOAD PUSH4 0x30CD7471 PUSH1 0xE0 SHL DUP2 MSTORE REVERT JUMPDEST DUP6 DUP1 REVERT JUMPDEST DUP4 DUP1 REVERT JUMPDEST POP POP CALLVALUE PUSH2 0x24F JUMPI DUP2 PUSH1 0x3 NOT CALLDATASIZE ADD SLT PUSH2 0x24F JUMPI PUSH1 0x20 SWAP1 PUSH1 0x2 SLOAD SWAP1 MLOAD SWAP1 DUP2 MSTORE RETURN JUMPDEST POP SWAP2 CALLVALUE PUSH2 0x3DD JUMPI DUP2 PUSH1 0x3 NOT CALLDATASIZE ADD SLT PUSH2 0x3DD JUMPI POP PUSH2 0xD90 PUSH2 0xDCF JUMP JUMPDEST SWAP2 PUSH1 0x1 PUSH1 0x1 PUSH1 0xA0 SHL SUB DUP4 AND ISZERO PUSH2 0x827 JUMPI POP PUSH2 0x3AC PUSH1 0x20 SWAP3 PUSH1 0x24 CALLDATALOAD SWAP1 CALLER PUSH2 0x1335 JUMP JUMPDEST POP POP CALLVALUE PUSH2 0x24F JUMPI DUP2 PUSH1 0x3 NOT CALLDATASIZE ADD SLT PUSH2 0x24F JUMPI PUSH2 0x430 SWAP1 PUSH2 0x41D PUSH2 0xEAC JUMP JUMPDEST PUSH1 0x4 CALLDATALOAD SWAP1 PUSH1 0x1 PUSH1 0x1 PUSH1 0xA0 SHL SUB DUP3 AND DUP3 SUB PUSH2 0xDE5 JUMPI JUMP JUMPDEST PUSH1 0x0 DUP1 REVERT JUMPDEST PUSH1 0x24 CALLDATALOAD SWAP1 PUSH1 0x1 PUSH1 0x1 PUSH1 0xA0 SHL SUB DUP3 AND DUP3 SUB PUSH2 0xDE5 JUMPI JUMP JUMPDEST CALLVALUE PUSH2 0xDE5 JUMPI PUSH1 0x20 CALLDATASIZE PUSH1 0x3 NOT ADD SLT PUSH2 0xDE5 JUMPI PUSH1 0x1 PUSH1 0x1 PUSH1 0xA0 SHL SUB PUSH2 0xE21 PUSH2 0xDCF JUMP JUMPDEST AND PUSH1 0x0 MSTORE PUSH1 0x0 PUSH1 0x20 MSTORE PUSH1 0x20 PUSH1 0x40 PUSH1 0x0 KECCAK256 SLOAD PUSH1 0x40 MLOAD SWAP1 DUP2 MSTORE RETURN JUMPDEST SWAP1 PUSH1 0x1 DUP3 DUP2 SHR SWAP3 AND DUP1 ISZERO PUSH2 0xE6A JUMPI JUMPDEST PUSH1 0x20 DUP4 LT EQ PUSH2 0xE54 JUMPI JUMP JUMPDEST PUSH4 0x4E487B71 PUSH1 0xE0 SHL PUSH1 0x0 MSTORE PUSH1 0x22 PUSH1 0x4 MSTORE PUSH1 0x24 PUSH1 0x0 REVERT JUMPDEST SWAP2 PUSH1 0x7F AND SWAP2 PUSH2 0xE49 JUMP JUMPDEST SWAP1 PUSH1 0x1F DUP1 NOT SWAP2 ADD AND DUP2 ADD SWAP1 DUP2 LT PUSH8 0xFFFFFFFFFFFFFFFF DUP3 GT OR PUSH2 0xE96 JUMPI PUSH1 0x40 MSTORE JUMP JUMPDEST PUSH4 0x4E487B71 PUSH1 0xE0 SHL PUSH1 0x0 MSTORE PUSH1 0x41 PUSH1 0x4 MSTORE PUSH1 0x24 PUSH1 0x0 REVERT JUMPDEST PUSH1 0x40 MLOAD SWAP1 PUSH1 0x0 DUP3 PUSH1 0x3 SLOAD SWAP2 PUSH2 0xEC0 DUP4 PUSH2 0xE3A JUMP JUMPDEST DUP1 DUP4 MSTORE SWAP3 PUSH1 0x1 SWAP1 DUP2 DUP2 AND SWAP1 DUP2 ISZERO PUSH2 0xF48 JUMPI POP PUSH1 0x1 EQ PUSH2 0xEE9 JUMPI JUMPDEST POP PUSH2 0xEE7 SWAP3 POP SUB DUP4 PUSH2 0xE74 JUMP JUMPDEST JUMP JUMPDEST PUSH1 0x3 PUSH1 0x0 SWAP1 DUP2 MSTORE SWAP2 POP PUSH32 0xC2575A0E9E593C00F959F8C92F12DB2869C3395A3B0502D05E2516446F71F85B JUMPDEST DUP5 DUP4 LT PUSH2 0xF2D JUMPI POP PUSH2 0xEE7 SWAP4 POP POP DUP2 ADD PUSH1 0x20 ADD CODESIZE PUSH2 0xEDA JUMP JUMPDEST DUP2 SWAP4 POP SWAP1 DUP2 PUSH1 0x20 SWAP3 SLOAD DUP4 DUP6 DUP11 ADD ADD MSTORE ADD SWAP2 ADD SWAP1 SWAP2 DUP6 SWAP3 PUSH2 0xF14 JUMP JUMPDEST SWAP1 POP PUSH1 0x20 SWAP3 POP PUSH2 0xEE7 SWAP5 SWAP2 POP PUSH1 0xFF NOT AND DUP3 DUP5 ADD MSTORE ISZERO ISZERO PUSH1 0x5 SHL DUP3 ADD ADD CODESIZE PUSH2 0xEDA JUMP JUMPDEST PUSH1 0x40 MLOAD SWAP1 PUSH1 0x0 DUP3 PUSH1 0x7 SLOAD SWAP2 PUSH2 0xF7E DUP4 PUSH2 0xE3A JUMP JUMPDEST DUP1 DUP4 MSTORE SWAP3 PUSH1 0x1 SWAP1 DUP2 DUP2 AND SWAP1 DUP2 ISZERO PUSH2 0xF48 JUMPI POP PUSH1 0x1 EQ PUSH2 0xFA4 JUMPI POP PUSH2 0xEE7 SWAP3 POP SUB DUP4 PUSH2 0xE74 JUMP JUMPDEST PUSH1 0x7 PUSH1 0x0 SWAP1 DUP2 MSTORE SWAP2 POP PUSH32 0xA66CC928B5EDB82AF9BD49922954155AB7B0942694BEA4CE44661D9A8736C688 JUMPDEST DUP5 DUP4 LT PUSH2 0xFE8 JUMPI POP PUSH2 0xEE7 SWAP4 POP POP DUP2 ADD PUSH1 0x20 ADD CODESIZE PUSH2 0xEDA JUMP JUMPDEST DUP2 SWAP4 POP SWAP1 DUP2 PUSH1 0x20 SWAP3 SLOAD DUP4 DUP6 DUP11 ADD ADD MSTORE ADD SWAP2 ADD SWAP1 SWAP2 DUP6 SWAP3 PUSH2 0xFCF JUMP JUMPDEST PUSH1 0x40 MLOAD SWAP1 PUSH1 0x0 DUP3 PUSH1 0x9 SLOAD SWAP2 PUSH2 0x1017 DUP4 PUSH2 0xE3A JUMP JUMPDEST DUP1 DUP4 MSTORE SWAP3 PUSH1 0x1 SWAP1 DUP2 DUP2 AND SWAP1 DUP2 ISZERO PUSH2 0xF48 JUMPI POP PUSH1 0x1 EQ PUSH2 0x103D JUMPI POP PUSH2 0xEE7 SWAP3 POP SUB DUP4 PUSH2 0xE74 JUMP JUMPDEST PUSH1 0x9 PUSH1 0x0 SWAP1 DUP2 MSTORE SWAP2 POP PUSH32 0x6E1540171B6C0C960B71A7020D9F60077F6AF931A8BBF590DA0223DACF75C7AF JUMPDEST DUP5 DUP4 LT PUSH2 0x1081 JUMPI POP PUSH2 0xEE7 SWAP4 POP POP DUP2 ADD PUSH1 0x20 ADD CODESIZE PUSH2 0xEDA JUMP JUMPDEST DUP2 SWAP4 POP SWAP1 DUP2 PUSH1 0x20 SWAP3 SLOAD DUP4 DUP6 DUP11 ADD ADD MSTORE ADD SWAP2 ADD SWAP1 SWAP2 DUP6 SWAP3 PUSH2 0x1068 JUMP JUMPDEST PUSH1 0x40 MLOAD SWAP1 PUSH1 0x0 DUP3 PUSH1 0x8 SLOAD SWAP2 PUSH2 0x10B0 DUP4 PUSH2 0xE3A JUMP JUMPDEST DUP1 DUP4 MSTORE SWAP3 PUSH1 0x1 SWAP1 DUP2 DUP2 AND SWAP1 DUP2 ISZERO PUSH2 0xF48 JUMPI POP PUSH1 0x1 EQ PUSH2 0x10D6 JUMPI POP PUSH2 0xEE7 SWAP3 POP SUB DUP4 PUSH2 0xE74 JUMP JUMPDEST PUSH1 0x8 PUSH1 0x0 SWAP1 DUP2 MSTORE SWAP2 POP PUSH32 0xF3F7A9FE364FAAB93B216DA50A3214154F22A0A2B415B23A84C8169E8B636EE3 JUMPDEST DUP5 DUP4 LT PUSH2 0x111A JUMPI POP PUSH2 0xEE7 SWAP4 POP POP DUP2 ADD PUSH1 0x20 ADD CODESIZE PUSH2 0xEDA JUMP JUMPDEST DUP2 SWAP4 POP SWAP1 DUP2 PUSH1 0x20 SWAP3 SLOAD DUP4 DUP6 DUP11 ADD ADD MSTORE ADD SWAP2 ADD SWAP1 SWAP2 DUP6 SWAP3 PUSH2 0x1101 JUMP JUMPDEST PUSH1 0x40 MLOAD SWAP1 PUSH1 0x0 DUP3 PUSH1 0x4 SLOAD SWAP2 PUSH2 0x1149 DUP4 PUSH2 0xE3A JUMP JUMPDEST DUP1 DUP4 MSTORE SWAP3 PUSH1 0x1 SWAP1 DUP2 DUP2 AND SWAP1 DUP2 ISZERO PUSH2 0xF48 JUMPI POP PUSH1 0x1 EQ PUSH2 0x116F JUMPI POP PUSH2 0xEE7 SWAP3 POP SUB DUP4 PUSH2 0xE74 JUMP JUMPDEST PUSH1 0x4 PUSH1 0x0 SWAP1 DUP2 MSTORE SWAP2 POP PUSH32 0x8A35ACFBC15FF81A39AE7D344FD709F28E8600B4AA8C65C6B64BFE7FE36BD19B JUMPDEST DUP5 DUP4 LT PUSH2 0x11B3 JUMPI POP PUSH2 0xEE7 SWAP4 POP POP DUP2 ADD PUSH1 0x20 ADD CODESIZE PUSH2 0xEDA JUMP JUMPDEST DUP2 SWAP4 POP SWAP1 DUP2 PUSH1 0x20 SWAP3 SLOAD DUP4 DUP6 DUP11 ADD ADD MSTORE ADD SWAP2 ADD SWAP1 SWAP2 DUP6 SWAP3 PUSH2 0x119A JUMP JUMPDEST SWAP2 SWAP1 DUP3 MLOAD SWAP3 DUP4 DUP3 MSTORE PUSH1 0x0 JUMPDEST DUP5 DUP2 LT PUSH2 0x11FA JUMPI POP POP DUP3 PUSH1 0x0 PUSH1 0x20 DUP1 SWAP5 SWAP6 DUP5 ADD ADD MSTORE PUSH1 0x1F DUP1 NOT SWAP2 ADD AND ADD ADD SWAP1 JUMP JUMPDEST PUSH1 0x20 DUP2 DUP4 ADD DUP2 ADD MLOAD DUP5 DUP4 ADD DUP3 ADD MSTORE ADD PUSH2 0x11D9 JUMP JUMPDEST DUP2 PUSH1 0x1F DUP3 ADD SLT ISZERO PUSH2 0xDE5 JUMPI DUP1 CALLDATALOAD SWAP1 PUSH8 0xFFFFFFFFFFFFFFFF DUP3 GT PUSH2 0xE96 JUMPI PUSH1 0x40 MLOAD SWAP3 PUSH2 0x1243 PUSH1 0x1F DUP5 ADD PUSH1 0x1F NOT AND PUSH1 0x20 ADD DUP6 PUSH2 0xE74 JUMP JUMPDEST DUP3 DUP5 MSTORE PUSH1 0x20 DUP4 DUP4 ADD ADD GT PUSH2 0xDE5 JUMPI DUP2 PUSH1 0x0 SWAP3 PUSH1 0x20 DUP1 SWAP4 ADD DUP4 DUP7 ADD CALLDATACOPY DUP4 ADD ADD MSTORE SWAP1 JUMP JUMPDEST SWAP2 SWAP1 DUP3 ADD DUP1 SWAP3 GT PUSH2 0x1272 JUMPI JUMP JUMPDEST PUSH4 0x4E487B71 PUSH1 0xE0 SHL PUSH1 0x0 MSTORE PUSH1 0x11 PUSH1 0x4 MSTORE PUSH1 0x24 PUSH1 0x0 REVERT JUMPDEST SWAP2 SWAP1 DUP3 SUB SWAP2 DUP3 GT PUSH2 0x1272 JUMPI JUMP JUMPDEST PUSH1 0x1 PUSH1 0x1 PUSH1 0xA0 SHL SUB DUP1 DUP3 AND PUSH1 0x0 DUP2 DUP2 MSTORE PUSH1 0x20 DUP2 SWAP1 MSTORE PUSH1 0x40 DUP2 KECCAK256 SLOAD SWAP1 SWAP6 SWAP2 SWAP5 SWAP2 SWAP4 DUP5 DUP3 LT PUSH2 0x1303 JUMPI POP PUSH1 0x20 SWAP3 DUP5 SWAP3 PUSH2 0x12DD PUSH1 0x0 DUP1 MLOAD PUSH1 0x20 PUSH2 0x141C DUP4 CODECOPY DUP2 MLOAD SWAP2 MSTORE SWAP7 PUSH1 0x40 SWAP5 PUSH2 0x1288 JUMP JUMPDEST DUP8 DUP10 MSTORE DUP9 DUP7 MSTORE DUP4 DUP10 KECCAK256 SSTORE AND SWAP6 DUP7 DUP2 MSTORE KECCAK256 PUSH2 0x12F8 DUP3 DUP3 SLOAD PUSH2 0x1265 JUMP JUMPDEST SWAP1 SSTORE PUSH1 0x40 MLOAD SWAP1 DUP2 MSTORE LOG3 JUMP JUMPDEST PUSH1 0x40 MLOAD PUSH4 0xDB42144D PUSH1 0xE0 SHL DUP2 MSTORE PUSH1 0x1 PUSH1 0x1 PUSH1 0xA0 SHL SUB SWAP2 SWAP1 SWAP2 AND PUSH1 0x4 DUP3 ADD MSTORE PUSH1 0x24 DUP2 ADD DUP6 SWAP1 MSTORE PUSH1 0x44 DUP2 ADD SWAP2 SWAP1 SWAP2 MSTORE PUSH1 0x64 SWAP1 REVERT JUMPDEST SWAP1 SWAP2 PUSH1 0x20 PUSH32 0x8C5BE1E5EBEC7D5BD14F71427D1E84F3DD0314C0F7B2291E5B200AC8C7C3B925 SWAP2 PUSH1 0x1 DUP1 PUSH1 0xA0 SHL SUB DUP1 SWAP5 AND SWAP4 DUP5 PUSH1 0x0 MSTORE PUSH1 0x1 DUP4 MSTORE PUSH1 0x40 PUSH1 0x0 KECCAK256 SWAP6 AND SWAP5 DUP6 PUSH1 0x0 MSTORE DUP3 MSTORE DUP1 PUSH1 0x40 PUSH1 0x0 KECCAK256 SSTORE PUSH1 0x40 MLOAD SWAP1 DUP2 MSTORE LOG3 JUMP JUMPDEST SWAP2 PUSH1 0x1 DUP1 PUSH1 0xA0 SHL SUB DUP1 DUP5 AND DUP1 PUSH1 0x0 MSTORE PUSH1 0x1 PUSH1 0x20 MSTORE PUSH1 0x40 PUSH1 0x0 KECCAK256 SWAP2 DUP5 AND SWAP2 DUP3 PUSH1 0x0 MSTORE PUSH1 0x20 MSTORE PUSH1 0x40 PUSH1 0x0 KECCAK256 SLOAD SWAP2 PUSH1 0x0 NOT DUP4 SUB PUSH2 0x13C9 JUMPI JUMPDEST POP POP POP POP POP POP JUMP JUMPDEST DUP4 DUP4 LT PUSH2 0x13F2 JUMPI POP POP PUSH2 0x13E7 SWAP4 SWAP3 SWAP2 PUSH2 0x13E1 SWAP2 PUSH2 0x1288 JUMP JUMPDEST SWAP2 PUSH2 0x1335 JUMP JUMPDEST CODESIZE DUP1 DUP1 DUP1 DUP1 DUP1 PUSH2 0x13C1 JUMP JUMPDEST SWAP2 DUP4 PUSH1 0x84 SWAP4 PUSH1 0x40 MLOAD SWAP4 PUSH4 0x246FB689 PUSH1 0xE2 SHL DUP6 MSTORE PUSH1 0x4 DUP6 ADD MSTORE PUSH1 0x24 DUP5 ADD MSTORE PUSH1 0x44 DUP4 ADD MSTORE PUSH1 0x64 DUP3 ADD MSTORE REVERT INVALID 0xDD CALLCODE MSTORE 0xAD SHL 0xE2 0xC8 SWAP12 PUSH10 0xC2B068FC378DAA952BA7 CALL PUSH4 0xC4A11628 CREATE2 GAS 0x4D CREATE2 0x23 0xB3 0xEF LOG2 PUSH5 0x6970667358 0x22 SLT KECCAK256 SLOAD DUP14 0x2E PUSH1 0x4A PUSH3 0x12A6A1 SUB DUP9 0xF SWAP14 PUSH4 0x15773AEF 0x22 0xB9 PUSH5 0x2B9F57D86A 0xD1 INVALID 0xDE COINBASE PUSH2 0xC064 PUSH20 0x6F6C63430008140033A66CC928B5EDB82AF9BD49 SWAP3 0x29 SLOAD ISZERO GAS 0xB7 0xB0 SWAP5 0x26 SWAP5 0xBE LOG4 0xCE PREVRANDAO PUSH7 0x1D9A8736C68800 "},"methodIdentifiers":{"allowance(address,address)":"dd62ed3e","approve(address,uint256)":"095ea7b3","assetLocation()":"776cdb7c","assetType()":"3fe3347a","assetValue()":"a71891c3","balanceOf(address)":"70a08231","burn(uint256)":"42966c68","burnFrom(address,uint256)":"79cc6790","decimals()":"313ce567","factory()":"c45a0155","getAssetInfo()":"5e3109e7","getFormattedBalance(address)":"05c738d4","getTokenInfo()":"abb1dc44","hasSufficientBalance(address,uint256)":"d5395d2b","legalDocumentHash()":"51cc7b6b","mint(address,uint256)":"40c10f19","name()":"06fdde03","owner()":"8da5cb5b","pause()":"8456cb59","paused()":"5c975abb","symbol()":"95d89b41","totalSupply()":"18160ddd","transfer(address,uint256)":"a9059cbb","transferFrom(address,address,uint256)":"23b872dd","transferOwnership(address)":"f2fde38b","unpause()":"3f4ba83a","updateAssetInfo(string,uint256,string)":"1bd7342c","verified()":"bbb82d89","verifyAsset()":"36c43ee0"}}}}}